{
  "contractName": "CapperRole",
  "abi": [
    {
      "inputs": [],
      "stateMutability": "nonpayable",
      "type": "constructor"
    },
    {
      "anonymous": false,
      "inputs": [
        {
          "indexed": true,
          "internalType": "address",
          "name": "account",
          "type": "address"
        }
      ],
      "name": "CapperAdded",
      "type": "event"
    },
    {
      "anonymous": false,
      "inputs": [
        {
          "indexed": true,
          "internalType": "address",
          "name": "account",
          "type": "address"
        }
      ],
      "name": "CapperRemoved",
      "type": "event"
    },
    {
      "inputs": [
        {
          "internalType": "address",
          "name": "account",
          "type": "address"
        }
      ],
      "name": "isCapper",
      "outputs": [
        {
          "internalType": "bool",
          "name": "",
          "type": "bool"
        }
      ],
      "stateMutability": "view",
      "type": "function"
    },
    {
      "inputs": [
        {
          "internalType": "address",
          "name": "account",
          "type": "address"
        }
      ],
      "name": "addCapper",
      "outputs": [],
      "stateMutability": "nonpayable",
      "type": "function"
    },
    {
      "inputs": [],
      "name": "renounceCapper",
      "outputs": [],
      "stateMutability": "nonpayable",
      "type": "function"
    }
  ],
  "bytecode": "0x608060405234801561001057600080fd5b5061001a3361001f565b610172565b61003781600061006e60201b6101261790919060201c565b6040516001600160a01b038216907fa7555c95b69d4f5cc847881feb4ab2883a1921319e34fa2043747b793d65b36e90600090a250565b61007882826100ef565b156100ca5760405162461bcd60e51b815260206004820152601f60248201527f526f6c65733a206163636f756e7420616c72656164792068617320726f6c650060448201526064015b60405180910390fd5b6001600160a01b0316600090815260209190915260409020805460ff19166001179055565b60006001600160a01b0382166101525760405162461bcd60e51b815260206004820152602260248201527f526f6c65733a206163636f756e7420697320746865207a65726f206164647265604482015261737360f01b60648201526084016100c1565b506001600160a01b03166000908152602091909152604090205460ff1690565b610391806101816000396000f3fe608060405234801561001057600080fd5b50600436106100415760003560e01c806339564561146100465780635d5576f81461006d5780638dfbcf3614610077575b600080fd5b61005961005436600461032b565b61008a565b604051901515815260200160405180910390f35b61007561009c565b005b61007561008536600461032b565b6100a7565b600061009681836101a2565b92915050565b6100a533610225565b565b6100b03361008a565b61011a5760405162461bcd60e51b815260206004820152603060248201527f436170706572526f6c653a2063616c6c657220646f6573206e6f74206861766560448201526f207468652043617070657220726f6c6560801b60648201526084015b60405180910390fd5b61012381610267565b50565b61013082826101a2565b1561017d5760405162461bcd60e51b815260206004820152601f60248201527f526f6c65733a206163636f756e7420616c72656164792068617320726f6c65006044820152606401610111565b6001600160a01b0316600090815260209190915260409020805460ff19166001179055565b60006001600160a01b0382166102055760405162461bcd60e51b815260206004820152602260248201527f526f6c65733a206163636f756e7420697320746865207a65726f206164647265604482015261737360f01b6064820152608401610111565b506001600160a01b03166000908152602091909152604090205460ff1690565b6102306000826102a9565b6040516001600160a01b038216907f427400d279c506df610224b22ecce89b693fc1865864113f21c8d19c1f0c2a3b90600090a250565b610272600082610126565b6040516001600160a01b038216907fa7555c95b69d4f5cc847881feb4ab2883a1921319e34fa2043747b793d65b36e90600090a250565b6102b382826101a2565b6103095760405162461bcd60e51b815260206004820152602160248201527f526f6c65733a206163636f756e7420646f6573206e6f74206861766520726f6c6044820152606560f81b6064820152608401610111565b6001600160a01b0316600090815260209190915260409020805460ff19169055565b60006020828403121561033d57600080fd5b81356001600160a01b038116811461035457600080fd5b939250505056fea26469706673582212202af46c5c09c6946305edcd3d149f0e2bec9ad4cee1d959a65ba06e5e8265708e64736f6c634300080e0033",
  "immutableReferences": {},
  "source": "// SPDX-License-Identifier: MIT\npragma solidity ^0.8.0;\n\nimport \"@openzeppelin/contracts/utils/Context.sol\";\nimport \"../Roles.sol\";\n\ncontract CapperRole is Context {\n    using Roles for Roles.Role;\n\n    event CapperAdded(address indexed account);\n    event CapperRemoved(address indexed account);\n\n    Roles.Role private _cappers;\n\n    constructor (){\n        _addCapper(_msgSender());\n    }\n\n    modifier onlyCapper() {\n        require(isCapper(_msgSender()), \"CapperRole: caller does not have the Capper role\");\n        _;\n    }\n\n    function isCapper(address account) public view returns (bool) {\n        return _cappers.has(account);\n    }\n\n    function addCapper(address account) public onlyCapper {\n        _addCapper(account);\n    }\n\n    function renounceCapper() public {\n        _removeCapper(_msgSender());\n    }\n\n    function _addCapper(address account) internal {\n        _cappers.add(account);\n        emit CapperAdded(account);\n    }\n\n    function _removeCapper(address account) internal {\n        _cappers.remove(account);\n        emit CapperRemoved(account);\n    }\n}\n",
  "sourcePath": "/Users/yaksheshgupta/Desktop/Equistart_Smart_Contract/contracts/contracts/crowdsale/utils/access/roles/CapperRole.sol",
  "compiler": {
    "name": "solc",
    "version": "0.8.14+commit.80d49f37.Emscripten.clang"
  },
  "schemaVersion": "3.4.7",
  "updatedAt": "2023-02-24T10:21:17.243Z",
  "devdoc": {
    "kind": "dev",
    "methods": {},
    "version": 1
  },
  "userdoc": {
    "kind": "user",
    "methods": {},
    "version": 1
  }
}