{
  "contractName": "ConditionalEscrow",
  "abi": [
    {
      "anonymous": false,
      "inputs": [
        {
          "indexed": true,
          "internalType": "address",
          "name": "payee",
          "type": "address"
        },
        {
          "indexed": false,
          "internalType": "uint256",
          "name": "weiAmount",
          "type": "uint256"
        }
      ],
      "name": "Deposited",
      "type": "event"
    },
    {
      "anonymous": false,
      "inputs": [
        {
          "indexed": false,
          "internalType": "address",
          "name": "recipient",
          "type": "address"
        }
      ],
      "name": "PrimaryTransferred",
      "type": "event"
    },
    {
      "anonymous": false,
      "inputs": [
        {
          "indexed": true,
          "internalType": "address",
          "name": "payee",
          "type": "address"
        },
        {
          "indexed": false,
          "internalType": "uint256",
          "name": "weiAmount",
          "type": "uint256"
        }
      ],
      "name": "Withdrawn",
      "type": "event"
    },
    {
      "inputs": [
        {
          "internalType": "address",
          "name": "payee",
          "type": "address"
        }
      ],
      "name": "deposit",
      "outputs": [],
      "stateMutability": "payable",
      "type": "function"
    },
    {
      "inputs": [
        {
          "internalType": "address",
          "name": "payee",
          "type": "address"
        }
      ],
      "name": "depositsOf",
      "outputs": [
        {
          "internalType": "uint256",
          "name": "",
          "type": "uint256"
        }
      ],
      "stateMutability": "view",
      "type": "function"
    },
    {
      "inputs": [],
      "name": "primary",
      "outputs": [
        {
          "internalType": "address",
          "name": "",
          "type": "address"
        }
      ],
      "stateMutability": "view",
      "type": "function"
    },
    {
      "inputs": [
        {
          "internalType": "address",
          "name": "recipient",
          "type": "address"
        }
      ],
      "name": "transferPrimary",
      "outputs": [],
      "stateMutability": "nonpayable",
      "type": "function"
    },
    {
      "inputs": [
        {
          "internalType": "address payable",
          "name": "payee",
          "type": "address"
        }
      ],
      "name": "withdrawWithGas",
      "outputs": [],
      "stateMutability": "nonpayable",
      "type": "function"
    },
    {
      "inputs": [
        {
          "internalType": "address",
          "name": "payee",
          "type": "address"
        }
      ],
      "name": "withdrawalAllowed",
      "outputs": [
        {
          "internalType": "bool",
          "name": "",
          "type": "bool"
        }
      ],
      "stateMutability": "view",
      "type": "function"
    },
    {
      "inputs": [
        {
          "internalType": "address payable",
          "name": "payee",
          "type": "address"
        }
      ],
      "name": "withdraw",
      "outputs": [],
      "stateMutability": "nonpayable",
      "type": "function"
    }
  ],
  "bytecode": "0x608060405234801561001057600080fd5b50600080546001600160a01b031916339081179091556040805182815290517f4101e71e974f68df5e9730cc223280b41654676bbb052cdcc735c3337e64d2d99181900360200190a150610640806100696000396000f3fe6080604052600436106100705760003560e01c8063685ca1941161004e578063685ca194146100d7578063c6dbdf611461010d578063e3a9db1a14610135578063f340fa011461017957600080fd5b80632348238c1461007557806351cff8d9146100975780636809691a146100b7575b600080fd5b34801561008157600080fd5b5061009561009036600461057b565b61018c565b005b3480156100a357600080fd5b506100956100b236600461057b565b610285565b3480156100c357600080fd5b506100956100d236600461057b565b6102ec565b3480156100e357600080fd5b506100f86100f236600461057b565b50600090565b60405190151581526020015b60405180910390f35b34801561011957600080fd5b506000546040516001600160a01b039091168152602001610104565b34801561014157600080fd5b5061016b61015036600461057b565b6001600160a01b031660009081526001602052604090205490565b604051908152602001610104565b61009561018736600461057b565b61038e565b6000546001600160a01b0316336001600160a01b0316146101c85760405162461bcd60e51b81526004016101bf90610598565b60405180910390fd5b6001600160a01b0381166102315760405162461bcd60e51b815260206004820152602a60248201527f5365636f6e646172793a206e6577207072696d61727920697320746865207a65604482015269726f206164647265737360b01b60648201526084016101bf565b600080546001600160a01b0319166001600160a01b0383169081179091556040519081527f4101e71e974f68df5e9730cc223280b41654676bbb052cdcc735c3337e64d2d99060200160405180910390a150565b60405162461bcd60e51b815260206004820152603360248201527f436f6e646974696f6e616c457363726f773a207061796565206973206e6f7420604482015272616c6c6f77656420746f20776974686472617760681b60648201526084016101bf565b50565b6000546001600160a01b0316336001600160a01b03161461031f5760405162461bcd60e51b81526004016101bf90610598565b6001600160a01b03811660008181526001602052604081208054919055906103479082610435565b816001600160a01b03167f7084f5476618d8e60b11ef0d7d3f06914655adb8793e28ff7f018d4c76d505d58260405161038291815260200190565b60405180910390a25050565b6000546001600160a01b0316336001600160a01b0316146103c15760405162461bcd60e51b81526004016101bf90610598565b6001600160a01b03811660009081526001602052604090205434906103e69082610553565b6001600160a01b038316600081815260016020526040908190209290925590517f2da466a7b24304f47e87fa2e1e5a81b9831ce54fec19055ce277ca2f39ba42c4906103829084815260200190565b804710156104855760405162461bcd60e51b815260206004820152601d60248201527f416464726573733a20696e73756666696369656e742062616c616e636500000060448201526064016101bf565b6000826001600160a01b03168260405160006040518083038185875af1925050503d80600081146104d2576040519150601f19603f3d011682016040523d82523d6000602084013e6104d7565b606091505b505090508061054e5760405162461bcd60e51b815260206004820152603a60248201527f416464726573733a20756e61626c6520746f2073656e642076616c75652c207260448201527f6563697069656e74206d6179206861766520726576657274656400000000000060648201526084016101bf565b505050565b600061055f82846105e4565b9392505050565b6001600160a01b03811681146102e957600080fd5b60006020828403121561058d57600080fd5b813561055f81610566565b6020808252602c908201527f5365636f6e646172793a2063616c6c6572206973206e6f74207468652070726960408201526b1b585c9e481858d8dbdd5b9d60a21b606082015260800190565b6000821982111561060557634e487b7160e01b600052601160045260246000fd5b50019056fea2646970667358221220dddaac2d367befb54afe54f409d1225acf408f678380f5f1873ce1e495e2257d64736f6c634300080d0033",
  "immutableReferences": {},
  "source": "// SPDX-License-Identifier: MIT\npragma solidity ^0.8.0;\n\nimport \"./Escrow.sol\";\n\n/**\n * @title ConditionalEscrow\n * @dev Base abstract escrow to only allow withdrawal if a condition is met.\n * @dev Intended usage: See {Escrow}. Same usage guidelines apply here.\n */\ncontract ConditionalEscrow is Escrow {\n    /**\n     * @dev Returns whether an address is allowed to withdraw their funds. To be\n     * implemented by derived contracts.\n     * @param payee The destination address of the funds.\n     */\n    function withdrawalAllowed(address payee) public virtual view returns (bool){}\n\n    function withdraw(address payable payee) public override{\n        require(withdrawalAllowed(payee), \"ConditionalEscrow: payee is not allowed to withdraw\");\n        super.withdraw(payee);\n    }\n}\n",
  "sourcePath": "/Users/yaksheshgupta/Desktop/Equistart_Smart_Contract/contracts/contracts/crowdsale/utils/escrow/ConditionalEscrow.sol",
  "compiler": {
    "name": "solc",
    "version": "0.8.13+commit.abaa5c0e.Emscripten.clang"
  },
  "schemaVersion": "3.4.7",
  "updatedAt": "2023-02-06T14:37:51.979Z",
  "devdoc": {
    "details": "Base abstract escrow to only allow withdrawal if a condition is met.Intended usage: See {Escrow}. Same usage guidelines apply here.",
    "kind": "dev",
    "methods": {
      "deposit(address)": {
        "details": "Stores the sent amount as credit to be withdrawn.",
        "params": {
          "payee": "The destination address of the funds."
        }
      },
      "primary()": {
        "returns": {
          "_0": "the address of the primary."
        }
      },
      "transferPrimary(address)": {
        "details": "Transfers contract to a new primary.",
        "params": {
          "recipient": "The address of new primary."
        }
      },
      "withdraw(address)": {
        "details": "Withdraw accumulated balance for a payee, forwarding 2300 gas (a Solidity `transfer`). NOTE: This function has been deprecated, use {withdrawWithGas} instead. Calling contracts with fixed-gas limits is an anti-pattern and may break contract interactions in network upgrades (hardforks). https://diligence.consensys.net/blog/2019/09/stop-using-soliditys-transfer-now/[Learn more.]",
        "params": {
          "payee": "The address whose funds will be withdrawn and transferred to."
        }
      },
      "withdrawWithGas(address)": {
        "details": "Same as {withdraw}, but forwarding all gas to the recipient. WARNING: Forwarding all gas opens the door to reentrancy vulnerabilities. Make sure you trust the recipient, or are either following the checks-effects-interactions pattern or using {ReentrancyGuard}. _Available since v2.4.0._"
      },
      "withdrawalAllowed(address)": {
        "details": "Returns whether an address is allowed to withdraw their funds. To be implemented by derived contracts.",
        "params": {
          "payee": "The destination address of the funds."
        }
      }
    },
    "title": "ConditionalEscrow",
    "version": 1
  },
  "userdoc": {
    "kind": "user",
    "methods": {},
    "version": 1
  }
}