{
  "contractName": "CrowdsaleFactory",
  "abi": [
    {
      "anonymous": false,
      "inputs": [
        {
          "indexed": true,
          "internalType": "address",
          "name": "previousOwner",
          "type": "address"
        },
        {
          "indexed": true,
          "internalType": "address",
          "name": "newOwner",
          "type": "address"
        }
      ],
      "name": "OwnershipTransferred",
      "type": "event"
    },
    {
      "anonymous": false,
      "inputs": [
        {
          "indexed": false,
          "internalType": "address",
          "name": "crowdsaleContract",
          "type": "address"
        }
      ],
      "name": "newCrowdSaleCreatedAt",
      "type": "event"
    },
    {
      "inputs": [],
      "name": "owner",
      "outputs": [
        {
          "internalType": "address",
          "name": "",
          "type": "address"
        }
      ],
      "stateMutability": "view",
      "type": "function"
    },
    {
      "inputs": [],
      "name": "renounceOwnership",
      "outputs": [],
      "stateMutability": "nonpayable",
      "type": "function"
    },
    {
      "inputs": [
        {
          "internalType": "address",
          "name": "newOwner",
          "type": "address"
        }
      ],
      "name": "transferOwnership",
      "outputs": [],
      "stateMutability": "nonpayable",
      "type": "function"
    },
    {
      "inputs": [
        {
          "internalType": "uint256",
          "name": "_rate",
          "type": "uint256"
        },
        {
          "internalType": "address",
          "name": "_wallet",
          "type": "address"
        },
        {
          "internalType": "contract ERC20",
          "name": "_token",
          "type": "address"
        }
      ],
      "name": "createCrowdSale",
      "outputs": [],
      "stateMutability": "nonpayable",
      "type": "function"
    },
    {
      "inputs": [],
      "name": "getAllDeployedProjects",
      "outputs": [
        {
          "components": [
            {
              "internalType": "contract ERC20",
              "name": "token",
              "type": "address"
            },
            {
              "internalType": "uint256",
              "name": "rate",
              "type": "uint256"
            },
            {
              "internalType": "address",
              "name": "beneficiaryAddr",
              "type": "address"
            },
            {
              "internalType": "address",
              "name": "crowdsaleContractAddr",
              "type": "address"
            }
          ],
          "internalType": "struct CrowdsaleFactory.crowdsaleMeta[]",
          "name": "props",
          "type": "tuple[]"
        }
      ],
      "stateMutability": "view",
      "type": "function"
    }
  ],
  "bytecode": "0x608060405234801561001057600080fd5b5061001a3361001f565b61006f565b600080546001600160a01b038381166001600160a01b0319831681178455604051919092169283917f8be0079c531659141344cd1fd0a4f28419497f9722a3daafe3b4186f6b6457e09190a35050565b610a108061007e6000396000f3fe608060405234801561001057600080fd5b50600436106100575760003560e01c8063715018a61461005c5780638da5cb5b14610066578063ee323eca14610086578063f0e24a4014610099578063f2fde38b146100ae575b600080fd5b6100646100c1565b005b6000546040516001600160a01b0390911681526020015b60405180910390f35b61006461009436600461042a565b6100d5565b6100a16101db565b60405161007d919061046c565b6100646100bc3660046104de565b6102e0565b6100c961035e565b6100d360006103b8565b565b60018054600091826100e683610502565b9091555060008181526002602081905260409182902080546001600160a01b038088166001600160a01b0319928316178355600183018a90559282018054938916939091169290921790915590519192509085908590859061014790610408565b9283526001600160a01b039182166020840152166040820152606001604051809103906000f08015801561017f573d6000803e3d6000fd5b506003820180546001600160a01b0319166001600160a01b039290921691821790556040519081527f87bf7513da32df063aa08a31dcfc40284567075208515fcb6d35bbdcc47447369060200160405180910390a15050505050565b606060015467ffffffffffffffff8111156101f8576101f8610529565b60405190808252806020026020018201604052801561024a57816020015b6040805160808101825260008082526020808301829052928201819052606082015282526000199092019101816102165790505b50905060005b6001548110156102dc57600081815260026020818152604092839020835160808101855281546001600160a01b03908116825260018301549382019390935292810154821693830193909352600390920154909116606082015282518390839081106102be576102be61053f565b602002602001018190525080806102d490610502565b915050610250565b5090565b6102e861035e565b6001600160a01b0381166103525760405162461bcd60e51b815260206004820152602660248201527f4f776e61626c653a206e6577206f776e657220697320746865207a65726f206160448201526564647265737360d01b60648201526084015b60405180910390fd5b61035b816103b8565b50565b6000546001600160a01b031633146100d35760405162461bcd60e51b815260206004820181905260248201527f4f776e61626c653a2063616c6c6572206973206e6f7420746865206f776e65726044820152606401610349565b600080546001600160a01b038381166001600160a01b0319831681178455604051919092169283917f8be0079c531659141344cd1fd0a4f28419497f9722a3daafe3b4186f6b6457e09190a35050565b6104858061055683390190565b6001600160a01b038116811461035b57600080fd5b60008060006060848603121561043f57600080fd5b83359250602084013561045181610415565b9150604084013561046181610415565b809150509250925092565b602080825282518282018190526000919060409081850190868401855b828110156104d157815180516001600160a01b039081168652878201518887015286820151811687870152606091820151169085015260809093019290850190600101610489565b5091979650505050505050565b6000602082840312156104f057600080fd5b81356104fb81610415565b9392505050565b60006001820161052257634e487b7160e01b600052601160045260246000fd5b5060010190565b634e487b7160e01b600052604160045260246000fd5b634e487b7160e01b600052603260045260246000fdfe608060405234801561001057600080fd5b5060405161048538038061048583398101604081905261002f916100b1565b6000831161003c57600080fd5b6001600160a01b03821661004f57600080fd5b6001600160a01b03811661006257600080fd5b600292909255600180546001600160a01b039283166001600160a01b031991821617909155600080549290931691161790556100f4565b6001600160a01b03811681146100ae57600080fd5b50565b6000806000606084860312156100c657600080fd5b8351925060208401516100d881610099565b60408501519092506100e981610099565b809150509250925092565b610382806101036000396000f3fe60806040526004361061004e5760003560e01c80632c4e722e146100675780634042b66f14610090578063521eb273146100a6578063ec8ac4d8146100de578063fc0c546a146100f15761005e565b3661005e5761005c33610111565b005b61005c33610111565b34801561007357600080fd5b5061007d60025481565b6040519081526020015b60405180910390f35b34801561009c57600080fd5b5061007d60035481565b3480156100b257600080fd5b506001546100c6906001600160a01b031681565b6040516001600160a01b039091168152602001610087565b61005c6100ec3660046102b4565b610111565b3480156100fd57600080fd5b506000546100c6906001600160a01b031681565b3461011c8282610197565b6000610127826101bb565b60035490915061013790836101d8565b60035561014483826101eb565b60408051838152602081018390526001600160a01b0385169133917f623b3804fa71d67900d064613da8f94b9617215ee90799290593e1745087ad18910160405180910390a36101926101f5565b505050565b6001600160a01b0382166101aa57600080fd5b806000036101b757600080fd5b5050565b60006101d26002548361023190919063ffffffff16565b92915050565b60006101e482846102f3565b9392505050565b6101b7828261023d565b6001546040516001600160a01b03909116903480156108fc02916000818181858888f1935050505015801561022e573d6000803e3d6000fd5b50565b60006101e4828461030b565b60005460405163a9059cbb60e01b81526001600160a01b038481166004830152602482018490529091169063a9059cbb906044016020604051808303816000875af1158015610290573d6000803e3d6000fd5b505050506040513d601f19601f82011682018060405250810190610192919061032a565b6000602082840312156102c657600080fd5b81356001600160a01b03811681146101e457600080fd5b634e487b7160e01b600052601160045260246000fd5b60008219821115610306576103066102dd565b500190565b6000816000190483118215151615610325576103256102dd565b500290565b60006020828403121561033c57600080fd5b815180151581146101e457600080fdfea2646970667358221220deaf99f0a5ab30498eba526423cd4c40ed84f1652ed6f6f996399ddf9552e5cf64736f6c634300080d0033a2646970667358221220b519937ec789106593771c051f21decc7690ee6acabbe2cb5803ffad7c5582ab64736f6c634300080d0033",
  "immutableReferences": {},
  "source": "// SPDX-License-Identifier: GPL-3.0\npragma solidity ^0.8.4;\n\nimport \"./Crowdsale.sol\";\nimport \"@openzeppelin/contracts/access/Ownable.sol\";\n\ncontract CrowdsaleFactory is Ownable{\n    \n    uint numOfCrowdsale;\n\n    struct crowdsaleMeta {\n        ERC20 token;\n        uint rate;\n        address beneficiaryAddr;\n        address crowdsaleContractAddr;\n    }\n\n    mapping(uint => crowdsaleMeta) private deployedCrowdsale;\n\n    event newCrowdSaleCreatedAt(address crowdsaleContract );\n\n\n    // constructor(){\n    //     // TODO: Add the owner as msg.sender from Ownable contract\n    // }\n\n\n    function createCrowdSale(uint256 _rate, address _wallet, ERC20 _token) public {\n        uint crowdsaleId = numOfCrowdsale++;\n        crowdsaleMeta storage currentCrowdsale = deployedCrowdsale[crowdsaleId];\n        currentCrowdsale.token = _token;\n        currentCrowdsale.rate = _rate;\n        currentCrowdsale.beneficiaryAddr = _wallet;\n        currentCrowdsale.crowdsaleContractAddr = address(new Crowdsale(_rate, _wallet, _token));\n        emit newCrowdSaleCreatedAt(currentCrowdsale.crowdsaleContractAddr);\n\n    }\n\n    function getAllDeployedProjects () public view returns (crowdsaleMeta[] memory props){\n        // return deployedProjects;\n        props = new crowdsaleMeta[](numOfCrowdsale);\n        \n        for (uint256 index =0; index< numOfCrowdsale; index++){\n            props[index] = deployedCrowdsale[index];\n        }\n    }\n\n}\n",
  "sourcePath": "/Users/yaksheshgupta/Desktop/Equistart_Smart_Contract/contracts/contracts/CrowdsaleFactory.sol",
  "compiler": {
    "name": "solc",
    "version": "0.8.13+commit.abaa5c0e.Emscripten.clang"
  },
  "schemaVersion": "3.4.7",
  "updatedAt": "2023-02-08T19:02:54.279Z",
  "devdoc": {
    "kind": "dev",
    "methods": {
      "owner()": {
        "details": "Returns the address of the current owner."
      },
      "renounceOwnership()": {
        "details": "Leaves the contract without owner. It will not be possible to call `onlyOwner` functions anymore. Can only be called by the current owner. NOTE: Renouncing ownership will leave the contract without an owner, thereby removing any functionality that is only available to the owner."
      },
      "transferOwnership(address)": {
        "details": "Transfers ownership of the contract to a new account (`newOwner`). Can only be called by the current owner."
      }
    },
    "version": 1
  },
  "userdoc": {
    "kind": "user",
    "methods": {},
    "version": 1
  }
}