{
  "contractName": "CrowdsaleFactory",
  "abi": [
    {
      "anonymous": false,
      "inputs": [
        {
          "indexed": true,
          "internalType": "address",
          "name": "previousOwner",
          "type": "address"
        },
        {
          "indexed": true,
          "internalType": "address",
          "name": "newOwner",
          "type": "address"
        }
      ],
      "name": "OwnershipTransferred",
      "type": "event"
    },
    {
      "anonymous": false,
      "inputs": [
        {
          "indexed": false,
          "internalType": "address",
          "name": "crowdsaleContract",
          "type": "address"
        }
      ],
      "name": "newCrowdSaleCreatedAt",
      "type": "event"
    },
    {
      "inputs": [],
      "name": "owner",
      "outputs": [
        {
          "internalType": "address",
          "name": "",
          "type": "address"
        }
      ],
      "stateMutability": "view",
      "type": "function",
      "constant": true
    },
    {
      "inputs": [],
      "name": "renounceOwnership",
      "outputs": [],
      "stateMutability": "nonpayable",
      "type": "function"
    },
    {
      "inputs": [
        {
          "internalType": "address",
          "name": "newOwner",
          "type": "address"
        }
      ],
      "name": "transferOwnership",
      "outputs": [],
      "stateMutability": "nonpayable",
      "type": "function"
    },
    {
      "inputs": [
        {
          "internalType": "uint256",
          "name": "_rate",
          "type": "uint256"
        },
        {
          "internalType": "address",
          "name": "_wallet",
          "type": "address"
        },
        {
          "internalType": "contract ERC20",
          "name": "_token",
          "type": "address"
        }
      ],
      "name": "createCrowdSale",
      "outputs": [],
      "stateMutability": "nonpayable",
      "type": "function"
    },
    {
      "inputs": [],
      "name": "getAllDeployedProjects",
      "outputs": [
        {
          "components": [
            {
              "internalType": "contract ERC20",
              "name": "token",
              "type": "address"
            },
            {
              "internalType": "uint256",
              "name": "rate",
              "type": "uint256"
            },
            {
              "internalType": "address",
              "name": "beneficiaryAddr",
              "type": "address"
            },
            {
              "internalType": "address",
              "name": "crowdsaleContractAddr",
              "type": "address"
            }
          ],
          "internalType": "struct CrowdsaleFactory.crowdsaleMeta[]",
          "name": "props",
          "type": "tuple[]"
        }
      ],
      "stateMutability": "view",
      "type": "function",
      "constant": true
    }
  ],
  "bytecode": "0x608060405234801561001057600080fd5b5061001a3361001f565b61006f565b600080546001600160a01b038381166001600160a01b0319831681178455604051919092169283917f8be0079c531659141344cd1fd0a4f28419497f9722a3daafe3b4186f6b6457e09190a35050565b610ed58061007e6000396000f3fe608060405234801561001057600080fd5b50600436106100575760003560e01c8063715018a61461005c5780638da5cb5b14610066578063ee323eca14610086578063f0e24a4014610099578063f2fde38b146100ae575b600080fd5b6100646100c1565b005b6000546040516001600160a01b0390911681526020015b60405180910390f35b61006461009436600461042a565b6100d5565b6100a16101db565b60405161007d919061046c565b6100646100bc3660046104de565b6102e0565b6100c961035e565b6100d360006103b8565b565b60018054600091826100e683610502565b9091555060008181526002602081905260409182902080546001600160a01b038088166001600160a01b0319928316178355600183018a90559282018054938916939091169290921790915590519192509085908590859061014790610408565b9283526001600160a01b039182166020840152166040820152606001604051809103906000f08015801561017f573d6000803e3d6000fd5b506003820180546001600160a01b0319166001600160a01b039290921691821790556040519081527f87bf7513da32df063aa08a31dcfc40284567075208515fcb6d35bbdcc47447369060200160405180910390a15050505050565b606060015467ffffffffffffffff8111156101f8576101f8610529565b60405190808252806020026020018201604052801561024a57816020015b6040805160808101825260008082526020808301829052928201819052606082015282526000199092019101816102165790505b50905060005b6001548110156102dc57600081815260026020818152604092839020835160808101855281546001600160a01b03908116825260018301549382019390935292810154821693830193909352600390920154909116606082015282518390839081106102be576102be61053f565b602002602001018190525080806102d490610502565b915050610250565b5090565b6102e861035e565b6001600160a01b0381166103525760405162461bcd60e51b815260206004820152602660248201527f4f776e61626c653a206e6577206f776e657220697320746865207a65726f206160448201526564647265737360d01b60648201526084015b60405180910390fd5b61035b816103b8565b50565b6000546001600160a01b031633146100d35760405162461bcd60e51b815260206004820181905260248201527f4f776e61626c653a2063616c6c6572206973206e6f7420746865206f776e65726044820152606401610349565b600080546001600160a01b038381166001600160a01b0319831681178455604051919092169283917f8be0079c531659141344cd1fd0a4f28419497f9722a3daafe3b4186f6b6457e09190a35050565b61094a8061055683390190565b6001600160a01b038116811461035b57600080fd5b60008060006060848603121561043f57600080fd5b83359250602084013561045181610415565b9150604084013561046181610415565b809150509250925092565b602080825282518282018190526000919060409081850190868401855b828110156104d157815180516001600160a01b039081168652878201518887015286820151811687870152606091820151169085015260809093019290850190600101610489565b5091979650505050505050565b6000602082840312156104f057600080fd5b81356104fb81610415565b9392505050565b60006001820161052257634e487b7160e01b600052601160045260246000fd5b5060010190565b634e487b7160e01b600052604160045260246000fd5b634e487b7160e01b600052603260045260246000fdfe608060405234801561001057600080fd5b5060405161094a38038061094a83398101604081905261002f9161019b565b6001600055826100865760405162461bcd60e51b815260206004820152601460248201527f43726f776473616c653a2072617465206973203000000000000000000000000060448201526064015b60405180910390fd5b6001600160a01b0382166100ea5760405162461bcd60e51b815260206004820152602560248201527f43726f776473616c653a2077616c6c657420697320746865207a65726f206164604482015264647265737360d81b606482015260840161007d565b6001600160a01b03811661014c5760405162461bcd60e51b8152602060048201526024808201527f43726f776473616c653a20746f6b656e20697320746865207a65726f206164646044820152637265737360e01b606482015260840161007d565b600392909255600280546001600160a01b039283166001600160a01b031991821617909155600180549290931691161790556101de565b6001600160a01b038116811461019857600080fd5b50565b6000806000606084860312156101b057600080fd5b8351925060208401516101c281610183565b60408501519092506101d381610183565b809150509250925092565b61075d806101ed6000396000f3fe60806040526004361061004e5760003560e01c80634042b66f1461006c57806343935cf71461009057806383bebced146100c2578063d69a3aeb146100d7578063ec8ac4d8146100f557610063565b366100635761006133610103565b610103565b005b61006133610103565b34801561007857600080fd5b506004545b6040519081526020015b60405180910390f35b34801561009c57600080fd5b506002546001600160a01b03165b6040516001600160a01b039091168152602001610087565b3480156100ce57600080fd5b5060035461007d565b3480156100e357600080fd5b506001546001600160a01b03166100aa565b61006161005c366004610610565b61010b61019b565b3461011682826101f9565b6000610121826102b6565b60045490915061013190836102d3565b60045561013e83826102e6565b60408051838152602081018390526001600160a01b0385169133917f6faf93231a456e552dbc9961f58d9713ee4f2e69d15f1975b050ef0911053a7b910160405180910390a361018c6102f0565b50506101986001600055565b50565b6002600054036101f25760405162461bcd60e51b815260206004820152601f60248201527f5265656e7472616e637947756172643a207265656e7472616e742063616c6c0060448201526064015b60405180910390fd5b6002600055565b6001600160a01b0382166102625760405162461bcd60e51b815260206004820152602a60248201527f43726f776473616c653a2062656e656669636961727920697320746865207a65604482015269726f206164647265737360b01b60648201526084016101e9565b806000036102b25760405162461bcd60e51b815260206004820152601960248201527f43726f776473616c653a20776569416d6f756e7420697320300000000000000060448201526064016101e9565b5050565b60006102cd6003548361032990919063ffffffff16565b92915050565b60006102df828461064f565b9392505050565b6102b28282610335565b6002546040516001600160a01b03909116903480156108fc02916000818181858888f19350505050158015610198573d6000803e3d6000fd5b60006102df8284610667565b6001546102b2906001600160a01b031683836040516001600160a01b0383166024820152604481018290526103a990849063a9059cbb60e01b9060640160408051601f198184030181529190526020810180516001600160e01b03166001600160e01b0319909316929092179091526103ae565b505050565b6000610403826040518060400160405280602081526020017f5361666545524332303a206c6f772d6c6576656c2063616c6c206661696c6564815250856001600160a01b03166104809092919063ffffffff16565b8051909150156103a957808060200190518101906104219190610686565b6103a95760405162461bcd60e51b815260206004820152602a60248201527f5361666545524332303a204552433230206f7065726174696f6e20646964206e6044820152691bdd081cdd58d8d9595960b21b60648201526084016101e9565b606061048f8484600085610497565b949350505050565b6060824710156104f85760405162461bcd60e51b815260206004820152602660248201527f416464726573733a20696e73756666696369656e742062616c616e636520666f6044820152651c8818d85b1b60d21b60648201526084016101e9565b600080866001600160a01b0316858760405161051491906106d8565b60006040518083038185875af1925050503d8060008114610551576040519150601f19603f3d011682016040523d82523d6000602084013e610556565b606091505b509150915061056787838387610572565b979650505050505050565b606083156105e15782516000036105da576001600160a01b0385163b6105da5760405162461bcd60e51b815260206004820152601d60248201527f416464726573733a2063616c6c20746f206e6f6e2d636f6e747261637400000060448201526064016101e9565b508161048f565b61048f83838151156105f65781518083602001fd5b8060405162461bcd60e51b81526004016101e991906106f4565b60006020828403121561062257600080fd5b81356001600160a01b03811681146102df57600080fd5b634e487b7160e01b600052601160045260246000fd5b6000821982111561066257610662610639565b500190565b600081600019048311821515161561068157610681610639565b500290565b60006020828403121561069857600080fd5b815180151581146102df57600080fd5b60005b838110156106c35781810151838201526020016106ab565b838111156106d2576000848401525b50505050565b600082516106ea8184602087016106a8565b9190910192915050565b60208152600082518060208401526107138160408501602087016106a8565b601f01601f1916919091016040019291505056fea2646970667358221220637cb01cd7cc18cff6552c5cfeb31ec95cbbfe76be326424cddc5257f5f2dcf864736f6c634300080e0033a2646970667358221220a8005f95dc298efb435f66f252b02658d5182aed552636398c6fa7e28d5de51d64736f6c634300080e0033",
  "immutableReferences": {},
  "source": "// SPDX-License-Identifier: GPL-3.0\npragma solidity ^0.8.4;\n\nimport \"./Crowdsale/CrowdSale.sol\";\nimport \"@openzeppelin/contracts/access/Ownable.sol\";\n\ncontract CrowdsaleFactory is Ownable{\n    \n    uint numOfCrowdsale;\n\n    struct crowdsaleMeta {\n        ERC20 token;\n        uint rate;\n        address beneficiaryAddr;\n        address crowdsaleContractAddr;\n    }\n\n    mapping(uint => crowdsaleMeta) private deployedCrowdsale;\n\n    event newCrowdSaleCreatedAt(address crowdsaleContract );\n\n\n    // constructor(){\n    //     // TODO: Add the owner as msg.sender from Ownable contract\n    // }\n\n\n    function createCrowdSale(uint256 _rate, address _wallet, ERC20 _token) public {\n        uint crowdsaleId = numOfCrowdsale++;\n        crowdsaleMeta storage currentCrowdsale = deployedCrowdsale[crowdsaleId];\n        currentCrowdsale.token = _token;\n        currentCrowdsale.rate = _rate;\n        currentCrowdsale.beneficiaryAddr = _wallet;\n        currentCrowdsale.crowdsaleContractAddr = address(new Crowdsale(_rate, payable(_wallet), _token));\n        emit newCrowdSaleCreatedAt(currentCrowdsale.crowdsaleContractAddr);\n\n    }\n\n    function getAllDeployedProjects () public view returns (crowdsaleMeta[] memory props){\n        // return deployedProjects;\n        props = new crowdsaleMeta[](numOfCrowdsale);\n        \n        for (uint256 index =0; index< numOfCrowdsale; index++){\n            props[index] = deployedCrowdsale[index];\n        }\n    }\n\n}\n",
  "sourcePath": "/Users/yaksheshgupta/Desktop/Equistart_Smart_Contract/contracts/contracts/CrowdsaleFactory.sol",
  "compiler": {
    "name": "solc",
    "version": "0.8.14+commit.80d49f37.Emscripten.clang"
  },
  "schemaVersion": "3.4.7",
  "updatedAt": "2023-03-24T14:44:20.295Z",
  "networkType": "ethereum",
  "devdoc": {
    "kind": "dev",
    "methods": {
      "owner()": {
        "details": "Returns the address of the current owner."
      },
      "renounceOwnership()": {
        "details": "Leaves the contract without owner. It will not be possible to call `onlyOwner` functions anymore. Can only be called by the current owner. NOTE: Renouncing ownership will leave the contract without an owner, thereby removing any functionality that is only available to the owner."
      },
      "transferOwnership(address)": {
        "details": "Transfers ownership of the contract to a new account (`newOwner`). Can only be called by the current owner."
      }
    },
    "version": 1
  },
  "userdoc": {
    "kind": "user",
    "methods": {},
    "version": 1
  }
}