{
  "contractName": "GovernorFactory",
  "abi": [
    {
      "anonymous": false,
      "inputs": [
        {
          "indexed": true,
          "internalType": "address",
          "name": "previousOwner",
          "type": "address"
        },
        {
          "indexed": true,
          "internalType": "address",
          "name": "newOwner",
          "type": "address"
        }
      ],
      "name": "OwnershipTransferred",
      "type": "event"
    },
    {
      "anonymous": false,
      "inputs": [
        {
          "indexed": false,
          "internalType": "address",
          "name": "governor",
          "type": "address"
        }
      ],
      "name": "newGovernorCreated",
      "type": "event"
    },
    {
      "inputs": [],
      "name": "owner",
      "outputs": [
        {
          "internalType": "address",
          "name": "",
          "type": "address"
        }
      ],
      "stateMutability": "view",
      "type": "function"
    },
    {
      "inputs": [],
      "name": "renounceOwnership",
      "outputs": [],
      "stateMutability": "nonpayable",
      "type": "function"
    },
    {
      "inputs": [
        {
          "internalType": "address",
          "name": "newOwner",
          "type": "address"
        }
      ],
      "name": "transferOwnership",
      "outputs": [],
      "stateMutability": "nonpayable",
      "type": "function"
    },
    {
      "inputs": [
        {
          "internalType": "address",
          "name": "_governor",
          "type": "address"
        },
        {
          "internalType": "address",
          "name": "_timelock",
          "type": "address"
        },
        {
          "internalType": "address",
          "name": "_token",
          "type": "address"
        }
      ],
      "name": "addGovernorAddress",
      "outputs": [],
      "stateMutability": "nonpayable",
      "type": "function"
    },
    {
      "inputs": [],
      "name": "getAllDeployedGovernor",
      "outputs": [
        {
          "components": [
            {
              "internalType": "address",
              "name": "governor",
              "type": "address"
            },
            {
              "internalType": "address",
              "name": "timelock",
              "type": "address"
            },
            {
              "internalType": "address",
              "name": "token",
              "type": "address"
            }
          ],
          "internalType": "struct GovernorFactory.GovernorMeta[]",
          "name": "props",
          "type": "tuple[]"
        }
      ],
      "stateMutability": "view",
      "type": "function"
    }
  ],
  "bytecode": "0x608060405234801561001057600080fd5b5061001a3361001f565b61006f565b600080546001600160a01b038381166001600160a01b0319831681178455604051919092169283917f8be0079c531659141344cd1fd0a4f28419497f9722a3daafe3b4186f6b6457e09190a35050565b6104fd8061007e6000396000f3fe608060405234801561001057600080fd5b50600436106100575760003560e01c80630dab24201461005c578063715018a6146100715780638da5cb5b14610079578063af800e7114610099578063f2fde38b146100ae575b600080fd5b61006f61006a3660046103a7565b6100c1565b005b61006f61015f565b6000546040516001600160a01b0390911681526020015b60405180910390f35b6100a1610173565b60405161009091906103ea565b61006f6100bc366004610452565b610263565b60018054600091826100d283610474565b9091555060008181526002602081815260409283902080546001600160a01b038a81166001600160a01b0319928316811784556001840180548c84169085161790559483018054918a1691909216179055925191825292935090917f5cbe3ce075ecdc55e8142db31e6a441bbf67f93d56fcb05ba3c88db57c7f362d910160405180910390a15050505050565b6101676102e1565b610171600061033b565b565b606060015467ffffffffffffffff8111156101905761019061049b565b6040519080825280602002602001820160405280156101db57816020015b60408051606081018252600080825260208083018290529282015282526000199092019101816101ae5790505b50905060005b60015481101561025f57600081815260026020818152604092839020835160608101855281546001600160a01b039081168252600183015481169382019390935292015416918101919091528251839083908110610241576102416104b1565b6020026020010181905250808061025790610474565b9150506101e1565b5090565b61026b6102e1565b6001600160a01b0381166102d55760405162461bcd60e51b815260206004820152602660248201527f4f776e61626c653a206e6577206f776e657220697320746865207a65726f206160448201526564647265737360d01b60648201526084015b60405180910390fd5b6102de8161033b565b50565b6000546001600160a01b031633146101715760405162461bcd60e51b815260206004820181905260248201527f4f776e61626c653a2063616c6c6572206973206e6f7420746865206f776e657260448201526064016102cc565b600080546001600160a01b038381166001600160a01b0319831681178455604051919092169283917f8be0079c531659141344cd1fd0a4f28419497f9722a3daafe3b4186f6b6457e09190a35050565b80356001600160a01b03811681146103a257600080fd5b919050565b6000806000606084860312156103bc57600080fd5b6103c58461038b565b92506103d36020850161038b565b91506103e16040850161038b565b90509250925092565b602080825282518282018190526000919060409081850190868401855b8281101561044557815180516001600160a01b0390811686528782015181168887015290860151168585015260609093019290850190600101610407565b5091979650505050505050565b60006020828403121561046457600080fd5b61046d8261038b565b9392505050565b60006001820161049457634e487b7160e01b600052601160045260246000fd5b5060010190565b634e487b7160e01b600052604160045260246000fd5b634e487b7160e01b600052603260045260246000fdfea2646970667358221220f51d931af01d67bd7174057bd0f7359d8bc51a92438033b808577dd58b611c8064736f6c634300080e0033",
  "immutableReferences": {},
  "source": "// SPDX-License-Identifier: GPL-3.0\npragma solidity ^0.8.4;\n\nimport \"@openzeppelin/contracts/access/Ownable.sol\";\n\ncontract GovernorFactory is Ownable {\n    \n    uint numOfGovernors;\n    struct GovernorMeta {\n        address governor;\n        address timelock;\n        address token;\n    }\n    mapping(uint => GovernorMeta) private deployedContracts;\n    event newGovernorCreated(address governor);\n\n    function addGovernorAddress(address _governor, address _timelock,address _token ) public {\n        uint governorId = numOfGovernors++;\n        GovernorMeta storage currentGovernor = deployedContracts[governorId];\n        currentGovernor.governor = _governor;\n        currentGovernor.timelock = _timelock;\n        currentGovernor.token = _token;\n        emit newGovernorCreated(_governor);\n    }\n\n    function getAllDeployedGovernor () public view returns (GovernorMeta[] memory props){\n        props = new GovernorMeta[](numOfGovernors);\n        for(uint256 index=0; index<numOfGovernors; index++){\n            props[index]= deployedContracts[index];\n        }\n    }\n}",
  "sourcePath": "/Users/yaksheshgupta/Desktop/Equistart_Smart_Contract/contracts/contracts/GovernorFactory.sol",
  "compiler": {
    "name": "solc",
    "version": "0.8.14+commit.80d49f37.Emscripten.clang"
  },
  "schemaVersion": "3.4.7",
  "updatedAt": "2023-02-24T10:21:17.170Z",
  "devdoc": {
    "kind": "dev",
    "methods": {
      "owner()": {
        "details": "Returns the address of the current owner."
      },
      "renounceOwnership()": {
        "details": "Leaves the contract without owner. It will not be possible to call `onlyOwner` functions anymore. Can only be called by the current owner. NOTE: Renouncing ownership will leave the contract without an owner, thereby removing any functionality that is only available to the owner."
      },
      "transferOwnership(address)": {
        "details": "Transfers ownership of the contract to a new account (`newOwner`). Can only be called by the current owner."
      }
    },
    "version": 1
  },
  "userdoc": {
    "kind": "user",
    "methods": {},
    "version": 1
  }
}