{
  "contractName": "MYCS_ALLOWANCE",
  "abi": [
    {
      "inputs": [
        {
          "internalType": "address",
          "name": "holder",
          "type": "address"
        },
        {
          "internalType": "uint256",
          "name": "_Rate",
          "type": "uint256"
        },
        {
          "internalType": "address payable",
          "name": "_wallet",
          "type": "address"
        },
        {
          "internalType": "contract IERC20",
          "name": "_token",
          "type": "address"
        }
      ],
      "stateMutability": "nonpayable",
      "type": "constructor"
    },
    {
      "anonymous": false,
      "inputs": [
        {
          "indexed": true,
          "internalType": "address",
          "name": "purchaser",
          "type": "address"
        },
        {
          "indexed": true,
          "internalType": "address",
          "name": "beneficiary",
          "type": "address"
        },
        {
          "indexed": false,
          "internalType": "uint256",
          "name": "value",
          "type": "uint256"
        },
        {
          "indexed": false,
          "internalType": "uint256",
          "name": "amount",
          "type": "uint256"
        }
      ],
      "name": "TokensPurchased",
      "type": "event"
    },
    {
      "stateMutability": "payable",
      "type": "fallback",
      "payable": true
    },
    {
      "inputs": [],
      "name": "_rate",
      "outputs": [
        {
          "internalType": "uint256",
          "name": "",
          "type": "uint256"
        }
      ],
      "stateMutability": "view",
      "type": "function",
      "constant": true
    },
    {
      "inputs": [
        {
          "internalType": "address",
          "name": "beneficiary",
          "type": "address"
        }
      ],
      "name": "buyTokens",
      "outputs": [],
      "stateMutability": "payable",
      "type": "function",
      "payable": true
    },
    {
      "inputs": [],
      "name": "remainingTokens",
      "outputs": [
        {
          "internalType": "uint256",
          "name": "",
          "type": "uint256"
        }
      ],
      "stateMutability": "view",
      "type": "function",
      "constant": true
    },
    {
      "inputs": [],
      "name": "seeToken",
      "outputs": [
        {
          "internalType": "contract IERC20",
          "name": "",
          "type": "address"
        }
      ],
      "stateMutability": "view",
      "type": "function",
      "constant": true
    },
    {
      "inputs": [],
      "name": "seeWallet",
      "outputs": [
        {
          "internalType": "address payable",
          "name": "",
          "type": "address"
        }
      ],
      "stateMutability": "view",
      "type": "function",
      "constant": true
    },
    {
      "inputs": [],
      "name": "tokenWallet",
      "outputs": [
        {
          "internalType": "address",
          "name": "",
          "type": "address"
        }
      ],
      "stateMutability": "view",
      "type": "function",
      "constant": true
    },
    {
      "inputs": [],
      "name": "weiRaised",
      "outputs": [
        {
          "internalType": "uint256",
          "name": "",
          "type": "uint256"
        }
      ],
      "stateMutability": "view",
      "type": "function",
      "constant": true
    },
    {
      "stateMutability": "payable",
      "type": "receive",
      "payable": true
    }
  ],
  "bytecode": "0x608060405234801561001057600080fd5b50604051610b91380380610b9183398101604081905261002f9161023c565b6001600055838383838261008a5760405162461bcd60e51b815260206004820152601460248201527f43726f776473616c653a2072617465206973203000000000000000000000000060448201526064015b60405180910390fd5b6001600160a01b0382166100ee5760405162461bcd60e51b815260206004820152602560248201527f43726f776473616c653a2077616c6c657420697320746865207a65726f206164604482015264647265737360d81b6064820152608401610081565b6001600160a01b0381166101505760405162461bcd60e51b8152602060048201526024808201527f43726f776473616c653a20746f6b656e20697320746865207a65726f206164646044820152637265737360e01b6064820152608401610081565b600392909255600280546001600160a01b03199081166001600160a01b0393841617909155600180549091169282169290921790915581166101fa5760405162461bcd60e51b815260206004820152603460248201527f416c6c6f77616e636543726f776473616c653a20746f6b656e2077616c6c657460448201527f20697320746865207a65726f20616464726573730000000000000000000000006064820152608401610081565b600580546001600160a01b0319166001600160a01b03929092169190911790555061029192505050565b6001600160a01b038116811461023957600080fd5b50565b6000806000806080858703121561025257600080fd5b845161025d81610224565b60208601516040870151919550935061027581610224565b606086015190925061028681610224565b939692955090935050565b6108f1806102a06000396000f3fe6080604052600436106100745760003560e01c8063bf5839031161004e578063bf583903146100fd578063bff99c6c14610112578063d69a3aeb14610130578063ec8ac4d81461014e57610089565b80634042b66f1461009257806343935cf7146100b657806383bebced146100e857610089565b36610089576100873361015c565b61015c565b005b6100873361015c565b34801561009e57600080fd5b506004545b6040519081526020015b60405180910390f35b3480156100c257600080fd5b506002546001600160a01b03165b6040516001600160a01b0390911681526020016100ad565b3480156100f457600080fd5b506003546100a3565b34801561010957600080fd5b506100a36101f4565b34801561011e57600080fd5b506005546001600160a01b03166100d0565b34801561013c57600080fd5b506001546001600160a01b03166100d0565b61008761008236600461078f565b6101646102ea565b3461016f8282610348565b600061017a82610405565b60045490915061018a9083610422565b6004556101978382610435565b60408051838152602081018390526001600160a01b0385169133917f6faf93231a456e552dbc9961f58d9713ee4f2e69d15f1975b050ef0911053a7b910160405180910390a36101e561043f565b50506101f16001600055565b50565b6001546005546040516370a0823160e01b81526001600160a01b0391821660048201526000926102e59216906370a0823190602401602060405180830381865afa158015610246573d6000803e3d6000fd5b505050506040513d601f19601f8201168201806040525081019061026a91906107b8565b600154600554604051636eb1769f60e11b81526001600160a01b03918216600482015230602482015291169063dd62ed3e90604401602060405180830381865afa1580156102bc573d6000803e3d6000fd5b505050506040513d601f19601f820116820180604052508101906102e091906107b8565b610478565b905090565b6002600054036103415760405162461bcd60e51b815260206004820152601f60248201527f5265656e7472616e637947756172643a207265656e7472616e742063616c6c0060448201526064015b60405180910390fd5b6002600055565b6001600160a01b0382166103b15760405162461bcd60e51b815260206004820152602a60248201527f43726f776473616c653a2062656e656669636961727920697320746865207a65604482015269726f206164647265737360b01b6064820152608401610338565b806000036104015760405162461bcd60e51b815260206004820152601960248201527f43726f776473616c653a20776569416d6f756e742069732030000000000000006044820152606401610338565b5050565b600061041c6003548361048e90919063ffffffff16565b92915050565b600061042e82846107e7565b9392505050565b610401828261049a565b6002546040516001600160a01b03909116903480156108fc02916000818181858888f193505050501580156101f1573d6000803e3d6000fd5b6000818310610487578161042e565b5090919050565b600061042e82846107ff565b6104018282600554600154610401916001600160a01b03918216911684846040516001600160a01b03808516602483015283166044820152606481018290526105229085906323b872dd60e01b9060840160408051601f198184030181529190526020810180516001600160e01b03166001600160e01b031990931692909217909152610528565b50505050565b600061057d826040518060400160405280602081526020017f5361666545524332303a206c6f772d6c6576656c2063616c6c206661696c6564815250856001600160a01b03166105ff9092919063ffffffff16565b8051909150156105fa578080602001905181019061059b919061081e565b6105fa5760405162461bcd60e51b815260206004820152602a60248201527f5361666545524332303a204552433230206f7065726174696f6e20646964206e6044820152691bdd081cdd58d8d9595960b21b6064820152608401610338565b505050565b606061060e8484600085610616565b949350505050565b6060824710156106775760405162461bcd60e51b815260206004820152602660248201527f416464726573733a20696e73756666696369656e742062616c616e636520666f6044820152651c8818d85b1b60d21b6064820152608401610338565b600080866001600160a01b03168587604051610693919061086c565b60006040518083038185875af1925050503d80600081146106d0576040519150601f19603f3d011682016040523d82523d6000602084013e6106d5565b606091505b50915091506106e6878383876106f1565b979650505050505050565b60608315610760578251600003610759576001600160a01b0385163b6107595760405162461bcd60e51b815260206004820152601d60248201527f416464726573733a2063616c6c20746f206e6f6e2d636f6e74726163740000006044820152606401610338565b508161060e565b61060e83838151156107755781518083602001fd5b8060405162461bcd60e51b81526004016103389190610888565b6000602082840312156107a157600080fd5b81356001600160a01b038116811461042e57600080fd5b6000602082840312156107ca57600080fd5b5051919050565b634e487b7160e01b600052601160045260246000fd5b600082198211156107fa576107fa6107d1565b500190565b6000816000190483118215151615610819576108196107d1565b500290565b60006020828403121561083057600080fd5b8151801515811461042e57600080fd5b60005b8381101561085b578181015183820152602001610843565b838111156105225750506000910152565b6000825161087e818460208701610840565b9190910192915050565b60208152600082518060208401526108a7816040850160208701610840565b601f01601f1916919091016040019291505056fea2646970667358221220d362c40e00da0ea0a2000e82bbf8e3955d3be14cdaa14606d565fb260d64ce0564736f6c634300080e0033",
  "immutableReferences": {},
  "source": "// SPDX-License-Identifier: MIT\npragma solidity ^0.8.0;\nimport \"../emission/AllowanceCrowdSale.sol\";\nimport \"../Crowdsale.sol\";\n\ncontract MYCS_ALLOWANCE is Crowdsale, AllowanceCrowdsale {\n    constructor(\n        address holder,\n        uint256 _Rate,\n        address payable _wallet,\n        IERC20 _token\n    ) Crowdsale(_Rate, _wallet, _token) AllowanceCrowdsale(holder){}\n\n    function _deliverTokens(\n        address beneficiary,\n        uint256 tokenAmount\n    ) internal override(AllowanceCrowdsale, Crowdsale) {\n        super._deliverTokens(beneficiary, tokenAmount);\n    }\n}\n",
  "sourcePath": "/Users/yaksheshgupta/Desktop/Equistart_Smart_Contract/contracts/contracts/crowdsale/MyCrowdsaleVersion/MYCS_ALLOWANCE.sol",
  "compiler": {
    "name": "solc",
    "version": "0.8.14+commit.80d49f37.Emscripten.clang"
  },
  "schemaVersion": "3.4.7",
  "updatedAt": "2023-03-24T14:44:21.626Z",
  "networkType": "ethereum",
  "devdoc": {
    "kind": "dev",
    "methods": {
      "_rate()": {
        "returns": {
          "_0": "the number of token units a buyer gets per wei."
        }
      },
      "buyTokens(address)": {
        "details": "low level token purchase ***DO NOT OVERRIDE*** This function has a non-reentrancy guard, so it shouldn't be called by another `nonReentrant` function.",
        "params": {
          "beneficiary": "Recipient of the token purchase"
        }
      },
      "remainingTokens()": {
        "details": "Checks the amount of tokens left in the allowance.",
        "returns": {
          "_0": "Amount of tokens left in the allowance"
        }
      },
      "seeToken()": {
        "returns": {
          "_0": "the token being sold."
        }
      },
      "seeWallet()": {
        "returns": {
          "_0": "the address where funds are collected."
        }
      },
      "tokenWallet()": {
        "returns": {
          "_0": "the address of the wallet that will hold the tokens."
        }
      },
      "weiRaised()": {
        "returns": {
          "_0": "the amount of wei raised."
        }
      }
    },
    "version": 1
  },
  "userdoc": {
    "events": {
      "TokensPurchased(address,address,uint256,uint256)": {
        "notice": "Event for token purchase logging"
      }
    },
    "kind": "user",
    "methods": {},
    "version": 1
  }
}