{
  "contractName": "MYCS_Capped_Timed",
  "abi": [
    {
      "inputs": [
        {
          "internalType": "uint256",
          "name": "cap",
          "type": "uint256"
        },
        {
          "internalType": "uint256",
          "name": "_openingTime",
          "type": "uint256"
        },
        {
          "internalType": "uint256",
          "name": "_closingTime",
          "type": "uint256"
        },
        {
          "internalType": "uint256",
          "name": "_Rate",
          "type": "uint256"
        },
        {
          "internalType": "address payable",
          "name": "_wallet",
          "type": "address"
        },
        {
          "internalType": "contract IERC20",
          "name": "_token",
          "type": "address"
        }
      ],
      "stateMutability": "nonpayable",
      "type": "constructor"
    },
    {
      "anonymous": false,
      "inputs": [
        {
          "indexed": false,
          "internalType": "uint256",
          "name": "prevClosingTime",
          "type": "uint256"
        },
        {
          "indexed": false,
          "internalType": "uint256",
          "name": "newClosingTime",
          "type": "uint256"
        }
      ],
      "name": "TimedCrowdsaleExtended",
      "type": "event"
    },
    {
      "anonymous": false,
      "inputs": [
        {
          "indexed": true,
          "internalType": "address",
          "name": "purchaser",
          "type": "address"
        },
        {
          "indexed": true,
          "internalType": "address",
          "name": "beneficiary",
          "type": "address"
        },
        {
          "indexed": false,
          "internalType": "uint256",
          "name": "value",
          "type": "uint256"
        },
        {
          "indexed": false,
          "internalType": "uint256",
          "name": "amount",
          "type": "uint256"
        }
      ],
      "name": "TokensPurchased",
      "type": "event"
    },
    {
      "stateMutability": "payable",
      "type": "fallback"
    },
    {
      "inputs": [],
      "name": "_rate",
      "outputs": [
        {
          "internalType": "uint256",
          "name": "",
          "type": "uint256"
        }
      ],
      "stateMutability": "view",
      "type": "function"
    },
    {
      "inputs": [
        {
          "internalType": "address",
          "name": "beneficiary",
          "type": "address"
        }
      ],
      "name": "buyTokens",
      "outputs": [],
      "stateMutability": "payable",
      "type": "function"
    },
    {
      "inputs": [],
      "name": "cap",
      "outputs": [
        {
          "internalType": "uint256",
          "name": "",
          "type": "uint256"
        }
      ],
      "stateMutability": "view",
      "type": "function"
    },
    {
      "inputs": [],
      "name": "capReached",
      "outputs": [
        {
          "internalType": "bool",
          "name": "",
          "type": "bool"
        }
      ],
      "stateMutability": "view",
      "type": "function"
    },
    {
      "inputs": [],
      "name": "closingTime",
      "outputs": [
        {
          "internalType": "uint256",
          "name": "",
          "type": "uint256"
        }
      ],
      "stateMutability": "view",
      "type": "function"
    },
    {
      "inputs": [],
      "name": "hasClosed",
      "outputs": [
        {
          "internalType": "bool",
          "name": "",
          "type": "bool"
        }
      ],
      "stateMutability": "view",
      "type": "function"
    },
    {
      "inputs": [],
      "name": "isOpen",
      "outputs": [
        {
          "internalType": "bool",
          "name": "",
          "type": "bool"
        }
      ],
      "stateMutability": "view",
      "type": "function"
    },
    {
      "inputs": [],
      "name": "openingTime",
      "outputs": [
        {
          "internalType": "uint256",
          "name": "",
          "type": "uint256"
        }
      ],
      "stateMutability": "view",
      "type": "function"
    },
    {
      "inputs": [],
      "name": "seeToken",
      "outputs": [
        {
          "internalType": "contract IERC20",
          "name": "",
          "type": "address"
        }
      ],
      "stateMutability": "view",
      "type": "function"
    },
    {
      "inputs": [],
      "name": "seeWallet",
      "outputs": [
        {
          "internalType": "address payable",
          "name": "",
          "type": "address"
        }
      ],
      "stateMutability": "view",
      "type": "function"
    },
    {
      "inputs": [],
      "name": "weiRaised",
      "outputs": [
        {
          "internalType": "uint256",
          "name": "",
          "type": "uint256"
        }
      ],
      "stateMutability": "view",
      "type": "function"
    },
    {
      "stateMutability": "payable",
      "type": "receive"
    }
  ],
  "bytecode": "0x608060405234801561001057600080fd5b50604051610cd6380380610cd683398101604081905261002f916102c8565b60016000558484878585858261008c5760405162461bcd60e51b815260206004820152601460248201527f43726f776473616c653a2072617465206973203000000000000000000000000060448201526064015b60405180910390fd5b6001600160a01b0382166100f05760405162461bcd60e51b815260206004820152602560248201527f43726f776473616c653a2077616c6c657420697320746865207a65726f206164604482015264647265737360d81b6064820152608401610083565b6001600160a01b0381166101525760405162461bcd60e51b8152602060048201526024808201527f43726f776473616c653a20746f6b656e20697320746865207a65726f206164646044820152637265737360e01b6064820152608401610083565b600392909255600280546001600160a01b039283166001600160a01b03199182161790915560018054929093169116179055806101d15760405162461bcd60e51b815260206004820152601960248201527f43617070656443726f776473616c653a206361702069732030000000000000006044820152606401610083565b600555428210156102385760405162461bcd60e51b81526020600482015260336024820152600080516020610cb683398151915260448201527f6265666f72652063757272656e742074696d65000000000000000000000000006064820152608401610083565b81811161029b5760405162461bcd60e51b81526020600482015260376024820152600080516020610cb683398151915260448201527f6e6f74206265666f726520636c6f73696e672074696d650000000000000000006064820152608401610083565b60069190915560075550610327945050505050565b6001600160a01b03811681146102c557600080fd5b50565b60008060008060008060c087890312156102e157600080fd5b865195506020870151945060408701519350606087015192506080870151610308816102b0565b60a0880151909250610319816102b0565b809150509295509295509295565b610980806103366000396000f3fe6080604052600436106100a05760003560e01c80634b6753bc116100645780634b6753bc146101615780634f9359451461017657806383bebced1461018b578063b7a8807c146101a0578063d69a3aeb146101b5578063ec8ac4d8146101d3576100b5565b80631515bc2b146100be578063355274ea146100e65780634042b66f1461010557806343935cf71461011a57806347535d7b1461014c576100b5565b366100b5576100b3336101e1565b6101e1565b005b6100b3336101e1565b3480156100ca57600080fd5b5060075442115b60405190151581526020015b60405180910390f35b3480156100f257600080fd5b506005545b6040519081526020016100dd565b34801561011157600080fd5b506004546100f7565b34801561012657600080fd5b506002546001600160a01b03165b6040516001600160a01b0390911681526020016100dd565b34801561015857600080fd5b506100d1610279565b34801561016d57600080fd5b506007546100f7565b34801561018257600080fd5b506100d1610294565b34801561019757600080fd5b506003546100f7565b3480156101ac57600080fd5b506006546100f7565b3480156101c157600080fd5b506001546001600160a01b0316610134565b6100b36100ae366004610833565b6101e96102a9565b346101f48282610307565b60006101ff82610364565b60045490915061020f9083610381565b60045561021c8382610394565b60408051838152602081018390526001600160a01b0385169133917f6faf93231a456e552dbc9961f58d9713ee4f2e69d15f1975b050ef0911053a7b910160405180910390a361026a61039e565b50506102766001600055565b50565b6000600654421015801561028f57506007544211155b905090565b60006005546102a260045490565b1015905090565b6002600054036103005760405162461bcd60e51b815260206004820152601f60248201527f5265656e7472616e637947756172643a207265656e7472616e742063616c6c0060448201526064015b60405180910390fd5b6002600055565b61030f610279565b6103565760405162461bcd60e51b81526020600482015260186024820152772a34b6b2b221b937bbb239b0b6329d103737ba1037b832b760411b60448201526064016102f7565b61036082826103d7565b5050565b600061037b6003548361043090919063ffffffff16565b92915050565b600061038d8284610872565b9392505050565b610360828261043c565b6002546040516001600160a01b03909116903480156108fc02916000818181858888f19350505050158015610276573d6000803e3d6000fd5b6103df610279565b6104265760405162461bcd60e51b81526020600482015260186024820152772a34b6b2b221b937bbb239b0b6329d103737ba1037b832b760411b60448201526064016102f7565b6103608282610453565b600061038d828461088a565b600154610360906001600160a01b031683836104c1565b61045d8282610518565b6005546104738261046d60045490565b90610381565b11156103605760405162461bcd60e51b815260206004820152601d60248201527f43617070656443726f776473616c653a2063617020657863656564656400000060448201526064016102f7565b604080516001600160a01b038416602482015260448082018490528251808303909101815260649091019091526020810180516001600160e01b031663a9059cbb60e01b1790526105139084906105d1565b505050565b6001600160a01b0382166105815760405162461bcd60e51b815260206004820152602a60248201527f43726f776473616c653a2062656e656669636961727920697320746865207a65604482015269726f206164647265737360b01b60648201526084016102f7565b806000036103605760405162461bcd60e51b815260206004820152601960248201527f43726f776473616c653a20776569416d6f756e7420697320300000000000000060448201526064016102f7565b6000610626826040518060400160405280602081526020017f5361666545524332303a206c6f772d6c6576656c2063616c6c206661696c6564815250856001600160a01b03166106a39092919063ffffffff16565b805190915015610513578080602001905181019061064491906108a9565b6105135760405162461bcd60e51b815260206004820152602a60248201527f5361666545524332303a204552433230206f7065726174696f6e20646964206e6044820152691bdd081cdd58d8d9595960b21b60648201526084016102f7565b60606106b284846000856106ba565b949350505050565b60608247101561071b5760405162461bcd60e51b815260206004820152602660248201527f416464726573733a20696e73756666696369656e742062616c616e636520666f6044820152651c8818d85b1b60d21b60648201526084016102f7565b600080866001600160a01b0316858760405161073791906108fb565b60006040518083038185875af1925050503d8060008114610774576040519150601f19603f3d011682016040523d82523d6000602084013e610779565b606091505b509150915061078a87838387610795565b979650505050505050565b606083156108045782516000036107fd576001600160a01b0385163b6107fd5760405162461bcd60e51b815260206004820152601d60248201527f416464726573733a2063616c6c20746f206e6f6e2d636f6e747261637400000060448201526064016102f7565b50816106b2565b6106b283838151156108195781518083602001fd5b8060405162461bcd60e51b81526004016102f79190610917565b60006020828403121561084557600080fd5b81356001600160a01b038116811461038d57600080fd5b634e487b7160e01b600052601160045260246000fd5b600082198211156108855761088561085c565b500190565b60008160001904831182151516156108a4576108a461085c565b500290565b6000602082840312156108bb57600080fd5b8151801515811461038d57600080fd5b60005b838110156108e65781810151838201526020016108ce565b838111156108f5576000848401525b50505050565b6000825161090d8184602087016108cb565b9190910192915050565b60208152600082518060208401526109368160408501602087016108cb565b601f01601f1916919091016040019291505056fea264697066735822122064395683e6f017c0ffad0535cdfff30d2ede8bcc8a7eba3e55c60f48756fb4dc64736f6c634300080e003354696d656443726f776473616c653a206f70656e696e672074696d6520697320",
  "immutableReferences": {},
  "source": "// SPDX-License-Identifier: MIT\npragma solidity ^0.8.0;\nimport \"../validation/TimedCrowdsale.sol\";\nimport \"../validation/CappedCrowdsale.sol\";\nimport \"../Crowdsale.sol\";\n\ncontract MYCS_Capped_Timed is Crowdsale, CappedCrowdsale, TimedCrowdsale {\n    constructor(\n        uint256 cap,\n        uint256 _openingTime,\n        uint256 _closingTime,\n        uint256 _Rate,\n        address payable _wallet,\n        IERC20 _token\n    )\n        CappedCrowdsale(cap)\n        TimedCrowdsale(_openingTime, _closingTime)\n        Crowdsale(_Rate, _wallet, _token)\n    {}\n\n    function _preValidatePurchase(address beneficiary, uint256 weiAmount)\n        internal\n        view\n        override(CappedCrowdsale, Crowdsale, TimedCrowdsale)\n        onlyWhileOpen\n    {\n        super._preValidatePurchase(beneficiary, weiAmount);\n    }\n\n}\n",
  "sourcePath": "/Users/yaksheshgupta/Desktop/Equistart_Smart_Contract/contracts/contracts/crowdsale/MyCrowdsaleVersion/MYCS_capped_timed.sol",
  "compiler": {
    "name": "solc",
    "version": "0.8.14+commit.80d49f37.Emscripten.clang"
  },
  "schemaVersion": "3.4.7",
  "updatedAt": "2023-03-24T14:21:41.387Z",
  "devdoc": {
    "kind": "dev",
    "methods": {
      "_rate()": {
        "returns": {
          "_0": "the number of token units a buyer gets per wei."
        }
      },
      "buyTokens(address)": {
        "details": "low level token purchase ***DO NOT OVERRIDE*** This function has a non-reentrancy guard, so it shouldn't be called by another `nonReentrant` function.",
        "params": {
          "beneficiary": "Recipient of the token purchase"
        }
      },
      "cap()": {
        "returns": {
          "_0": "the cap of the crowdsale."
        }
      },
      "capReached()": {
        "details": "Checks whether the cap has been reached.",
        "returns": {
          "_0": "Whether the cap was reached"
        }
      },
      "closingTime()": {
        "returns": {
          "_0": "the crowdsale closing time."
        }
      },
      "hasClosed()": {
        "details": "Checks whether the period in which the crowdsale is open has already elapsed.",
        "returns": {
          "_0": "Whether crowdsale period has elapsed"
        }
      },
      "isOpen()": {
        "returns": {
          "_0": "true if the crowdsale is open, false otherwise."
        }
      },
      "openingTime()": {
        "returns": {
          "_0": "the crowdsale opening time."
        }
      },
      "seeToken()": {
        "returns": {
          "_0": "the token being sold."
        }
      },
      "seeWallet()": {
        "returns": {
          "_0": "the address where funds are collected."
        }
      },
      "weiRaised()": {
        "returns": {
          "_0": "the amount of wei raised."
        }
      }
    },
    "version": 1
  },
  "userdoc": {
    "events": {
      "TimedCrowdsaleExtended(uint256,uint256)": {
        "notice": "Event for crowdsale extending"
      },
      "TokensPurchased(address,address,uint256,uint256)": {
        "notice": "Event for token purchase logging"
      }
    },
    "kind": "user",
    "methods": {},
    "version": 1
  }
}