{
  "contractName": "MYCS_Capped_Timed",
  "abi": [
    {
      "inputs": [
        {
          "internalType": "uint256",
          "name": "cap",
          "type": "uint256"
        },
        {
          "internalType": "uint256",
          "name": "_openingTime",
          "type": "uint256"
        },
        {
          "internalType": "uint256",
          "name": "_closingTime",
          "type": "uint256"
        },
        {
          "internalType": "uint256",
          "name": "_Rate",
          "type": "uint256"
        },
        {
          "internalType": "address payable",
          "name": "_wallet",
          "type": "address"
        },
        {
          "internalType": "contract IERC20",
          "name": "_token",
          "type": "address"
        }
      ],
      "stateMutability": "nonpayable",
      "type": "constructor"
    },
    {
      "anonymous": false,
      "inputs": [
        {
          "indexed": false,
          "internalType": "uint256",
          "name": "prevClosingTime",
          "type": "uint256"
        },
        {
          "indexed": false,
          "internalType": "uint256",
          "name": "newClosingTime",
          "type": "uint256"
        }
      ],
      "name": "TimedCrowdsaleExtended",
      "type": "event"
    },
    {
      "anonymous": false,
      "inputs": [
        {
          "indexed": true,
          "internalType": "address",
          "name": "purchaser",
          "type": "address"
        },
        {
          "indexed": true,
          "internalType": "address",
          "name": "beneficiary",
          "type": "address"
        },
        {
          "indexed": false,
          "internalType": "uint256",
          "name": "value",
          "type": "uint256"
        },
        {
          "indexed": false,
          "internalType": "uint256",
          "name": "amount",
          "type": "uint256"
        }
      ],
      "name": "TokensPurchased",
      "type": "event"
    },
    {
      "stateMutability": "payable",
      "type": "fallback",
      "payable": true
    },
    {
      "inputs": [],
      "name": "_rate",
      "outputs": [
        {
          "internalType": "uint256",
          "name": "",
          "type": "uint256"
        }
      ],
      "stateMutability": "view",
      "type": "function",
      "constant": true
    },
    {
      "inputs": [
        {
          "internalType": "address",
          "name": "beneficiary",
          "type": "address"
        }
      ],
      "name": "buyTokens",
      "outputs": [],
      "stateMutability": "payable",
      "type": "function",
      "payable": true
    },
    {
      "inputs": [],
      "name": "cap",
      "outputs": [
        {
          "internalType": "uint256",
          "name": "",
          "type": "uint256"
        }
      ],
      "stateMutability": "view",
      "type": "function",
      "constant": true
    },
    {
      "inputs": [],
      "name": "capReached",
      "outputs": [
        {
          "internalType": "bool",
          "name": "",
          "type": "bool"
        }
      ],
      "stateMutability": "view",
      "type": "function",
      "constant": true
    },
    {
      "inputs": [],
      "name": "closingTime",
      "outputs": [
        {
          "internalType": "uint256",
          "name": "",
          "type": "uint256"
        }
      ],
      "stateMutability": "view",
      "type": "function",
      "constant": true
    },
    {
      "inputs": [],
      "name": "hasClosed",
      "outputs": [
        {
          "internalType": "bool",
          "name": "",
          "type": "bool"
        }
      ],
      "stateMutability": "view",
      "type": "function",
      "constant": true
    },
    {
      "inputs": [],
      "name": "isOpen",
      "outputs": [
        {
          "internalType": "bool",
          "name": "",
          "type": "bool"
        }
      ],
      "stateMutability": "view",
      "type": "function",
      "constant": true
    },
    {
      "inputs": [],
      "name": "openingTime",
      "outputs": [
        {
          "internalType": "uint256",
          "name": "",
          "type": "uint256"
        }
      ],
      "stateMutability": "view",
      "type": "function",
      "constant": true
    },
    {
      "inputs": [],
      "name": "seeToken",
      "outputs": [
        {
          "internalType": "contract IERC20",
          "name": "",
          "type": "address"
        }
      ],
      "stateMutability": "view",
      "type": "function",
      "constant": true
    },
    {
      "inputs": [],
      "name": "seeWallet",
      "outputs": [
        {
          "internalType": "address payable",
          "name": "",
          "type": "address"
        }
      ],
      "stateMutability": "view",
      "type": "function",
      "constant": true
    },
    {
      "inputs": [],
      "name": "weiRaised",
      "outputs": [
        {
          "internalType": "uint256",
          "name": "",
          "type": "uint256"
        }
      ],
      "stateMutability": "view",
      "type": "function",
      "constant": true
    },
    {
      "stateMutability": "payable",
      "type": "receive",
      "payable": true
    },
    {
      "inputs": [],
      "name": "timeStamp",
      "outputs": [
        {
          "internalType": "uint256",
          "name": "",
          "type": "uint256"
        }
      ],
      "stateMutability": "view",
      "type": "function",
      "constant": true
    },
    {
      "inputs": [],
      "name": "timeDiffrenceToOpen",
      "outputs": [
        {
          "internalType": "uint256",
          "name": "",
          "type": "uint256"
        }
      ],
      "stateMutability": "view",
      "type": "function",
      "constant": true
    },
    {
      "inputs": [],
      "name": "timeDiffrenceToClose",
      "outputs": [
        {
          "internalType": "uint256",
          "name": "",
          "type": "uint256"
        }
      ],
      "stateMutability": "view",
      "type": "function",
      "constant": true
    }
  ],
  "bytecode": "0x608060405234801561001057600080fd5b50604051610d96380380610d9683398101604081905261002f916102c8565b60016000558484878585858261008c5760405162461bcd60e51b815260206004820152601460248201527f43726f776473616c653a2072617465206973203000000000000000000000000060448201526064015b60405180910390fd5b6001600160a01b0382166100f05760405162461bcd60e51b815260206004820152602560248201527f43726f776473616c653a2077616c6c657420697320746865207a65726f206164604482015264647265737360d81b6064820152608401610083565b6001600160a01b0381166101525760405162461bcd60e51b8152602060048201526024808201527f43726f776473616c653a20746f6b656e20697320746865207a65726f206164646044820152637265737360e01b6064820152608401610083565b600392909255600280546001600160a01b039283166001600160a01b03199182161790915560018054929093169116179055806101d15760405162461bcd60e51b815260206004820152601960248201527f43617070656443726f776473616c653a206361702069732030000000000000006044820152606401610083565b600555428210156102385760405162461bcd60e51b81526020600482015260336024820152600080516020610d7683398151915260448201527f6265666f72652063757272656e742074696d65000000000000000000000000006064820152608401610083565b81811161029b5760405162461bcd60e51b81526020600482015260376024820152600080516020610d7683398151915260448201527f6e6f74206265666f726520636c6f73696e672074696d650000000000000000006064820152608401610083565b60069190915560075550610327945050505050565b6001600160a01b03811681146102c557600080fd5b50565b60008060008060008060c087890312156102e157600080fd5b865195506020870151945060408701519350606087015192506080870151610308816102b0565b60a0880151909250610319816102b0565b809150509295509295509295565b610a40806103366000396000f3fe6080604052600436106100e15760003560e01c80634f9359451161007f578063b7a8807c11610059578063b7a8807c14610209578063d69a3aeb1461021e578063ec8ac4d81461023c578063f23c42e11461024a576100f1565b80634f935945146101ca57806383bebced146101df578063a581a094146101f4576100f1565b80634042b66f116100bb5780634042b66f1461015957806343935cf71461016e57806347535d7b146101a05780634b6753bc146101b5576100f1565b80630ab0df87146100ff5780631515bc2b14610121578063355274ea14610144576100f1565b366100f1576100ef3361025f565b005b6100ef3361025f565b61025f565b34801561010b57600080fd5b50425b6040519081526020015b60405180910390f35b34801561012d57600080fd5b5060075442115b6040519015158152602001610118565b34801561015057600080fd5b5060055461010e565b34801561016557600080fd5b5060045461010e565b34801561017a57600080fd5b506002546001600160a01b03165b6040516001600160a01b039091168152602001610118565b3480156101ac57600080fd5b506101346102f7565b3480156101c157600080fd5b5060075461010e565b3480156101d657600080fd5b50610134610312565b3480156101eb57600080fd5b5060035461010e565b34801561020057600080fd5b5061010e610327565b34801561021557600080fd5b5060065461010e565b34801561022a57600080fd5b506001546001600160a01b0316610188565b6100ef6100fa3660046108dc565b34801561025657600080fd5b5061010e61033d565b610267610352565b3461027282826103b0565b600061027d8261040d565b60045490915061028d908361042a565b60045561029a838261043d565b60408051838152602081018390526001600160a01b0385169133917f6faf93231a456e552dbc9961f58d9713ee4f2e69d15f1975b050ef0911053a7b910160405180910390a36102e8610447565b50506102f46001600055565b50565b6000600654421015801561030d57506007544211155b905090565b600060055461032060045490565b1015905090565b60004261033360075490565b61030d919061091b565b600061034860065490565b61030d904261091b565b6002600054036103a95760405162461bcd60e51b815260206004820152601f60248201527f5265656e7472616e637947756172643a207265656e7472616e742063616c6c0060448201526064015b60405180910390fd5b6002600055565b6103b86102f7565b6103ff5760405162461bcd60e51b81526020600482015260186024820152772a34b6b2b221b937bbb239b0b6329d103737ba1037b832b760411b60448201526064016103a0565b6104098282610480565b5050565b6000610424600354836104d990919063ffffffff16565b92915050565b60006104368284610932565b9392505050565b61040982826104e5565b6002546040516001600160a01b03909116903480156108fc02916000818181858888f193505050501580156102f4573d6000803e3d6000fd5b6104886102f7565b6104cf5760405162461bcd60e51b81526020600482015260186024820152772a34b6b2b221b937bbb239b0b6329d103737ba1037b832b760411b60448201526064016103a0565b61040982826104fc565b6000610436828461094a565b600154610409906001600160a01b0316838361056a565b61050682826105c1565b60055461051c8261051660045490565b9061042a565b11156104095760405162461bcd60e51b815260206004820152601d60248201527f43617070656443726f776473616c653a2063617020657863656564656400000060448201526064016103a0565b604080516001600160a01b038416602482015260448082018490528251808303909101815260649091019091526020810180516001600160e01b031663a9059cbb60e01b1790526105bc90849061067a565b505050565b6001600160a01b03821661062a5760405162461bcd60e51b815260206004820152602a60248201527f43726f776473616c653a2062656e656669636961727920697320746865207a65604482015269726f206164647265737360b01b60648201526084016103a0565b806000036104095760405162461bcd60e51b815260206004820152601960248201527f43726f776473616c653a20776569416d6f756e7420697320300000000000000060448201526064016103a0565b60006106cf826040518060400160405280602081526020017f5361666545524332303a206c6f772d6c6576656c2063616c6c206661696c6564815250856001600160a01b031661074c9092919063ffffffff16565b8051909150156105bc57808060200190518101906106ed9190610969565b6105bc5760405162461bcd60e51b815260206004820152602a60248201527f5361666545524332303a204552433230206f7065726174696f6e20646964206e6044820152691bdd081cdd58d8d9595960b21b60648201526084016103a0565b606061075b8484600085610763565b949350505050565b6060824710156107c45760405162461bcd60e51b815260206004820152602660248201527f416464726573733a20696e73756666696369656e742062616c616e636520666f6044820152651c8818d85b1b60d21b60648201526084016103a0565b600080866001600160a01b031685876040516107e091906109bb565b60006040518083038185875af1925050503d806000811461081d576040519150601f19603f3d011682016040523d82523d6000602084013e610822565b606091505b50915091506108338783838761083e565b979650505050505050565b606083156108ad5782516000036108a6576001600160a01b0385163b6108a65760405162461bcd60e51b815260206004820152601d60248201527f416464726573733a2063616c6c20746f206e6f6e2d636f6e747261637400000060448201526064016103a0565b508161075b565b61075b83838151156108c25781518083602001fd5b8060405162461bcd60e51b81526004016103a091906109d7565b6000602082840312156108ee57600080fd5b81356001600160a01b038116811461043657600080fd5b634e487b7160e01b600052601160045260246000fd5b60008282101561092d5761092d610905565b500390565b6000821982111561094557610945610905565b500190565b600081600019048311821515161561096457610964610905565b500290565b60006020828403121561097b57600080fd5b8151801515811461043657600080fd5b60005b838110156109a657818101518382015260200161098e565b838111156109b5576000848401525b50505050565b600082516109cd81846020870161098b565b9190910192915050565b60208152600082518060208401526109f681604085016020870161098b565b601f01601f1916919091016040019291505056fea264697066735822122064f9f4b294a975a6bf5a5df5e9442bd7c4dc52b616d302f22f8b2bbbbc233b2a64736f6c634300080d003354696d656443726f776473616c653a206f70656e696e672074696d6520697320",
  "immutableReferences": {},
  "source": "// SPDX-License-Identifier: MIT\npragma solidity ^0.8.0;\nimport \"../validation/TimedCrowdsale.sol\";\nimport \"../validation/CappedCrowdsale.sol\";\nimport \"../Crowdsale.sol\";\n\ncontract MYCS_Capped_Timed is Crowdsale, CappedCrowdsale, TimedCrowdsale {\n    constructor(\n        uint256 cap,\n        uint256 _openingTime,\n        uint256 _closingTime,\n        uint256 _Rate,\n        address payable _wallet,\n        IERC20 _token\n    )\n        CappedCrowdsale(cap)\n        TimedCrowdsale(_openingTime, _closingTime)\n        Crowdsale(_Rate, _wallet, _token)\n    {}\n\n    // LOWER FUNCTION JUST FOR CHECKING ---- NO IMPACT ON MAIN CODE\n    function timeStamp() public view returns (uint256) {\n        return block.timestamp;\n    }\n\n    function timeDiffrenceToOpen() public view returns (uint256) {\n        return block.timestamp - openingTime();\n    }\n\n    function timeDiffrenceToClose() public view returns (uint256) {\n        return closingTime() - block.timestamp;\n    }\n\n    function _preValidatePurchase(address beneficiary, uint256 weiAmount)\n        internal\n        view\n        override(CappedCrowdsale, Crowdsale, TimedCrowdsale)\n        onlyWhileOpen\n    {\n        super._preValidatePurchase(beneficiary, weiAmount);\n    }\n}\n",
  "sourcePath": "/Users/yaksheshgupta/Desktop/Equistart_Smart_Contract/contracts/contracts/crowdsale/MyCrowdsaleVersion/MYCS_capped_timed.sol",
  "compiler": {
    "name": "solc",
    "version": "0.8.13+commit.abaa5c0e.Emscripten.clang"
  },
  "schemaVersion": "3.4.7",
  "updatedAt": "2023-02-09T14:19:58.221Z",
  "networkType": "ethereum",
  "devdoc": {
    "kind": "dev",
    "methods": {
      "_rate()": {
        "returns": {
          "_0": "the number of token units a buyer gets per wei."
        }
      },
      "buyTokens(address)": {
        "details": "low level token purchase ***DO NOT OVERRIDE*** This function has a non-reentrancy guard, so it shouldn't be called by another `nonReentrant` function.",
        "params": {
          "beneficiary": "Recipient of the token purchase"
        }
      },
      "cap()": {
        "returns": {
          "_0": "the cap of the crowdsale."
        }
      },
      "capReached()": {
        "details": "Checks whether the cap has been reached.",
        "returns": {
          "_0": "Whether the cap was reached"
        }
      },
      "closingTime()": {
        "returns": {
          "_0": "the crowdsale closing time."
        }
      },
      "hasClosed()": {
        "details": "Checks whether the period in which the crowdsale is open has already elapsed.",
        "returns": {
          "_0": "Whether crowdsale period has elapsed"
        }
      },
      "isOpen()": {
        "returns": {
          "_0": "true if the crowdsale is open, false otherwise."
        }
      },
      "openingTime()": {
        "returns": {
          "_0": "the crowdsale opening time."
        }
      },
      "seeToken()": {
        "returns": {
          "_0": "the token being sold."
        }
      },
      "seeWallet()": {
        "returns": {
          "_0": "the address where funds are collected."
        }
      },
      "weiRaised()": {
        "returns": {
          "_0": "the amount of wei raised."
        }
      }
    },
    "version": 1
  },
  "userdoc": {
    "events": {
      "TimedCrowdsaleExtended(uint256,uint256)": {
        "notice": "Event for crowdsale extending"
      },
      "TokensPurchased(address,address,uint256,uint256)": {
        "notice": "Event for token purchase logging"
      }
    },
    "kind": "user",
    "methods": {},
    "version": 1
  }
}