{
  "contractName": "MYCS_POSTDEV_WHITE",
  "abi": [
    {
      "inputs": [
        {
          "internalType": "uint256",
          "name": "goal",
          "type": "uint256"
        },
        {
          "internalType": "uint256",
          "name": "openingTime_",
          "type": "uint256"
        },
        {
          "internalType": "uint256",
          "name": "closingTime_",
          "type": "uint256"
        },
        {
          "internalType": "uint256",
          "name": "_Rate",
          "type": "uint256"
        },
        {
          "internalType": "address payable",
          "name": "_wallet",
          "type": "address"
        },
        {
          "internalType": "contract IERC20",
          "name": "_token",
          "type": "address"
        }
      ],
      "stateMutability": "nonpayable",
      "type": "constructor"
    },
    {
      "anonymous": false,
      "inputs": [],
      "name": "CrowdsaleFinalized",
      "type": "event"
    },
    {
      "anonymous": false,
      "inputs": [
        {
          "indexed": false,
          "internalType": "uint256",
          "name": "prevClosingTime",
          "type": "uint256"
        },
        {
          "indexed": false,
          "internalType": "uint256",
          "name": "newClosingTime",
          "type": "uint256"
        }
      ],
      "name": "TimedCrowdsaleExtended",
      "type": "event"
    },
    {
      "anonymous": false,
      "inputs": [
        {
          "indexed": true,
          "internalType": "address",
          "name": "purchaser",
          "type": "address"
        },
        {
          "indexed": true,
          "internalType": "address",
          "name": "beneficiary",
          "type": "address"
        },
        {
          "indexed": false,
          "internalType": "uint256",
          "name": "value",
          "type": "uint256"
        },
        {
          "indexed": false,
          "internalType": "uint256",
          "name": "amount",
          "type": "uint256"
        }
      ],
      "name": "TokensPurchased",
      "type": "event"
    },
    {
      "anonymous": false,
      "inputs": [
        {
          "indexed": true,
          "internalType": "address",
          "name": "account",
          "type": "address"
        }
      ],
      "name": "WhitelistAdminAdded",
      "type": "event"
    },
    {
      "anonymous": false,
      "inputs": [
        {
          "indexed": true,
          "internalType": "address",
          "name": "account",
          "type": "address"
        }
      ],
      "name": "WhitelistAdminRemoved",
      "type": "event"
    },
    {
      "anonymous": false,
      "inputs": [
        {
          "indexed": true,
          "internalType": "address",
          "name": "account",
          "type": "address"
        }
      ],
      "name": "WhitelistedAdded",
      "type": "event"
    },
    {
      "anonymous": false,
      "inputs": [
        {
          "indexed": true,
          "internalType": "address",
          "name": "account",
          "type": "address"
        }
      ],
      "name": "WhitelistedRemoved",
      "type": "event"
    },
    {
      "stateMutability": "payable",
      "type": "fallback"
    },
    {
      "inputs": [],
      "name": "_rate",
      "outputs": [
        {
          "internalType": "uint256",
          "name": "",
          "type": "uint256"
        }
      ],
      "stateMutability": "view",
      "type": "function"
    },
    {
      "inputs": [
        {
          "internalType": "address",
          "name": "account",
          "type": "address"
        }
      ],
      "name": "addWhitelistAdmin",
      "outputs": [],
      "stateMutability": "nonpayable",
      "type": "function"
    },
    {
      "inputs": [
        {
          "internalType": "address",
          "name": "account",
          "type": "address"
        }
      ],
      "name": "addWhitelisted",
      "outputs": [],
      "stateMutability": "nonpayable",
      "type": "function"
    },
    {
      "inputs": [
        {
          "internalType": "address",
          "name": "account",
          "type": "address"
        }
      ],
      "name": "balanceOf",
      "outputs": [
        {
          "internalType": "uint256",
          "name": "",
          "type": "uint256"
        }
      ],
      "stateMutability": "view",
      "type": "function"
    },
    {
      "inputs": [
        {
          "internalType": "address",
          "name": "beneficiary",
          "type": "address"
        }
      ],
      "name": "buyTokens",
      "outputs": [],
      "stateMutability": "payable",
      "type": "function"
    },
    {
      "inputs": [
        {
          "internalType": "address payable",
          "name": "refundee",
          "type": "address"
        }
      ],
      "name": "claimRefund",
      "outputs": [],
      "stateMutability": "nonpayable",
      "type": "function"
    },
    {
      "inputs": [],
      "name": "closingTime",
      "outputs": [
        {
          "internalType": "uint256",
          "name": "",
          "type": "uint256"
        }
      ],
      "stateMutability": "view",
      "type": "function"
    },
    {
      "inputs": [],
      "name": "finalize",
      "outputs": [],
      "stateMutability": "nonpayable",
      "type": "function"
    },
    {
      "inputs": [],
      "name": "finalized",
      "outputs": [
        {
          "internalType": "bool",
          "name": "",
          "type": "bool"
        }
      ],
      "stateMutability": "view",
      "type": "function"
    },
    {
      "inputs": [],
      "name": "goal",
      "outputs": [
        {
          "internalType": "uint256",
          "name": "",
          "type": "uint256"
        }
      ],
      "stateMutability": "view",
      "type": "function"
    },
    {
      "inputs": [],
      "name": "goalReached",
      "outputs": [
        {
          "internalType": "bool",
          "name": "",
          "type": "bool"
        }
      ],
      "stateMutability": "view",
      "type": "function"
    },
    {
      "inputs": [],
      "name": "hasClosed",
      "outputs": [
        {
          "internalType": "bool",
          "name": "",
          "type": "bool"
        }
      ],
      "stateMutability": "view",
      "type": "function"
    },
    {
      "inputs": [],
      "name": "isOpen",
      "outputs": [
        {
          "internalType": "bool",
          "name": "",
          "type": "bool"
        }
      ],
      "stateMutability": "view",
      "type": "function"
    },
    {
      "inputs": [
        {
          "internalType": "address",
          "name": "account",
          "type": "address"
        }
      ],
      "name": "isWhitelistAdmin",
      "outputs": [
        {
          "internalType": "bool",
          "name": "",
          "type": "bool"
        }
      ],
      "stateMutability": "view",
      "type": "function"
    },
    {
      "inputs": [
        {
          "internalType": "address",
          "name": "account",
          "type": "address"
        }
      ],
      "name": "isWhitelisted",
      "outputs": [
        {
          "internalType": "bool",
          "name": "",
          "type": "bool"
        }
      ],
      "stateMutability": "view",
      "type": "function"
    },
    {
      "inputs": [],
      "name": "openingTime",
      "outputs": [
        {
          "internalType": "uint256",
          "name": "",
          "type": "uint256"
        }
      ],
      "stateMutability": "view",
      "type": "function"
    },
    {
      "inputs": [
        {
          "internalType": "address",
          "name": "account",
          "type": "address"
        }
      ],
      "name": "removeWhitelisted",
      "outputs": [],
      "stateMutability": "nonpayable",
      "type": "function"
    },
    {
      "inputs": [],
      "name": "renounceWhitelistAdmin",
      "outputs": [],
      "stateMutability": "nonpayable",
      "type": "function"
    },
    {
      "inputs": [],
      "name": "renounceWhitelisted",
      "outputs": [],
      "stateMutability": "nonpayable",
      "type": "function"
    },
    {
      "inputs": [],
      "name": "seeToken",
      "outputs": [
        {
          "internalType": "contract IERC20",
          "name": "",
          "type": "address"
        }
      ],
      "stateMutability": "view",
      "type": "function"
    },
    {
      "inputs": [],
      "name": "seeWallet",
      "outputs": [
        {
          "internalType": "address payable",
          "name": "",
          "type": "address"
        }
      ],
      "stateMutability": "view",
      "type": "function"
    },
    {
      "inputs": [],
      "name": "weiRaised",
      "outputs": [
        {
          "internalType": "uint256",
          "name": "",
          "type": "uint256"
        }
      ],
      "stateMutability": "view",
      "type": "function"
    },
    {
      "stateMutability": "payable",
      "type": "receive"
    },
    {
      "inputs": [
        {
          "internalType": "address",
          "name": "beneficiary",
          "type": "address"
        }
      ],
      "name": "withdrawTokens",
      "outputs": [],
      "stateMutability": "nonpayable",
      "type": "function"
    }
  ],
  "bytecode": "0x60806040523480156200001157600080fd5b5060405162002b6238038062002b62833981016040819052620000349162000511565b858585858585620000453362000385565b6001600255826200009d5760405162461bcd60e51b815260206004820152601460248201527f43726f776473616c653a2072617465206973203000000000000000000000000060448201526064015b60405180910390fd5b6001600160a01b038216620001035760405162461bcd60e51b815260206004820152602560248201527f43726f776473616c653a2077616c6c657420697320746865207a65726f206164604482015264647265737360d81b606482015260840162000094565b6001600160a01b038116620001675760405162461bcd60e51b8152602060048201526024808201527f43726f776473616c653a20746f6b656e20697320746865207a65726f206164646044820152637265737360e01b606482015260840162000094565b600592909255600480546001600160a01b039283166001600160a01b0319918216179091556003805492909316911617905542821015620002005760405162461bcd60e51b8152602060048201526033602482015260008051602062002b4283398151915260448201527f6265666f72652063757272656e742074696d6500000000000000000000000000606482015260840162000094565b818111620002665760405162461bcd60e51b8152602060048201526037602482015260008051602062002b4283398151915260448201527f6e6f74206265666f726520636c6f73696e672074696d65000000000000000000606482015260840162000094565b6007919091556008556040516200027d90620004dc565b604051809103906000f0801580156200029a573d6000803e3d6000fd5b50600a80546001600160a81b0319166001600160a01b0392909216919091179055806200030a5760405162461bcd60e51b815260206004820152601e60248201527f526566756e6461626c6543726f776473616c653a20676f616c20697320300000604482015260640162000094565b6004546040516001600160a01b03909116906200032790620004ea565b6001600160a01b039091168152602001604051809103906000f08015801562000354573d6000803e3d6000fd5b50600c80546001600160a01b0319166001600160a01b0392909216919091179055600b555062000575945050505050565b620003a0816000620003d760201b620007b61790919060201c565b6040516001600160a01b038216907f22380c05984257a1cb900161c713dd71d39e74820f1aea43bd3f1bdd2096129990600090a250565b620003e3828262000457565b15620004325760405162461bcd60e51b815260206004820152601f60248201527f526f6c65733a206163636f756e7420616c72656164792068617320726f6c6500604482015260640162000094565b6001600160a01b0316600090815260209190915260409020805460ff19166001179055565b60006001600160a01b038216620004bc5760405162461bcd60e51b815260206004820152602260248201527f526f6c65733a206163636f756e7420697320746865207a65726f206164647265604482015261737360f01b606482015260840162000094565b506001600160a01b03166000908152602091909152604090205460ff1690565b6103bc8062001ae383390190565b610ca38062001e9f83390190565b6001600160a01b03811681146200050e57600080fd5b50565b60008060008060008060c087890312156200052b57600080fd5b8651955060208701519450604087015193506060870151925060808701516200055481620004f8565b60a08801519092506200056781620004f8565b809150509295509295509295565b61155e80620005856000396000f3fe6080604052600436106101445760003560e01c80634c5a628c116100b6578063b7a8807c1161006f578063b7a8807c14610363578063bb5f747b14610378578063bffa55d514610398578063d69a3aeb146103b8578063d6cd9473146103d6578063ec8ac4d8146103eb57610159565b80634c5a628c146102af57806370a08231146102c45780637362d9c8146102fa5780637d3d65221461031a57806383bebced1461032f578063b3f05b971461034457610159565b80634042b66f116101085780634042b66f1461020957806343935cf71461021e57806347535d7b1461025057806349df728c146102655780634b6753bc146102855780634bb278f31461029a57610159565b806310154bad146101625780631515bc2b14610182578063291d9549146101aa5780633af32abf146101ca57806340193883146101ea57610159565b3661015957610157336103f9565b6103f9565b005b610157336103f9565b34801561016e57600080fd5b5061015761017d3660046113c3565b610491565b34801561018e57600080fd5b5060085442115b60405190151581526020015b60405180910390f35b3480156101b657600080fd5b506101576101c53660046113c3565b6104c8565b3480156101d657600080fd5b506101956101e53660046113c3565b6104f6565b3480156101f657600080fd5b50600b545b6040519081526020016101a1565b34801561021557600080fd5b506006546101fb565b34801561022a57600080fd5b506004546001600160a01b03165b6040516001600160a01b0390911681526020016101a1565b34801561025c57600080fd5b50610195610509565b34801561027157600080fd5b506101576102803660046113c3565b610524565b34801561029157600080fd5b506008546101fb565b3480156102a657600080fd5b5061015761052d565b3480156102bb57600080fd5b5061015761062e565b3480156102d057600080fd5b506101fb6102df3660046113c3565b6001600160a01b031660009081526009602052604090205490565b34801561030657600080fd5b506101576103153660046113c3565b610639565b34801561032657600080fd5b50610195610667565b34801561033b57600080fd5b506005546101fb565b34801561035057600080fd5b50600a54600160a01b900460ff16610195565b34801561036f57600080fd5b506007546101fb565b34801561038457600080fd5b506101956103933660046113c3565b61067c565b3480156103a457600080fd5b506101576103b33660046113c3565b610688565b3480156103c457600080fd5b506003546001600160a01b0316610238565b3480156103e257600080fd5b506101576107ad565b6101576101523660046113c3565b610401610832565b3461040c8282610889565b600061041782610897565b60065490915061042790836108ae565b60065561043483826108c1565b60408051838152602081018390526001600160a01b0385169133917f6faf93231a456e552dbc9961f58d9713ee4f2e69d15f1975b050ef0911053a7b910160405180910390a36104826108cb565b505061048e6001600255565b50565b61049a3361067c565b6104bf5760405162461bcd60e51b81526004016104b6906113e0565b60405180910390fd5b61048e816108d3565b6104d13361067c565b6104ed5760405162461bcd60e51b81526004016104b6906113e0565b61048e81610915565b6000610503600183610957565b92915050565b6000600754421015801561051f57506008544211155b905090565b61048e816109da565b600a54600160a01b900460ff16156105975760405162461bcd60e51b815260206004820152602760248201527f46696e616c697a61626c6543726f776473616c653a20616c72656164792066696044820152661b985b1a5e995960ca1b60648201526084016104b6565b60085442116105e85760405162461bcd60e51b815260206004820181905260248201527f46696e616c697a61626c6543726f776473616c653a206e6f7420636c6f73656460448201526064016104b6565b600a805460ff60a01b1916600160a01b179055610603610ac1565b6040517f9270cc390c096600a1c17c44345a1ba689fafd99d97487b10cfccf86cf73183690600090a1565b61063733610ac9565b565b6106423361067c565b61065e5760405162461bcd60e51b81526004016104b6906113e0565b61048e81610b0b565b6000600b5461067560065490565b1015905090565b60006105038183610957565b600a54600160a01b900460ff166106ec5760405162461bcd60e51b815260206004820152602260248201527f526566756e6461626c6543726f776473616c653a206e6f742066696e616c697a604482015261195960f21b60648201526084016104b6565b6106f4610667565b1561074b5760405162461bcd60e51b815260206004820152602160248201527f526566756e6461626c6543726f776473616c653a20676f616c207265616368656044820152601960fa1b60648201526084016104b6565b600c546040516351cff8d960e01b81526001600160a01b038381166004830152909116906351cff8d990602401600060405180830381600087803b15801561079257600080fd5b505af11580156107a6573d6000803e3d6000fd5b5050505050565b61063733610915565b6107c08282610957565b1561080d5760405162461bcd60e51b815260206004820152601f60248201527f526f6c65733a206163636f756e7420616c72656164792068617320726f6c650060448201526064016104b6565b6001600160a01b0316600090815260209190915260409020805460ff19166001179055565b60028054036108835760405162461bcd60e51b815260206004820152601f60248201527f5265656e7472616e637947756172643a207265656e7472616e742063616c6c0060448201526064016104b6565b60028055565b6108938282610b4d565b5050565b600061050360055483610bab90919063ffffffff16565b60006108ba8284611454565b9392505050565b6108938282610bb7565b610637610bc1565b6108de6001826107b6565b6040516001600160a01b038216907fee1504a83b6d4a361f4c1dc78ab59bfa30d6a3b6612c403e86bb01ef2984295f90600090a250565b610920600182610bc9565b6040516001600160a01b038216907f270d9b30cf5b0793bbfd54c9d5b94aeb49462b8148399000265144a8722da6b690600090a250565b60006001600160a01b0382166109ba5760405162461bcd60e51b815260206004820152602260248201527f526f6c65733a206163636f756e7420697320746865207a65726f206164647265604482015261737360f01b60648201526084016104b6565b506001600160a01b03166000908152602091909152604090205460ff1690565b600a54600160a01b900460ff16610a4a5760405162461bcd60e51b815260206004820152602e60248201527f526566756e6461626c65506f737444656c697665727943726f776473616c653a60448201526d081b9bdd08199a5b985b1a5e995960921b60648201526084016104b6565b610a52610667565b610ab85760405162461bcd60e51b815260206004820152603160248201527f526566756e6461626c65506f737444656c697665727943726f776473616c653a6044820152700819dbd85b081b9bdd081c995858da1959607a1b60648201526084016104b6565b61048e81610c4b565b610637610dbb565b610ad4600082610bc9565b6040516001600160a01b038216907f0a8eb35e5ca14b3d6f28e4abf2f128dbab231a58b56e89beb5d636115001e16590600090a250565b610b166000826107b6565b6040516001600160a01b038216907f22380c05984257a1cb900161c713dd71d39e74820f1aea43bd3f1bdd2096129990600090a250565b610b55610509565b610ba15760405162461bcd60e51b815260206004820152601860248201527f54696d656443726f776473616c653a206e6f74206f70656e000000000000000060448201526064016104b6565b6108938282610eea565b60006108ba828461146c565b6108938282610f79565b610637610fc7565b610bd38282610957565b610c295760405162461bcd60e51b815260206004820152602160248201527f526f6c65733a206163636f756e7420646f6573206e6f74206861766520726f6c6044820152606560f81b60648201526084016104b6565b6001600160a01b0316600090815260209190915260409020805460ff19169055565b6008544211610ca65760405162461bcd60e51b815260206004820152602160248201527f506f737444656c697665727943726f776473616c653a206e6f7420636c6f73656044820152601960fa1b60648201526084016104b6565b6001600160a01b03811660009081526009602052604090205480610d325760405162461bcd60e51b815260206004820152603860248201527f506f737444656c697665727943726f776473616c653a2062656e65666963696160448201527f7279206973206e6f742064756520616e7920746f6b656e73000000000000000060648201526084016104b6565b6001600160a01b0382811660008181526009602052604080822091909155600a5460035491516317d5759960e31b8152918416600483015260248201929092526044810184905291169063beabacc890606401600060405180830381600087803b158015610d9f57600080fd5b505af1158015610db3573d6000803e3d6000fd5b505050505050565b610dc3610667565b15610e9a57600c60009054906101000a90046001600160a01b03166001600160a01b03166343d726d66040518163ffffffff1660e01b8152600401600060405180830381600087803b158015610e1857600080fd5b505af1158015610e2c573d6000803e3d6000fd5b50505050600c60009054906101000a90046001600160a01b03166001600160a01b0316639af6549a6040518163ffffffff1660e01b8152600401600060405180830381600087803b158015610e8057600080fd5b505af1158015610e94573d6000803e3d6000fd5b50505050565b600c60009054906101000a90046001600160a01b03166001600160a01b0316638c52dc416040518163ffffffff1660e01b8152600401600060405180830381600087803b158015610e8057600080fd5b610ef3826104f6565b610f6f5760405162461bcd60e51b815260206004820152604160248201527f57686974656c69737443726f776473616c653a2062656e65666963696172792060448201527f646f65736e27742068617665207468652057686974656c697374656420726f6c6064820152606560f81b608482015260a4016104b6565b610893828261101a565b6001600160a01b038216600090815260096020526040902054610f9c90826108ae565b6001600160a01b03808416600090815260096020526040902091909155600a546108939116826110d3565b600c546001600160a01b031663f340fa0134336040516001600160e01b031960e085901b1681526001600160a01b0390911660048201526024016000604051808303818588803b15801561079257600080fd5b6001600160a01b0382166110835760405162461bcd60e51b815260206004820152602a60248201527f43726f776473616c653a2062656e656669636961727920697320746865207a65604482015269726f206164647265737360b01b60648201526084016104b6565b806000036108935760405162461bcd60e51b815260206004820152601960248201527f43726f776473616c653a20776569416d6f756e7420697320300000000000000060448201526064016104b6565b600354610893906001600160a01b031683836040516001600160a01b03831660248201526044810182905261114790849063a9059cbb60e01b9060640160408051601f198184030181529190526020810180516001600160e01b03166001600160e01b03199093169290921790915261114c565b505050565b60006111a1826040518060400160405280602081526020017f5361666545524332303a206c6f772d6c6576656c2063616c6c206661696c6564815250856001600160a01b031661121e9092919063ffffffff16565b80519091501561114757808060200190518101906111bf919061148b565b6111475760405162461bcd60e51b815260206004820152602a60248201527f5361666545524332303a204552433230206f7065726174696f6e20646964206e6044820152691bdd081cdd58d8d9595960b21b60648201526084016104b6565b606061122d8484600085611235565b949350505050565b6060824710156112965760405162461bcd60e51b815260206004820152602660248201527f416464726573733a20696e73756666696369656e742062616c616e636520666f6044820152651c8818d85b1b60d21b60648201526084016104b6565b600080866001600160a01b031685876040516112b291906114d9565b60006040518083038185875af1925050503d80600081146112ef576040519150601f19603f3d011682016040523d82523d6000602084013e6112f4565b606091505b509150915061130587838387611310565b979650505050505050565b6060831561137f578251600003611378576001600160a01b0385163b6113785760405162461bcd60e51b815260206004820152601d60248201527f416464726573733a2063616c6c20746f206e6f6e2d636f6e747261637400000060448201526064016104b6565b508161122d565b61122d83838151156113945781518083602001fd5b8060405162461bcd60e51b81526004016104b691906114f5565b6001600160a01b038116811461048e57600080fd5b6000602082840312156113d557600080fd5b81356108ba816113ae565b602080825260409082018190527f57686974656c69737441646d696e526f6c653a2063616c6c657220646f657320908201527f6e6f742068617665207468652057686974656c69737441646d696e20726f6c65606082015260800190565b634e487b7160e01b600052601160045260246000fd5b600082198211156114675761146761143e565b500190565b60008160001904831182151516156114865761148661143e565b500290565b60006020828403121561149d57600080fd5b815180151581146108ba57600080fd5b60005b838110156114c85781810151838201526020016114b0565b83811115610e945750506000910152565b600082516114eb8184602087016114ad565b9190910192915050565b60208152600082518060208401526115148160408501602087016114ad565b601f01601f1916919091016040019291505056fea2646970667358221220fdb33b443e90392c9eab8fa09c451fb69a9d5b16e0c3e327bf171eb8b85abec764736f6c634300080e0033608060405234801561001057600080fd5b50600080546001600160a01b031916339081179091556040805182815290517f4101e71e974f68df5e9730cc223280b41654676bbb052cdcc735c3337e64d2d99181900360200190a150610353806100696000396000f3fe608060405234801561001057600080fd5b50600436106100415760003560e01c80632348238c14610046578063beabacc81461005b578063c6dbdf611461006e575b600080fd5b61005961005436600461024a565b61008d565b005b61005961006936600461026e565b610186565b600054604080516001600160a01b039092168252519081900360200190f35b6000546001600160a01b0316336001600160a01b0316146100c95760405162461bcd60e51b81526004016100c0906102af565b60405180910390fd5b6001600160a01b0381166101325760405162461bcd60e51b815260206004820152602a60248201527f5365636f6e646172793a206e6577207072696d61727920697320746865207a65604482015269726f206164647265737360b01b60648201526084016100c0565b600080546001600160a01b0319166001600160a01b0383169081179091556040519081527f4101e71e974f68df5e9730cc223280b41654676bbb052cdcc735c3337e64d2d99060200160405180910390a150565b6000546001600160a01b0316336001600160a01b0316146101b95760405162461bcd60e51b81526004016100c0906102af565b60405163a9059cbb60e01b81526001600160a01b0383811660048301526024820183905284169063a9059cbb906044016020604051808303816000875af1158015610208573d6000803e3d6000fd5b505050506040513d601f19601f8201168201806040525081019061022c91906102fb565b50505050565b6001600160a01b038116811461024757600080fd5b50565b60006020828403121561025c57600080fd5b813561026781610232565b9392505050565b60008060006060848603121561028357600080fd5b833561028e81610232565b9250602084013561029e81610232565b929592945050506040919091013590565b6020808252602c908201527f5365636f6e646172793a2063616c6c6572206973206e6f74207468652070726960408201526b1b585c9e481858d8dbdd5b9d60a21b606082015260800190565b60006020828403121561030d57600080fd5b8151801515811461026757600080fdfea26469706673582212204ad1fa34abbe3c793d103154f717079de52366a2a90fc2adbcf61181c274898564736f6c634300080e0033608060405234801561001057600080fd5b50604051610ca3380380610ca383398101604081905261002f91610118565b600080546001600160a01b031916339081179091556040805182815290517f4101e71e974f68df5e9730cc223280b41654676bbb052cdcc735c3337e64d2d99181900360200190a1506001600160a01b0381166100e85760405162461bcd60e51b815260206004820152602d60248201527f526566756e64457363726f773a2062656e65666963696172792069732074686560448201526c207a65726f206164647265737360981b606482015260840160405180910390fd5b600280546001600160a81b0319166101006001600160a01b03939093169290920260ff1916919091179055610148565b60006020828403121561012a57600080fd5b81516001600160a01b038116811461014157600080fd5b9392505050565b610b4c806101576000396000f3fe6080604052600436106100a75760003560e01c80638c52dc41116100645780638c52dc411461018f5780639af6549a146101a4578063c19d93fb146101b9578063c6dbdf61146101d9578063e3a9db1a146101f7578063f340fa011461023b57600080fd5b80632348238c146100ac57806338af3eed146100ce57806343d726d61461010a57806351cff8d91461011f5780636809691a1461013f578063685ca1941461015f575b600080fd5b3480156100b857600080fd5b506100cc6100c7366004610a49565b61024e565b005b3480156100da57600080fd5b5060025461010090046001600160a01b03165b6040516001600160a01b0390911681526020015b60405180910390f35b34801561011657600080fd5b506100cc610347565b34801561012b57600080fd5b506100cc61013a366004610a49565b610429565b34801561014b57600080fd5b506100cc61015a366004610a49565b6104a6565b34801561016b57600080fd5b5061017f61017a366004610a49565b610548565b6040519015158152602001610101565b34801561019b57600080fd5b506100cc61056a565b3480156101b057600080fd5b506100cc610656565b3480156101c557600080fd5b5060025460ff166040516101019190610a7c565b3480156101e557600080fd5b506000546001600160a01b03166100ed565b34801561020357600080fd5b5061022d610212366004610a49565b6001600160a01b031660009081526001602052604090205490565b604051908152602001610101565b6100cc610249366004610a49565b610720565b6000546001600160a01b0316336001600160a01b03161461028a5760405162461bcd60e51b815260040161028190610aa4565b60405180910390fd5b6001600160a01b0381166102f35760405162461bcd60e51b815260206004820152602a60248201527f5365636f6e646172793a206e6577207072696d61727920697320746865207a65604482015269726f206164647265737360b01b6064820152608401610281565b600080546001600160a01b0319166001600160a01b0383169081179091556040519081527f4101e71e974f68df5e9730cc223280b41654676bbb052cdcc735c3337e64d2d99060200160405180910390a150565b6000546001600160a01b0316336001600160a01b03161461037a5760405162461bcd60e51b815260040161028190610aa4565b60006002805460ff169081111561039357610393610a66565b146103f25760405162461bcd60e51b815260206004820152602960248201527f526566756e64457363726f773a2063616e206f6e6c7920636c6f7365207768696044820152686c652061637469766560b81b6064820152608401610281565b6002805460ff1916811790556040517f088672c3a6e342f7cd94a65ba63b79df24a8973927b4d05d803c44bbf787d12f90600090a1565b61043281610548565b61049a5760405162461bcd60e51b815260206004820152603360248201527f436f6e646974696f6e616c457363726f773a207061796565206973206e6f7420604482015272616c6c6f77656420746f20776974686472617760681b6064820152608401610281565b6104a3816107a3565b50565b6000546001600160a01b0316336001600160a01b0316146104d95760405162461bcd60e51b815260040161028190610aa4565b6001600160a01b0381166000818152600160205260408120805491905590610501908261085c565b816001600160a01b03167f7084f5476618d8e60b11ef0d7d3f06914655adb8793e28ff7f018d4c76d505d58260405161053c91815260200190565b60405180910390a25050565b600060016002805460ff169081111561056357610563610a66565b1492915050565b6000546001600160a01b0316336001600160a01b03161461059d5760405162461bcd60e51b815260040161028190610aa4565b60006002805460ff16908111156105b6576105b6610a66565b1461061e5760405162461bcd60e51b815260206004820152603260248201527f526566756e64457363726f773a2063616e206f6e6c7920656e61626c6520726560448201527166756e6473207768696c652061637469766560701b6064820152608401610281565b6002805460ff191660011790556040517f599d8e5a83cffb867d051598c4d70e805d59802d8081c1c7d6dffc5b6aca2b8990600090a1565b6002805460ff168181111561066d5761066d610a66565b146106e05760405162461bcd60e51b815260206004820152603860248201527f526566756e64457363726f773a2062656e65666963696172792063616e206f6e60448201527f6c79207769746864726177207768696c6520636c6f73656400000000000000006064820152608401610281565b6002546040516001600160a01b0361010090920491909116904780156108fc02916000818181858888f193505050501580156104a3573d6000803e3d6000fd5b60006002805460ff169081111561073957610739610a66565b1461079a5760405162461bcd60e51b815260206004820152602b60248201527f526566756e64457363726f773a2063616e206f6e6c79206465706f736974207760448201526a68696c652061637469766560a81b6064820152608401610281565b6104a38161097a565b6000546001600160a01b0316336001600160a01b0316146107d65760405162461bcd60e51b815260040161028190610aa4565b6001600160a01b038116600081815260016020526040808220805490839055905190929183156108fc02918491818181858888f19350505050158015610820573d6000803e3d6000fd5b50816001600160a01b03167f7084f5476618d8e60b11ef0d7d3f06914655adb8793e28ff7f018d4c76d505d58260405161053c91815260200190565b804710156108ac5760405162461bcd60e51b815260206004820152601d60248201527f416464726573733a20696e73756666696369656e742062616c616e63650000006044820152606401610281565b6000826001600160a01b03168260405160006040518083038185875af1925050503d80600081146108f9576040519150601f19603f3d011682016040523d82523d6000602084013e6108fe565b606091505b50509050806109755760405162461bcd60e51b815260206004820152603a60248201527f416464726573733a20756e61626c6520746f2073656e642076616c75652c207260448201527f6563697069656e74206d617920686176652072657665727465640000000000006064820152608401610281565b505050565b6000546001600160a01b0316336001600160a01b0316146109ad5760405162461bcd60e51b815260040161028190610aa4565b6001600160a01b03811660009081526001602052604090205434906109d29082610a21565b6001600160a01b038316600081815260016020526040908190209290925590517f2da466a7b24304f47e87fa2e1e5a81b9831ce54fec19055ce277ca2f39ba42c49061053c9084815260200190565b6000610a2d8284610af0565b9392505050565b6001600160a01b03811681146104a357600080fd5b600060208284031215610a5b57600080fd5b8135610a2d81610a34565b634e487b7160e01b600052602160045260246000fd5b6020810160038310610a9e57634e487b7160e01b600052602160045260246000fd5b91905290565b6020808252602c908201527f5365636f6e646172793a2063616c6c6572206973206e6f74207468652070726960408201526b1b585c9e481858d8dbdd5b9d60a21b606082015260800190565b60008219821115610b1157634e487b7160e01b600052601160045260246000fd5b50019056fea26469706673582212207ffa86106fbf1f9035ef22cd821a019c64342fd40fd1b0262ab6c77277d81b5464736f6c634300080e003354696d656443726f776473616c653a206f70656e696e672074696d6520697320",
  "immutableReferences": {},
  "source": "// SPDX-License-Identifier: MIT\npragma solidity ^0.8.0;\nimport \"../distribution/RefundablePostDeliveryCrowdsale.sol\";\nimport \"../distribution/PostDeliveryCrowdsale.sol\";\nimport \"../distribution/FinalizableCrowdsale.sol\";\nimport \"../distribution/RefundableCrowdsale.sol\";\nimport \"../validation/WhitelistCrowdsale.sol\";\nimport \"../validation/TimedCrowdsale.sol\";\nimport \"../Crowdsale.sol\";\n\ncontract MYCS_POSTDEV_WHITE is\n    Crowdsale,\n    WhitelistCrowdsale,\n    TimedCrowdsale,\n    PostDeliveryCrowdsale,\n    FinalizableCrowdsale,\n    RefundableCrowdsale,\n    RefundablePostDeliveryCrowdsale\n{\n    constructor(\n        uint256 goal,\n        uint256 openingTime_,\n        uint256 closingTime_,\n        uint256 _Rate,\n        address payable _wallet,\n        IERC20 _token\n    )\n        PostDeliveryCrowdsale()\n        FinalizableCrowdsale()\n        Crowdsale(_Rate, _wallet, _token)\n        RefundableCrowdsale(goal)\n        TimedCrowdsale(openingTime_, closingTime_)\n    {}\n\n    function _forwardFunds()\n        internal\n        override(\n            Crowdsale,\n            RefundablePostDeliveryCrowdsale,\n            RefundableCrowdsale\n        )\n    {\n        super._forwardFunds();\n    }\n\n    function _preValidatePurchase(address beneficiary, uint256 weiAmount)\n        internal\n        view\n        override(TimedCrowdsale, WhitelistCrowdsale, Crowdsale)\n    {\n        super._preValidatePurchase(beneficiary, weiAmount);\n    }\n\n    function _processPurchase(address beneficiary, uint256 tokenAmount)\n        internal\n        override(\n            Crowdsale,\n            RefundablePostDeliveryCrowdsale,\n            PostDeliveryCrowdsale\n        )\n    {\n        super._processPurchase(beneficiary, tokenAmount);\n    }\n\n    function _finalization()\n        internal\n        override(FinalizableCrowdsale, RefundableCrowdsale)\n    {\n        super._finalization();\n    }\n\n    function withdrawTokens(address beneficiary)\n        public\n        override(PostDeliveryCrowdsale, RefundablePostDeliveryCrowdsale)\n    {\n        super.withdrawTokens(beneficiary);\n    }\n}\n",
  "sourcePath": "/Users/yaksheshgupta/Desktop/Equistart_Smart_Contract/contracts/contracts/crowdsale/MyCrowdsaleVersion/MYCS_POSTDEV_WHITE.sol",
  "compiler": {
    "name": "solc",
    "version": "0.8.14+commit.80d49f37.Emscripten.clang"
  },
  "schemaVersion": "3.4.7",
  "updatedAt": "2023-03-24T14:21:41.372Z",
  "devdoc": {
    "kind": "dev",
    "methods": {
      "_rate()": {
        "returns": {
          "_0": "the number of token units a buyer gets per wei."
        }
      },
      "balanceOf(address)": {
        "returns": {
          "_0": "the balance of an account."
        }
      },
      "buyTokens(address)": {
        "details": "low level token purchase ***DO NOT OVERRIDE*** This function has a non-reentrancy guard, so it shouldn't be called by another `nonReentrant` function.",
        "params": {
          "beneficiary": "Recipient of the token purchase"
        }
      },
      "claimRefund(address)": {
        "details": "Investors can claim refunds here if crowdsale is unsuccessful.",
        "params": {
          "refundee": "Whose refund will be claimed."
        }
      },
      "closingTime()": {
        "returns": {
          "_0": "the crowdsale closing time."
        }
      },
      "finalize()": {
        "details": "Must be called after crowdsale ends, to do some extra finalization work. Calls the contract's finalization function."
      },
      "finalized()": {
        "returns": {
          "_0": "true if the crowdsale is finalized, false otherwise."
        }
      },
      "goal()": {
        "returns": {
          "_0": "minimum amount of funds to be raised in wei."
        }
      },
      "goalReached()": {
        "details": "Checks whether funding goal was reached.",
        "returns": {
          "_0": "Whether funding goal was reached"
        }
      },
      "hasClosed()": {
        "details": "Checks whether the period in which the crowdsale is open has already elapsed.",
        "returns": {
          "_0": "Whether crowdsale period has elapsed"
        }
      },
      "isOpen()": {
        "returns": {
          "_0": "true if the crowdsale is open, false otherwise."
        }
      },
      "openingTime()": {
        "returns": {
          "_0": "the crowdsale opening time."
        }
      },
      "seeToken()": {
        "returns": {
          "_0": "the token being sold."
        }
      },
      "seeWallet()": {
        "returns": {
          "_0": "the address where funds are collected."
        }
      },
      "weiRaised()": {
        "returns": {
          "_0": "the amount of wei raised."
        }
      }
    },
    "version": 1
  },
  "userdoc": {
    "events": {
      "TimedCrowdsaleExtended(uint256,uint256)": {
        "notice": "Event for crowdsale extending"
      },
      "TokensPurchased(address,address,uint256,uint256)": {
        "notice": "Event for token purchase logging"
      }
    },
    "kind": "user",
    "methods": {},
    "version": 1
  }
}