{
  "contractName": "MYCS_INCPRICE_INDICAP",
  "abi": [
    {
      "inputs": [
        {
          "internalType": "uint256",
          "name": "_openingTime",
          "type": "uint256"
        },
        {
          "internalType": "uint256",
          "name": "_closingTime",
          "type": "uint256"
        },
        {
          "internalType": "uint256",
          "name": "_initialRate",
          "type": "uint256"
        },
        {
          "internalType": "uint256",
          "name": "_finalRate",
          "type": "uint256"
        },
        {
          "internalType": "uint256",
          "name": "_Rate",
          "type": "uint256"
        },
        {
          "internalType": "address payable",
          "name": "_wallet",
          "type": "address"
        },
        {
          "internalType": "contract IERC20",
          "name": "_token",
          "type": "address"
        }
      ],
      "stateMutability": "nonpayable",
      "type": "constructor"
    },
    {
      "anonymous": false,
      "inputs": [
        {
          "indexed": true,
          "internalType": "address",
          "name": "account",
          "type": "address"
        }
      ],
      "name": "CapperAdded",
      "type": "event"
    },
    {
      "anonymous": false,
      "inputs": [
        {
          "indexed": true,
          "internalType": "address",
          "name": "account",
          "type": "address"
        }
      ],
      "name": "CapperRemoved",
      "type": "event"
    },
    {
      "anonymous": false,
      "inputs": [
        {
          "indexed": false,
          "internalType": "uint256",
          "name": "prevClosingTime",
          "type": "uint256"
        },
        {
          "indexed": false,
          "internalType": "uint256",
          "name": "newClosingTime",
          "type": "uint256"
        }
      ],
      "name": "TimedCrowdsaleExtended",
      "type": "event"
    },
    {
      "anonymous": false,
      "inputs": [
        {
          "indexed": true,
          "internalType": "address",
          "name": "purchaser",
          "type": "address"
        },
        {
          "indexed": true,
          "internalType": "address",
          "name": "beneficiary",
          "type": "address"
        },
        {
          "indexed": false,
          "internalType": "uint256",
          "name": "value",
          "type": "uint256"
        },
        {
          "indexed": false,
          "internalType": "uint256",
          "name": "amount",
          "type": "uint256"
        }
      ],
      "name": "TokensPurchased",
      "type": "event"
    },
    {
      "stateMutability": "payable",
      "type": "fallback"
    },
    {
      "inputs": [],
      "name": "_rate",
      "outputs": [
        {
          "internalType": "uint256",
          "name": "",
          "type": "uint256"
        }
      ],
      "stateMutability": "view",
      "type": "function"
    },
    {
      "inputs": [
        {
          "internalType": "address",
          "name": "account",
          "type": "address"
        }
      ],
      "name": "addCapper",
      "outputs": [],
      "stateMutability": "nonpayable",
      "type": "function"
    },
    {
      "inputs": [
        {
          "internalType": "address",
          "name": "beneficiary",
          "type": "address"
        }
      ],
      "name": "buyTokens",
      "outputs": [],
      "stateMutability": "payable",
      "type": "function"
    },
    {
      "inputs": [],
      "name": "closingTime",
      "outputs": [
        {
          "internalType": "uint256",
          "name": "",
          "type": "uint256"
        }
      ],
      "stateMutability": "view",
      "type": "function"
    },
    {
      "inputs": [],
      "name": "finalRate",
      "outputs": [
        {
          "internalType": "uint256",
          "name": "",
          "type": "uint256"
        }
      ],
      "stateMutability": "view",
      "type": "function"
    },
    {
      "inputs": [
        {
          "internalType": "address",
          "name": "beneficiary",
          "type": "address"
        }
      ],
      "name": "getCap",
      "outputs": [
        {
          "internalType": "uint256",
          "name": "",
          "type": "uint256"
        }
      ],
      "stateMutability": "view",
      "type": "function"
    },
    {
      "inputs": [
        {
          "internalType": "address",
          "name": "beneficiary",
          "type": "address"
        }
      ],
      "name": "getContribution",
      "outputs": [
        {
          "internalType": "uint256",
          "name": "",
          "type": "uint256"
        }
      ],
      "stateMutability": "view",
      "type": "function"
    },
    {
      "inputs": [],
      "name": "getCurrentRate",
      "outputs": [
        {
          "internalType": "uint256",
          "name": "",
          "type": "uint256"
        }
      ],
      "stateMutability": "view",
      "type": "function"
    },
    {
      "inputs": [],
      "name": "hasClosed",
      "outputs": [
        {
          "internalType": "bool",
          "name": "",
          "type": "bool"
        }
      ],
      "stateMutability": "view",
      "type": "function"
    },
    {
      "inputs": [],
      "name": "initialRate",
      "outputs": [
        {
          "internalType": "uint256",
          "name": "",
          "type": "uint256"
        }
      ],
      "stateMutability": "view",
      "type": "function"
    },
    {
      "inputs": [
        {
          "internalType": "address",
          "name": "account",
          "type": "address"
        }
      ],
      "name": "isCapper",
      "outputs": [
        {
          "internalType": "bool",
          "name": "",
          "type": "bool"
        }
      ],
      "stateMutability": "view",
      "type": "function"
    },
    {
      "inputs": [],
      "name": "isOpen",
      "outputs": [
        {
          "internalType": "bool",
          "name": "",
          "type": "bool"
        }
      ],
      "stateMutability": "view",
      "type": "function"
    },
    {
      "inputs": [],
      "name": "openingTime",
      "outputs": [
        {
          "internalType": "uint256",
          "name": "",
          "type": "uint256"
        }
      ],
      "stateMutability": "view",
      "type": "function"
    },
    {
      "inputs": [],
      "name": "rate_",
      "outputs": [
        {
          "internalType": "uint256",
          "name": "",
          "type": "uint256"
        }
      ],
      "stateMutability": "pure",
      "type": "function"
    },
    {
      "inputs": [],
      "name": "renounceCapper",
      "outputs": [],
      "stateMutability": "nonpayable",
      "type": "function"
    },
    {
      "inputs": [],
      "name": "seeToken",
      "outputs": [
        {
          "internalType": "contract IERC20",
          "name": "",
          "type": "address"
        }
      ],
      "stateMutability": "view",
      "type": "function"
    },
    {
      "inputs": [],
      "name": "seeWallet",
      "outputs": [
        {
          "internalType": "address payable",
          "name": "",
          "type": "address"
        }
      ],
      "stateMutability": "view",
      "type": "function"
    },
    {
      "inputs": [
        {
          "internalType": "address",
          "name": "beneficiary",
          "type": "address"
        },
        {
          "internalType": "uint256",
          "name": "cap",
          "type": "uint256"
        }
      ],
      "name": "setCap",
      "outputs": [],
      "stateMutability": "nonpayable",
      "type": "function"
    },
    {
      "inputs": [],
      "name": "weiRaised",
      "outputs": [
        {
          "internalType": "uint256",
          "name": "",
          "type": "uint256"
        }
      ],
      "stateMutability": "view",
      "type": "function"
    },
    {
      "stateMutability": "payable",
      "type": "receive"
    }
  ],
  "bytecode": "0x60806040523480156200001157600080fd5b5060405162001507380380620015078339810160408190526200003491620004dc565b60016000558484888886868682620000935760405162461bcd60e51b815260206004820152601460248201527f43726f776473616c653a2072617465206973203000000000000000000000000060448201526064015b60405180910390fd5b6001600160a01b038216620000f95760405162461bcd60e51b815260206004820152602560248201527f43726f776473616c653a2077616c6c657420697320746865207a65726f206164604482015264647265737360d81b60648201526084016200008a565b6001600160a01b0381166200015d5760405162461bcd60e51b8152602060048201526024808201527f43726f776473616c653a20746f6b656e20697320746865207a65726f206164646044820152637265737360e01b60648201526084016200008a565b600392909255600280546001600160a01b039283166001600160a01b0319918216179091556001805492909316911617905542821015620001f65760405162461bcd60e51b81526020600482015260336024820152600080516020620014e783398151915260448201527f6265666f72652063757272656e742074696d650000000000000000000000000060648201526084016200008a565b8181116200025c5760405162461bcd60e51b81526020600482015260376024820152600080516020620014e783398151915260448201527f6e6f74206265666f726520636c6f73696e672074696d6500000000000000000060648201526084016200008a565b60059190915560065580620002c65760405162461bcd60e51b815260206004820152602960248201527f496e6372656173696e67507269636543726f776473616c653a2066696e616c2060448201526807261746520697320360bc1b60648201526084016200008a565b8082116200034b5760405162461bcd60e51b815260206004820152604560248201527f496e6372656173696e67507269636543726f776473616c653a20696e6974696160448201527f6c2072617465206973206e6f742067726561746572207468616e2066696e616c606482015264207261746560d81b608482015260a4016200008a565b6007919091556008556200035f336200036c565b505050505050506200054b565b62000387816009620003be60201b620005951790919060201c565b6040516001600160a01b038216907fa7555c95b69d4f5cc847881feb4ab2883a1921319e34fa2043747b793d65b36e90600090a250565b620003ca82826200043e565b15620004195760405162461bcd60e51b815260206004820152601f60248201527f526f6c65733a206163636f756e7420616c72656164792068617320726f6c650060448201526064016200008a565b6001600160a01b0316600090815260209190915260409020805460ff19166001179055565b60006001600160a01b038216620004a35760405162461bcd60e51b815260206004820152602260248201527f526f6c65733a206163636f756e7420697320746865207a65726f206164647265604482015261737360f01b60648201526084016200008a565b506001600160a01b03166000908152602091909152604090205460ff1690565b6001600160a01b0381168114620004d957600080fd5b50565b600080600080600080600060e0888a031215620004f857600080fd5b875196506020880151955060408801519450606088015193506080880151925060a08801516200052881620004c3565b60c08901519092506200053b81620004c3565b8091505092959891949750929550565b610f8c806200055b6000396000f3fe6080604052600436106101185760003560e01c8063626ff08e116100a0578063b3aefb7511610064578063b3aefb75146102d8578063b7a8807c1461030e578063d69a3aeb14610323578063ec8ac4d814610341578063f7fb07b01461034f5761012d565b8063626ff08e1461025957806380ad2cf31461026e57806383bebced1461028e5780638dfbcf36146102a35780639e51051f146102c35761012d565b80634042b66f116100e75780634042b66f146101d357806343935cf7146101e857806347535d7b1461021a5780634b6753bc1461022f5780635d5576f8146102445761012d565b80631515bc2b14610136578063211061091461015e57806321eff7fc1461017d57806339564561146101b35761012d565b3661012d5761012b33610364565b610364565b005b61012b33610364565b34801561014257600080fd5b5060065442115b60405190151581526020015b60405180910390f35b34801561016a57600080fd5b506008545b604051908152602001610155565b34801561018957600080fd5b5061016f610198366004610d9a565b6001600160a01b03166000908152600a602052604090205490565b3480156101bf57600080fd5b506101496101ce366004610d9a565b610406565b3480156101df57600080fd5b5060045461016f565b3480156101f457600080fd5b506002546001600160a01b03165b6040516001600160a01b039091168152602001610155565b34801561022657600080fd5b50610149610419565b34801561023b57600080fd5b5060065461016f565b34801561025057600080fd5b5061012b610434565b34801561026557600080fd5b5061016f61043f565b34801561027a57600080fd5b5061012b610289366004610db5565b61049f565b34801561029a57600080fd5b5060035461016f565b3480156102af57600080fd5b5061012b6102be366004610d9a565b6104e0565b3480156102cf57600080fd5b5060075461016f565b3480156102e457600080fd5b5061016f6102f3366004610d9a565b6001600160a01b03166000908152600b602052604090205490565b34801561031a57600080fd5b5060055461016f565b34801561032f57600080fd5b506001546001600160a01b0316610202565b61012b610126366004610d9a565b34801561035b57600080fd5b5061016f61050e565b61036c610611565b34610377828261066a565b600061038282610678565b6004549091506103929083610683565b60045561039f8382610696565b60408051838152602081018390526001600160a01b0385169133917f6faf93231a456e552dbc9961f58d9713ee4f2e69d15f1975b050ef0911053a7b910160405180910390a36103ef83836106a0565b6103f76106aa565b50506104036001600055565b50565b60006104136009836106e3565b92915050565b6000600554421015801561042f57506006544211155b905090565b61043d33610766565b565b60405162461bcd60e51b815260206004820152602760248201527f496e6372656173696e67507269636543726f776473616c653a207261746528296044820152660818d85b1b195960ca1b60648201526000906084015b60405180910390fd5b6104a833610406565b6104c45760405162461bcd60e51b815260040161049690610ddf565b6001600160a01b039091166000908152600b6020526040902055565b6104e933610406565b6105055760405162461bcd60e51b815260040161049690610ddf565b610403816107a8565b6000610518610419565b6105225750600090565b600061053761053060055490565b42906107ea565b9050600061055061054760055490565b600654906107ea565b9050600061056b6008546007546107ea90919063ffffffff16565b905061058d6105848361057e86856107f6565b90610802565b600754906107ea565b935050505090565b61059f82826106e3565b156105ec5760405162461bcd60e51b815260206004820152601f60248201527f526f6c65733a206163636f756e7420616c72656164792068617320726f6c65006044820152606401610496565b6001600160a01b0316600090815260209190915260409020805460ff19166001179055565b6002600054036106635760405162461bcd60e51b815260206004820152601f60248201527f5265656e7472616e637947756172643a207265656e7472616e742063616c6c006044820152606401610496565b6002600055565b610674828261080e565b5050565b6000610413826108bb565b600061068f8284610e45565b9392505050565b61067482826108d2565b61067482826108e9565b6002546040516001600160a01b03909116903480156108fc02916000818181858888f19350505050158015610403573d6000803e3d6000fd5b60006001600160a01b0382166107465760405162461bcd60e51b815260206004820152602260248201527f526f6c65733a206163636f756e7420697320746865207a65726f206164647265604482015261737360f01b6064820152608401610496565b506001600160a01b03166000908152602091909152604090205460ff1690565b61077160098261092c565b6040516001600160a01b038216907f427400d279c506df610224b22ecce89b693fc1865864113f21c8d19c1f0c2a3b90600090a250565b6107b3600982610595565b6040516001600160a01b038216907fa7555c95b69d4f5cc847881feb4ab2883a1921319e34fa2043747b793d65b36e90600090a250565b600061068f8284610e5d565b600061068f8284610e74565b600061068f8284610e93565b61081882826109ae565b6001600160a01b0382166000908152600b6020908152604080832054600a909252909120546108479083610683565b11156106745760405162461bcd60e51b815260206004820152603760248201527f496e646976696475616c6c7943617070656443726f776473616c653a2062656e60448201527f65666963696172792773206361702065786365656465640000000000000000006064820152608401610496565b6000806108c661050e565b905061068f81846107f6565b600154610674906001600160a01b03168383610a0c565b6001600160a01b0382166000908152600a602052604090205461090c9082610683565b6001600160a01b039092166000908152600a602052604090209190915550565b61093682826106e3565b61098c5760405162461bcd60e51b815260206004820152602160248201527f526f6c65733a206163636f756e7420646f6573206e6f74206861766520726f6c6044820152606560f81b6064820152608401610496565b6001600160a01b0316600090815260209190915260409020805460ff19169055565b6109b6610419565b610a025760405162461bcd60e51b815260206004820152601860248201527f54696d656443726f776473616c653a206e6f74206f70656e00000000000000006044820152606401610496565b6106748282610a63565b604080516001600160a01b038416602482015260448082018490528251808303909101815260649091019091526020810180516001600160e01b031663a9059cbb60e01b179052610a5e908490610b1c565b505050565b6001600160a01b038216610acc5760405162461bcd60e51b815260206004820152602a60248201527f43726f776473616c653a2062656e656669636961727920697320746865207a65604482015269726f206164647265737360b01b6064820152608401610496565b806000036106745760405162461bcd60e51b815260206004820152601960248201527f43726f776473616c653a20776569416d6f756e742069732030000000000000006044820152606401610496565b6000610b71826040518060400160405280602081526020017f5361666545524332303a206c6f772d6c6576656c2063616c6c206661696c6564815250856001600160a01b0316610bee9092919063ffffffff16565b805190915015610a5e5780806020019051810190610b8f9190610eb5565b610a5e5760405162461bcd60e51b815260206004820152602a60248201527f5361666545524332303a204552433230206f7065726174696f6e20646964206e6044820152691bdd081cdd58d8d9595960b21b6064820152608401610496565b6060610bfd8484600085610c05565b949350505050565b606082471015610c665760405162461bcd60e51b815260206004820152602660248201527f416464726573733a20696e73756666696369656e742062616c616e636520666f6044820152651c8818d85b1b60d21b6064820152608401610496565b600080866001600160a01b03168587604051610c829190610f07565b60006040518083038185875af1925050503d8060008114610cbf576040519150601f19603f3d011682016040523d82523d6000602084013e610cc4565b606091505b5091509150610cd587838387610ce0565b979650505050505050565b60608315610d4f578251600003610d48576001600160a01b0385163b610d485760405162461bcd60e51b815260206004820152601d60248201527f416464726573733a2063616c6c20746f206e6f6e2d636f6e74726163740000006044820152606401610496565b5081610bfd565b610bfd8383815115610d645781518083602001fd5b8060405162461bcd60e51b81526004016104969190610f23565b80356001600160a01b0381168114610d9557600080fd5b919050565b600060208284031215610dac57600080fd5b61068f82610d7e565b60008060408385031215610dc857600080fd5b610dd183610d7e565b946020939093013593505050565b60208082526030908201527f436170706572526f6c653a2063616c6c657220646f6573206e6f74206861766560408201526f207468652043617070657220726f6c6560801b606082015260800190565b634e487b7160e01b600052601160045260246000fd5b60008219821115610e5857610e58610e2f565b500190565b600082821015610e6f57610e6f610e2f565b500390565b6000816000190483118215151615610e8e57610e8e610e2f565b500290565b600082610eb057634e487b7160e01b600052601260045260246000fd5b500490565b600060208284031215610ec757600080fd5b8151801515811461068f57600080fd5b60005b83811015610ef2578181015183820152602001610eda565b83811115610f01576000848401525b50505050565b60008251610f19818460208701610ed7565b9190910192915050565b6020815260008251806020840152610f42816040850160208701610ed7565b601f01601f1916919091016040019291505056fea26469706673582212209a3b1901c852bde169ecf37c53a4bbbf3b372c5c3dda437076432e88e13e275764736f6c634300080e003354696d656443726f776473616c653a206f70656e696e672074696d6520697320",
  "immutableReferences": {},
  "source": "// SPDX-License-Identifier: MIT\npragma solidity ^0.8.0;\nimport \"../price/IncreasingPriceCrowdsale.sol\";\nimport \"../validation/IndividuallyCappedCrowdsale.sol\";\nimport \"../validation/TimedCrowdsale.sol\";\nimport \"../Crowdsale.sol\";\n\ncontract MYCS_INCPRICE_INDICAP is\n    Crowdsale,\n    TimedCrowdsale,\n    IncreasingPriceCrowdsale,\n    IndividuallyCappedCrowdsale\n{\n    constructor(\n        uint256 _openingTime,\n        uint256 _closingTime,\n        uint256 _initialRate,\n        uint256 _finalRate,\n        uint256 _Rate,\n        address payable _wallet,\n        IERC20 _token\n    )\n        Crowdsale(_Rate, _wallet, _token)\n        TimedCrowdsale(_openingTime, _closingTime)\n        IncreasingPriceCrowdsale(_initialRate, _finalRate)\n    {}\n\n    function _updatePurchasingState(address beneficiary, uint256 weiAmount)\n        internal\n        override(Crowdsale, IndividuallyCappedCrowdsale)\n    {\n        super._updatePurchasingState(beneficiary, weiAmount);\n    }\n\n    function _preValidatePurchase(address beneficiary, uint256 weiAmount)\n        internal\n        view\n        override(Crowdsale, TimedCrowdsale, IndividuallyCappedCrowdsale)\n    {\n        super._preValidatePurchase(beneficiary, weiAmount);\n    }\n\n    function _getTokenAmount(uint256 weiAmount)\n        internal\n        view\n        override(Crowdsale, IncreasingPriceCrowdsale)\n        returns (uint256)\n    {\n        return super._getTokenAmount(weiAmount);\n    }\n}\n",
  "sourcePath": "/Users/yaksheshgupta/Desktop/Equistart_Smart_Contract/contracts/contracts/crowdsale/MyCrowdsaleVersion/MYCS_INCPRICE_INDICAP.sol",
  "compiler": {
    "name": "solc",
    "version": "0.8.14+commit.80d49f37.Emscripten.clang"
  },
  "schemaVersion": "3.4.7",
  "updatedAt": "2023-02-25T19:57:33.701Z",
  "networkType": "ethereum",
  "devdoc": {
    "kind": "dev",
    "methods": {
      "_rate()": {
        "returns": {
          "_0": "the number of token units a buyer gets per wei."
        }
      },
      "buyTokens(address)": {
        "details": "low level token purchase ***DO NOT OVERRIDE*** This function has a non-reentrancy guard, so it shouldn't be called by another `nonReentrant` function.",
        "params": {
          "beneficiary": "Recipient of the token purchase"
        }
      },
      "closingTime()": {
        "returns": {
          "_0": "the crowdsale closing time."
        }
      },
      "finalRate()": {
        "returns": {
          "_0": "the final rate of the crowdsale."
        }
      },
      "getCap(address)": {
        "details": "Returns the cap of a specific beneficiary.",
        "params": {
          "beneficiary": "Address whose cap is to be checked"
        },
        "returns": {
          "_0": "Current cap for individual beneficiary"
        }
      },
      "getContribution(address)": {
        "details": "Returns the amount contributed so far by a specific beneficiary.",
        "params": {
          "beneficiary": "Address of contributor"
        },
        "returns": {
          "_0": "Beneficiary contribution so far"
        }
      },
      "getCurrentRate()": {
        "details": "Returns the rate of tokens per wei at the present time. Note that, as price _increases_ with time, the rate _decreases_.",
        "returns": {
          "_0": "The number of tokens a buyer gets per wei at a given time"
        }
      },
      "hasClosed()": {
        "details": "Checks whether the period in which the crowdsale is open has already elapsed.",
        "returns": {
          "_0": "Whether crowdsale period has elapsed"
        }
      },
      "initialRate()": {
        "returns": {
          "_0": "the initial rate of the crowdsale."
        }
      },
      "isOpen()": {
        "returns": {
          "_0": "true if the crowdsale is open, false otherwise."
        }
      },
      "openingTime()": {
        "returns": {
          "_0": "the crowdsale opening time."
        }
      },
      "seeToken()": {
        "returns": {
          "_0": "the token being sold."
        }
      },
      "seeWallet()": {
        "returns": {
          "_0": "the address where funds are collected."
        }
      },
      "setCap(address,uint256)": {
        "details": "Sets a specific beneficiary's maximum contribution.",
        "params": {
          "beneficiary": "Address to be capped",
          "cap": "Wei limit for individual contribution"
        }
      },
      "weiRaised()": {
        "returns": {
          "_0": "the amount of wei raised."
        }
      }
    },
    "version": 1
  },
  "userdoc": {
    "events": {
      "TimedCrowdsaleExtended(uint256,uint256)": {
        "notice": "Event for crowdsale extending"
      },
      "TokensPurchased(address,address,uint256,uint256)": {
        "notice": "Event for token purchase logging"
      }
    },
    "kind": "user",
    "methods": {
      "rate_()": {
        "notice": "The base rate function is overridden to revert, since this crowdsale doesn't use it, and all calls to it are a mistake."
      }
    },
    "version": 1
  }
}