{
  "contractName": "MyGovernor",
  "abi": [
    {
      "inputs": [
        {
          "internalType": "contract IVotes",
          "name": "_token",
          "type": "address"
        },
        {
          "internalType": "contract TimelockController",
          "name": "_timelock",
          "type": "address"
        }
      ],
      "stateMutability": "nonpayable",
      "type": "constructor"
    },
    {
      "inputs": [],
      "name": "Empty",
      "type": "error"
    },
    {
      "anonymous": false,
      "inputs": [
        {
          "indexed": true,
          "internalType": "address",
          "name": "previousOwner",
          "type": "address"
        },
        {
          "indexed": true,
          "internalType": "address",
          "name": "newOwner",
          "type": "address"
        }
      ],
      "name": "OwnershipTransferred",
      "type": "event"
    },
    {
      "anonymous": false,
      "inputs": [
        {
          "indexed": false,
          "internalType": "uint256",
          "name": "proposalId",
          "type": "uint256"
        }
      ],
      "name": "ProposalCanceled",
      "type": "event"
    },
    {
      "anonymous": false,
      "inputs": [
        {
          "indexed": false,
          "internalType": "uint256",
          "name": "proposalId",
          "type": "uint256"
        },
        {
          "indexed": false,
          "internalType": "address",
          "name": "proposer",
          "type": "address"
        },
        {
          "indexed": false,
          "internalType": "address[]",
          "name": "targets",
          "type": "address[]"
        },
        {
          "indexed": false,
          "internalType": "uint256[]",
          "name": "values",
          "type": "uint256[]"
        },
        {
          "indexed": false,
          "internalType": "string[]",
          "name": "signatures",
          "type": "string[]"
        },
        {
          "indexed": false,
          "internalType": "bytes[]",
          "name": "calldatas",
          "type": "bytes[]"
        },
        {
          "indexed": false,
          "internalType": "uint256",
          "name": "startBlock",
          "type": "uint256"
        },
        {
          "indexed": false,
          "internalType": "uint256",
          "name": "endBlock",
          "type": "uint256"
        },
        {
          "indexed": false,
          "internalType": "string",
          "name": "description",
          "type": "string"
        }
      ],
      "name": "ProposalCreated",
      "type": "event"
    },
    {
      "anonymous": false,
      "inputs": [
        {
          "indexed": false,
          "internalType": "uint256",
          "name": "proposalId",
          "type": "uint256"
        }
      ],
      "name": "ProposalExecuted",
      "type": "event"
    },
    {
      "anonymous": false,
      "inputs": [
        {
          "indexed": false,
          "internalType": "uint256",
          "name": "proposalId",
          "type": "uint256"
        },
        {
          "indexed": false,
          "internalType": "uint256",
          "name": "eta",
          "type": "uint256"
        }
      ],
      "name": "ProposalQueued",
      "type": "event"
    },
    {
      "anonymous": false,
      "inputs": [
        {
          "indexed": false,
          "internalType": "uint256",
          "name": "oldQuorumNumerator",
          "type": "uint256"
        },
        {
          "indexed": false,
          "internalType": "uint256",
          "name": "newQuorumNumerator",
          "type": "uint256"
        }
      ],
      "name": "QuorumNumeratorUpdated",
      "type": "event"
    },
    {
      "anonymous": false,
      "inputs": [
        {
          "indexed": false,
          "internalType": "address",
          "name": "oldTimelock",
          "type": "address"
        },
        {
          "indexed": false,
          "internalType": "address",
          "name": "newTimelock",
          "type": "address"
        }
      ],
      "name": "TimelockChange",
      "type": "event"
    },
    {
      "anonymous": false,
      "inputs": [
        {
          "indexed": true,
          "internalType": "address",
          "name": "voter",
          "type": "address"
        },
        {
          "indexed": false,
          "internalType": "uint256",
          "name": "proposalId",
          "type": "uint256"
        },
        {
          "indexed": false,
          "internalType": "uint8",
          "name": "support",
          "type": "uint8"
        },
        {
          "indexed": false,
          "internalType": "uint256",
          "name": "weight",
          "type": "uint256"
        },
        {
          "indexed": false,
          "internalType": "string",
          "name": "reason",
          "type": "string"
        }
      ],
      "name": "VoteCast",
      "type": "event"
    },
    {
      "anonymous": false,
      "inputs": [
        {
          "indexed": true,
          "internalType": "address",
          "name": "voter",
          "type": "address"
        },
        {
          "indexed": false,
          "internalType": "uint256",
          "name": "proposalId",
          "type": "uint256"
        },
        {
          "indexed": false,
          "internalType": "uint8",
          "name": "support",
          "type": "uint8"
        },
        {
          "indexed": false,
          "internalType": "uint256",
          "name": "weight",
          "type": "uint256"
        },
        {
          "indexed": false,
          "internalType": "string",
          "name": "reason",
          "type": "string"
        },
        {
          "indexed": false,
          "internalType": "bytes",
          "name": "params",
          "type": "bytes"
        }
      ],
      "name": "VoteCastWithParams",
      "type": "event"
    },
    {
      "inputs": [],
      "name": "BALLOT_TYPEHASH",
      "outputs": [
        {
          "internalType": "bytes32",
          "name": "",
          "type": "bytes32"
        }
      ],
      "stateMutability": "view",
      "type": "function",
      "constant": true
    },
    {
      "inputs": [],
      "name": "COUNTING_MODE",
      "outputs": [
        {
          "internalType": "string",
          "name": "",
          "type": "string"
        }
      ],
      "stateMutability": "pure",
      "type": "function",
      "constant": true
    },
    {
      "inputs": [],
      "name": "EXTENDED_BALLOT_TYPEHASH",
      "outputs": [
        {
          "internalType": "bytes32",
          "name": "",
          "type": "bytes32"
        }
      ],
      "stateMutability": "view",
      "type": "function",
      "constant": true
    },
    {
      "inputs": [
        {
          "internalType": "uint256",
          "name": "proposalId",
          "type": "uint256"
        },
        {
          "internalType": "uint8",
          "name": "support",
          "type": "uint8"
        }
      ],
      "name": "castVote",
      "outputs": [
        {
          "internalType": "uint256",
          "name": "",
          "type": "uint256"
        }
      ],
      "stateMutability": "nonpayable",
      "type": "function"
    },
    {
      "inputs": [
        {
          "internalType": "uint256",
          "name": "proposalId",
          "type": "uint256"
        },
        {
          "internalType": "uint8",
          "name": "support",
          "type": "uint8"
        },
        {
          "internalType": "uint8",
          "name": "v",
          "type": "uint8"
        },
        {
          "internalType": "bytes32",
          "name": "r",
          "type": "bytes32"
        },
        {
          "internalType": "bytes32",
          "name": "s",
          "type": "bytes32"
        }
      ],
      "name": "castVoteBySig",
      "outputs": [
        {
          "internalType": "uint256",
          "name": "",
          "type": "uint256"
        }
      ],
      "stateMutability": "nonpayable",
      "type": "function"
    },
    {
      "inputs": [
        {
          "internalType": "uint256",
          "name": "proposalId",
          "type": "uint256"
        },
        {
          "internalType": "uint8",
          "name": "support",
          "type": "uint8"
        },
        {
          "internalType": "string",
          "name": "reason",
          "type": "string"
        }
      ],
      "name": "castVoteWithReason",
      "outputs": [
        {
          "internalType": "uint256",
          "name": "",
          "type": "uint256"
        }
      ],
      "stateMutability": "nonpayable",
      "type": "function"
    },
    {
      "inputs": [
        {
          "internalType": "uint256",
          "name": "proposalId",
          "type": "uint256"
        },
        {
          "internalType": "uint8",
          "name": "support",
          "type": "uint8"
        },
        {
          "internalType": "string",
          "name": "reason",
          "type": "string"
        },
        {
          "internalType": "bytes",
          "name": "params",
          "type": "bytes"
        }
      ],
      "name": "castVoteWithReasonAndParams",
      "outputs": [
        {
          "internalType": "uint256",
          "name": "",
          "type": "uint256"
        }
      ],
      "stateMutability": "nonpayable",
      "type": "function"
    },
    {
      "inputs": [
        {
          "internalType": "uint256",
          "name": "proposalId",
          "type": "uint256"
        },
        {
          "internalType": "uint8",
          "name": "support",
          "type": "uint8"
        },
        {
          "internalType": "string",
          "name": "reason",
          "type": "string"
        },
        {
          "internalType": "bytes",
          "name": "params",
          "type": "bytes"
        },
        {
          "internalType": "uint8",
          "name": "v",
          "type": "uint8"
        },
        {
          "internalType": "bytes32",
          "name": "r",
          "type": "bytes32"
        },
        {
          "internalType": "bytes32",
          "name": "s",
          "type": "bytes32"
        }
      ],
      "name": "castVoteWithReasonAndParamsBySig",
      "outputs": [
        {
          "internalType": "uint256",
          "name": "",
          "type": "uint256"
        }
      ],
      "stateMutability": "nonpayable",
      "type": "function"
    },
    {
      "inputs": [
        {
          "internalType": "address[]",
          "name": "targets",
          "type": "address[]"
        },
        {
          "internalType": "uint256[]",
          "name": "values",
          "type": "uint256[]"
        },
        {
          "internalType": "bytes[]",
          "name": "calldatas",
          "type": "bytes[]"
        },
        {
          "internalType": "bytes32",
          "name": "descriptionHash",
          "type": "bytes32"
        }
      ],
      "name": "execute",
      "outputs": [
        {
          "internalType": "uint256",
          "name": "",
          "type": "uint256"
        }
      ],
      "stateMutability": "payable",
      "type": "function",
      "payable": true
    },
    {
      "inputs": [
        {
          "internalType": "address",
          "name": "account",
          "type": "address"
        },
        {
          "internalType": "uint256",
          "name": "blockNumber",
          "type": "uint256"
        }
      ],
      "name": "getVotes",
      "outputs": [
        {
          "internalType": "uint256",
          "name": "",
          "type": "uint256"
        }
      ],
      "stateMutability": "view",
      "type": "function",
      "constant": true
    },
    {
      "inputs": [
        {
          "internalType": "address",
          "name": "account",
          "type": "address"
        },
        {
          "internalType": "uint256",
          "name": "blockNumber",
          "type": "uint256"
        },
        {
          "internalType": "bytes",
          "name": "params",
          "type": "bytes"
        }
      ],
      "name": "getVotesWithParams",
      "outputs": [
        {
          "internalType": "uint256",
          "name": "",
          "type": "uint256"
        }
      ],
      "stateMutability": "view",
      "type": "function",
      "constant": true
    },
    {
      "inputs": [
        {
          "internalType": "uint256",
          "name": "proposalId",
          "type": "uint256"
        },
        {
          "internalType": "address",
          "name": "account",
          "type": "address"
        }
      ],
      "name": "hasVoted",
      "outputs": [
        {
          "internalType": "bool",
          "name": "",
          "type": "bool"
        }
      ],
      "stateMutability": "view",
      "type": "function",
      "constant": true
    },
    {
      "inputs": [
        {
          "internalType": "address[]",
          "name": "targets",
          "type": "address[]"
        },
        {
          "internalType": "uint256[]",
          "name": "values",
          "type": "uint256[]"
        },
        {
          "internalType": "bytes[]",
          "name": "calldatas",
          "type": "bytes[]"
        },
        {
          "internalType": "bytes32",
          "name": "descriptionHash",
          "type": "bytes32"
        }
      ],
      "name": "hashProposal",
      "outputs": [
        {
          "internalType": "uint256",
          "name": "",
          "type": "uint256"
        }
      ],
      "stateMutability": "pure",
      "type": "function",
      "constant": true
    },
    {
      "inputs": [],
      "name": "name",
      "outputs": [
        {
          "internalType": "string",
          "name": "",
          "type": "string"
        }
      ],
      "stateMutability": "view",
      "type": "function",
      "constant": true
    },
    {
      "inputs": [
        {
          "internalType": "address",
          "name": "",
          "type": "address"
        },
        {
          "internalType": "address",
          "name": "",
          "type": "address"
        },
        {
          "internalType": "uint256[]",
          "name": "",
          "type": "uint256[]"
        },
        {
          "internalType": "uint256[]",
          "name": "",
          "type": "uint256[]"
        },
        {
          "internalType": "bytes",
          "name": "",
          "type": "bytes"
        }
      ],
      "name": "onERC1155BatchReceived",
      "outputs": [
        {
          "internalType": "bytes4",
          "name": "",
          "type": "bytes4"
        }
      ],
      "stateMutability": "nonpayable",
      "type": "function"
    },
    {
      "inputs": [
        {
          "internalType": "address",
          "name": "",
          "type": "address"
        },
        {
          "internalType": "address",
          "name": "",
          "type": "address"
        },
        {
          "internalType": "uint256",
          "name": "",
          "type": "uint256"
        },
        {
          "internalType": "uint256",
          "name": "",
          "type": "uint256"
        },
        {
          "internalType": "bytes",
          "name": "",
          "type": "bytes"
        }
      ],
      "name": "onERC1155Received",
      "outputs": [
        {
          "internalType": "bytes4",
          "name": "",
          "type": "bytes4"
        }
      ],
      "stateMutability": "nonpayable",
      "type": "function"
    },
    {
      "inputs": [
        {
          "internalType": "address",
          "name": "",
          "type": "address"
        },
        {
          "internalType": "address",
          "name": "",
          "type": "address"
        },
        {
          "internalType": "uint256",
          "name": "",
          "type": "uint256"
        },
        {
          "internalType": "bytes",
          "name": "",
          "type": "bytes"
        }
      ],
      "name": "onERC721Received",
      "outputs": [
        {
          "internalType": "bytes4",
          "name": "",
          "type": "bytes4"
        }
      ],
      "stateMutability": "nonpayable",
      "type": "function"
    },
    {
      "inputs": [],
      "name": "owner",
      "outputs": [
        {
          "internalType": "address",
          "name": "",
          "type": "address"
        }
      ],
      "stateMutability": "view",
      "type": "function",
      "constant": true
    },
    {
      "inputs": [
        {
          "internalType": "uint256",
          "name": "proposalId",
          "type": "uint256"
        }
      ],
      "name": "proposalDeadline",
      "outputs": [
        {
          "internalType": "uint256",
          "name": "",
          "type": "uint256"
        }
      ],
      "stateMutability": "view",
      "type": "function",
      "constant": true
    },
    {
      "inputs": [
        {
          "internalType": "uint256",
          "name": "proposalId",
          "type": "uint256"
        }
      ],
      "name": "proposalEta",
      "outputs": [
        {
          "internalType": "uint256",
          "name": "",
          "type": "uint256"
        }
      ],
      "stateMutability": "view",
      "type": "function",
      "constant": true
    },
    {
      "inputs": [
        {
          "internalType": "uint256",
          "name": "proposalId",
          "type": "uint256"
        }
      ],
      "name": "proposalSnapshot",
      "outputs": [
        {
          "internalType": "uint256",
          "name": "",
          "type": "uint256"
        }
      ],
      "stateMutability": "view",
      "type": "function",
      "constant": true
    },
    {
      "inputs": [
        {
          "internalType": "uint256",
          "name": "proposalId",
          "type": "uint256"
        }
      ],
      "name": "proposalVotes",
      "outputs": [
        {
          "internalType": "uint256",
          "name": "againstVotes",
          "type": "uint256"
        },
        {
          "internalType": "uint256",
          "name": "forVotes",
          "type": "uint256"
        },
        {
          "internalType": "uint256",
          "name": "abstainVotes",
          "type": "uint256"
        }
      ],
      "stateMutability": "view",
      "type": "function",
      "constant": true
    },
    {
      "inputs": [
        {
          "internalType": "address[]",
          "name": "targets",
          "type": "address[]"
        },
        {
          "internalType": "uint256[]",
          "name": "values",
          "type": "uint256[]"
        },
        {
          "internalType": "bytes[]",
          "name": "calldatas",
          "type": "bytes[]"
        },
        {
          "internalType": "bytes32",
          "name": "descriptionHash",
          "type": "bytes32"
        }
      ],
      "name": "queue",
      "outputs": [
        {
          "internalType": "uint256",
          "name": "",
          "type": "uint256"
        }
      ],
      "stateMutability": "nonpayable",
      "type": "function"
    },
    {
      "inputs": [],
      "name": "quorumDenominator",
      "outputs": [
        {
          "internalType": "uint256",
          "name": "",
          "type": "uint256"
        }
      ],
      "stateMutability": "view",
      "type": "function",
      "constant": true
    },
    {
      "inputs": [
        {
          "internalType": "uint256",
          "name": "blockNumber",
          "type": "uint256"
        }
      ],
      "name": "quorumNumerator",
      "outputs": [
        {
          "internalType": "uint256",
          "name": "",
          "type": "uint256"
        }
      ],
      "stateMutability": "view",
      "type": "function",
      "constant": true
    },
    {
      "inputs": [],
      "name": "quorumNumerator",
      "outputs": [
        {
          "internalType": "uint256",
          "name": "",
          "type": "uint256"
        }
      ],
      "stateMutability": "view",
      "type": "function",
      "constant": true
    },
    {
      "inputs": [
        {
          "internalType": "address",
          "name": "target",
          "type": "address"
        },
        {
          "internalType": "uint256",
          "name": "value",
          "type": "uint256"
        },
        {
          "internalType": "bytes",
          "name": "data",
          "type": "bytes"
        }
      ],
      "name": "relay",
      "outputs": [],
      "stateMutability": "payable",
      "type": "function",
      "payable": true
    },
    {
      "inputs": [],
      "name": "renounceOwnership",
      "outputs": [],
      "stateMutability": "nonpayable",
      "type": "function"
    },
    {
      "inputs": [],
      "name": "timelock",
      "outputs": [
        {
          "internalType": "address",
          "name": "",
          "type": "address"
        }
      ],
      "stateMutability": "view",
      "type": "function",
      "constant": true
    },
    {
      "inputs": [],
      "name": "token",
      "outputs": [
        {
          "internalType": "contract IVotes",
          "name": "",
          "type": "address"
        }
      ],
      "stateMutability": "view",
      "type": "function",
      "constant": true
    },
    {
      "inputs": [
        {
          "internalType": "address",
          "name": "newOwner",
          "type": "address"
        }
      ],
      "name": "transferOwnership",
      "outputs": [],
      "stateMutability": "nonpayable",
      "type": "function"
    },
    {
      "inputs": [
        {
          "internalType": "uint256",
          "name": "newQuorumNumerator",
          "type": "uint256"
        }
      ],
      "name": "updateQuorumNumerator",
      "outputs": [],
      "stateMutability": "nonpayable",
      "type": "function"
    },
    {
      "inputs": [
        {
          "internalType": "contract TimelockController",
          "name": "newTimelock",
          "type": "address"
        }
      ],
      "name": "updateTimelock",
      "outputs": [],
      "stateMutability": "nonpayable",
      "type": "function"
    },
    {
      "inputs": [],
      "name": "version",
      "outputs": [
        {
          "internalType": "string",
          "name": "",
          "type": "string"
        }
      ],
      "stateMutability": "view",
      "type": "function",
      "constant": true
    },
    {
      "stateMutability": "payable",
      "type": "receive",
      "payable": true
    },
    {
      "inputs": [
        {
          "internalType": "address payable",
          "name": "_sender",
          "type": "address"
        },
        {
          "internalType": "uint256",
          "name": "_amount",
          "type": "uint256"
        }
      ],
      "name": "pay_transfer",
      "outputs": [
        {
          "internalType": "bool",
          "name": "",
          "type": "bool"
        }
      ],
      "stateMutability": "nonpayable",
      "type": "function"
    },
    {
      "inputs": [
        {
          "internalType": "address payable",
          "name": "_sender",
          "type": "address"
        },
        {
          "internalType": "uint256",
          "name": "_amount",
          "type": "uint256"
        }
      ],
      "name": "pay_transfer2",
      "outputs": [
        {
          "internalType": "bool",
          "name": "",
          "type": "bool"
        }
      ],
      "stateMutability": "nonpayable",
      "type": "function"
    },
    {
      "inputs": [],
      "name": "votingDelay",
      "outputs": [
        {
          "internalType": "uint256",
          "name": "",
          "type": "uint256"
        }
      ],
      "stateMutability": "pure",
      "type": "function",
      "constant": true
    },
    {
      "inputs": [],
      "name": "proposalThreshold",
      "outputs": [
        {
          "internalType": "uint256",
          "name": "",
          "type": "uint256"
        }
      ],
      "stateMutability": "view",
      "type": "function",
      "constant": true
    },
    {
      "inputs": [
        {
          "internalType": "uint256",
          "name": "value",
          "type": "uint256"
        }
      ],
      "name": "setProposalThreshold",
      "outputs": [],
      "stateMutability": "nonpayable",
      "type": "function"
    },
    {
      "inputs": [],
      "name": "votingPeriod",
      "outputs": [
        {
          "internalType": "uint256",
          "name": "",
          "type": "uint256"
        }
      ],
      "stateMutability": "view",
      "type": "function",
      "constant": true
    },
    {
      "inputs": [
        {
          "internalType": "uint256",
          "name": "value",
          "type": "uint256"
        }
      ],
      "name": "setVotingPeriod",
      "outputs": [],
      "stateMutability": "nonpayable",
      "type": "function"
    },
    {
      "inputs": [
        {
          "internalType": "uint256",
          "name": "blockNumber",
          "type": "uint256"
        }
      ],
      "name": "quorum",
      "outputs": [
        {
          "internalType": "uint256",
          "name": "",
          "type": "uint256"
        }
      ],
      "stateMutability": "view",
      "type": "function",
      "constant": true
    },
    {
      "inputs": [
        {
          "internalType": "uint256",
          "name": "proposalId",
          "type": "uint256"
        }
      ],
      "name": "state",
      "outputs": [
        {
          "internalType": "enum IGovernor.ProposalState",
          "name": "",
          "type": "uint8"
        }
      ],
      "stateMutability": "view",
      "type": "function",
      "constant": true
    },
    {
      "inputs": [
        {
          "internalType": "address[]",
          "name": "targets",
          "type": "address[]"
        },
        {
          "internalType": "uint256[]",
          "name": "values",
          "type": "uint256[]"
        },
        {
          "internalType": "bytes[]",
          "name": "calldatas",
          "type": "bytes[]"
        },
        {
          "internalType": "string",
          "name": "description",
          "type": "string"
        }
      ],
      "name": "propose",
      "outputs": [
        {
          "internalType": "uint256",
          "name": "",
          "type": "uint256"
        }
      ],
      "stateMutability": "nonpayable",
      "type": "function"
    },
    {
      "inputs": [
        {
          "internalType": "bytes4",
          "name": "interfaceId",
          "type": "bytes4"
        }
      ],
      "name": "supportsInterface",
      "outputs": [
        {
          "internalType": "bool",
          "name": "",
          "type": "bool"
        }
      ],
      "stateMutability": "view",
      "type": "function",
      "constant": true
    }
  ],
  "bytecode": "0x610160604052670de0b6b3a7640000600a556004600b553480156200002357600080fd5b506040516200435f3803806200435f8339810160408190526200004691620007c7565b80600a836040518060400160405280600a81526020016926bca3b7bb32b93737b960b11b815250806200007e6200015e60201b60201c565b815160208084019190912082518383012060e08290526101008190524660a0818152604080517f8b73c3c69bb8fe3d512ecc4cf759cc79239f7b179b0ffacaa9a75d522b39400f81880181905281830187905260608201869052608082019490945230818401528151808203909301835260c00190528051940193909320919290916080523060c052610120525050825162000124925060009150602084019062000712565b50506001600160a01b0316610140526200013e8162000179565b506200014a81620002f5565b5062000156336200035e565b505062000868565b6040805180820190915260018152603160f81b602082015290565b6064811115620002025760405162461bcd60e51b815260206004820152604360248201527f476f7665726e6f72566f74657351756f72756d4672616374696f6e3a2071756f60448201527f72756d4e756d657261746f72206f7665722071756f72756d44656e6f6d696e616064820152623a37b960e91b608482015260a4015b60405180910390fd5b60006200020e620003b0565b90508015801590620002205750600654155b156200029b5760066000016040518060400160405280600063ffffffff1681526020016200025984620003e860201b620014b51760201c565b6001600160e01b0390811690915282546001810184556000938452602093849020835194909301519091166401000000000263ffffffff909316929092179101555b620002b68260066200045760201b620015221790919060201c565b505060408051828152602081018490527f0553476bf02ef2726e8ce5ced78d63e26e602e4a2257b1f559418e24b4633997910160405180910390a15050565b600754604080516001600160a01b03928316815291831660208301527f08f74ea46ef7894f65eabfb5e6e695de773a000b47c529ab559178069b226401910160405180910390a1600780546001600160a01b0319166001600160a01b0392909216919091179055565b600980546001600160a01b038381166001600160a01b0319831681179093556040519116919082907f8be0079c531659141344cd1fd0a4f28419497f9722a3daafe3b4186f6b6457e090600090a35050565b60065460009015620003e157620003d36006620004aa60201b620015581760201c565b6001600160e01b0316905090565b5060055490565b60006001600160e01b03821115620004535760405162461bcd60e51b815260206004820152602760248201527f53616665436173743a2076616c756520646f65736e27742066697420696e20326044820152663234206269747360c81b6064820152608401620001f9565b5090565b60008062000494846000016200047843620004f860201b620015961760201c565b6200048e86620003e860201b620014b51760201c565b6200055f565b6001600160e01b03918216969116945092505050565b80546000908015620004ee57620004d683620004c860018462000806565b600091825260209091200190565b5464010000000090046001600160e01b0316620004f1565b60005b9392505050565b600063ffffffff821115620004535760405162461bcd60e51b815260206004820152602660248201527f53616665436173743a2076616c756520646f65736e27742066697420696e203360448201526532206269747360d01b6064820152608401620001f9565b825460009081908015620006b45760006200058187620004c860018562000806565b60408051808201909152905463ffffffff8082168084526401000000009092046001600160e01b031660208401529192509087161015620006055760405162461bcd60e51b815260206004820152601760248201527f436865636b706f696e743a20696e76616c6964206b65790000000000000000006044820152606401620001f9565b805163ffffffff8088169116036200065357846200062a88620004c860018662000806565b80546001600160e01b03929092166401000000000263ffffffff909216919091179055620006a3565b6040805180820190915263ffffffff80881682526001600160e01b0380881660208085019182528b54600181018d5560008d81529190912094519151909216640100000000029216919091179101555b6020015192508391506200070a9050565b50506040805180820190915263ffffffff80851682526001600160e01b0380851660208085019182528854600181018a5560008a8152918220955192519093166401000000000291909316179201919091559050815b935093915050565b82805462000720906200082c565b90600052602060002090601f0160209004810192826200074457600085556200078f565b82601f106200075f57805160ff19168380011785556200078f565b828001600101855582156200078f579182015b828111156200078f57825182559160200191906001019062000772565b50620004539291505b8082111562000453576000815560010162000798565b6001600160a01b0381168114620007c457600080fd5b50565b60008060408385031215620007db57600080fd5b8251620007e881620007ae565b6020840151909250620007fb81620007ae565b809150509250929050565b6000828210156200082757634e487b7160e01b600052601160045260246000fd5b500390565b600181811c908216806200084157607f821691505b6020821081036200086257634e487b7160e01b600052602260045260246000fd5b50919050565b60805160a05160c05160e051610100516101205161014051613a8e620008d1600039600081816108e9015281816120700152612182015260006124a1015260006124f0015260006124cb015260006124240152600061244e015260006124780152613a8e6000f3fe6080604052600436106102765760003560e01c80637d5e81e21161014f578063c28bc2fa116100c1578063eb9019d41161007a578063eb9019d41461082b578063ece40cc11461084b578063f23a6e611461086b578063f2fde38b14610897578063f8ce560a146108b7578063fc0c546a146108d757600080fd5b8063c28bc2fa14610740578063c59057e414610753578063d33219b414610773578063dd4e2ba514610791578063deaaa7cc146107d7578063ea0217cf1461080b57600080fd5b8063a7713a7011610113578063a7713a701461068a578063a890c9101461069f578063ab58fb8e146106bf578063b58131b0146106df578063bc197c81146106f4578063c01f9e371461072057600080fd5b80637d5e81e2146105e45780638da5cb5b146106045780638fa8f8cc1461063657806397c3d334146106565780639a802a6d1461066a57600080fd5b80633932abb1116101e857806354fd4d50116101ac57806354fd4d5014610525578063567813881461054f5780635f398a141461056f57806360c4247f1461058f578063715018a6146105af5780637b3c71d3146105c457600080fd5b80633932abb1146104255780633bccf4fd146104395780633e4f49e6146104595780634385963214610486578063544ffc9c146104d057600080fd5b8063150b7a021161023a578063150b7a021461033a578063160cbed71461037e5780632656227d1461039e57806328f1506d146103b15780632d63f693146103d15780632fe3e261146103f157600080fd5b806301ffc9a71461028257806302a251a3146102b757806303420181146102d657806306f3f9e6146102f657806306fdde031461031857600080fd5b3661027d57005b600080fd5b34801561028e57600080fd5b506102a261029d366004612bc7565b61090b565b60405190151581526020015b60405180910390f35b3480156102c357600080fd5b50600b545b6040519081526020016102ae565b3480156102e257600080fd5b506102c86102f1366004612d05565b61091c565b34801561030257600080fd5b50610316610311366004612dab565b610a14565b005b34801561032457600080fd5b5061032d610aa7565b6040516102ae9190612e11565b34801561034657600080fd5b50610365610355366004612e39565b630a85bd0160e11b949350505050565b6040516001600160e01b031990911681526020016102ae565b34801561038a57600080fd5b506102c8610399366004613015565b610b39565b6102c86103ac366004613015565b610d39565b3480156103bd57600080fd5b506102a26103cc3660046130a4565b610e26565b3480156103dd57600080fd5b506102c86103ec366004612dab565b610ea6565b3480156103fd57600080fd5b506102c87fb3b3f3b703cd84ce352197dcff232b1b5d3cfb2025ce47cf04742d0651f1af8881565b34801561043157600080fd5b5060016102c8565b34801561044557600080fd5b506102c86104543660046130d0565b610edd565b34801561046557600080fd5b50610479610474366004612dab565b610f53565b6040516102ae9190613134565b34801561049257600080fd5b506102a26104a136600461315c565b60008281526004602090815260408083206001600160a01b038516845260030190915290205460ff1692915050565b3480156104dc57600080fd5b5061050a6104eb366004612dab565b6000908152600460205260409020805460018201546002909201549092565b604080519384526020840192909252908201526060016102ae565b34801561053157600080fd5b506040805180820190915260018152603160f81b602082015261032d565b34801561055b57600080fd5b506102c861056a36600461318c565b610f5e565b34801561057b57600080fd5b506102c861058a3660046131b8565b610f87565b34801561059b57600080fd5b506102c86105aa366004612dab565b610fd1565b3480156105bb57600080fd5b50610316611068565b3480156105d057600080fd5b506102c86105df36600461323b565b61107c565b3480156105f057600080fd5b506102c86105ff366004613294565b6110ce565b34801561061057600080fd5b506009546001600160a01b03165b6040516001600160a01b0390911681526020016102ae565b34801561064257600080fd5b506102a26106513660046130a4565b6110e5565b34801561066257600080fd5b5060646102c8565b34801561067657600080fd5b506102c8610685366004613348565b61111d565b34801561069657600080fd5b506102c8611134565b3480156106ab57600080fd5b506103166106ba3660046133a0565b611160565b3480156106cb57600080fd5b506102c86106da366004612dab565b6111e7565b3480156106eb57600080fd5b50600a546102c8565b34801561070057600080fd5b5061036561070f3660046133bd565b63bc197c8160e01b95945050505050565b34801561072c57600080fd5b506102c861073b366004612dab565b611281565b61031661074e366004613450565b6112b0565b34801561075f57600080fd5b506102c861076e366004613015565b6113bf565b34801561077f57600080fd5b506007546001600160a01b031661061e565b34801561079d57600080fd5b506040805180820190915260208082527f737570706f72743d627261766f2671756f72756d3d666f722c6162737461696e9082015261032d565b3480156107e357600080fd5b506102c87f150214d74d59b7d1e90c73fc22ef3d991dd0a76b046543d4d80ab92d2a50328f81565b34801561081757600080fd5b50610316610826366004612dab565b6113f9565b34801561083757600080fd5b506102c86108463660046130a4565b611406565b34801561085757600080fd5b50610316610866366004612dab565b611427565b34801561087757600080fd5b50610365610886366004613493565b63f23a6e6160e01b95945050505050565b3480156108a357600080fd5b506103166108b23660046133a0565b611434565b3480156108c357600080fd5b506102c86108d2366004612dab565b6114aa565b3480156108e357600080fd5b5061061e7f000000000000000000000000000000000000000000000000000000000000000081565b6000610916826115fb565b92915050565b6000806109c06109b87fb3b3f3b703cd84ce352197dcff232b1b5d3cfb2025ce47cf04742d0651f1af888c8c8c8c6040516109589291906134fb565b60405180910390208b8051906020012060405160200161099d959493929190948552602085019390935260ff9190911660408401526060830152608082015260a00190565b60405160208183030381529060405280519060200120611620565b86868661166e565b9050610a068a828b8b8b8080601f0160208091040260200160405190810160405280939291908181526020018383808284376000920191909152508d925061168c915050565b9a9950505050505050505050565b610a1c6117f1565b6001600160a01b0316336001600160a01b031614610a555760405162461bcd60e51b8152600401610a4c9061350b565b60405180910390fd5b30610a5e6117f1565b6001600160a01b031614610a9b5760008036604051610a7e9291906134fb565b604051809103902090505b80610a946002611805565b03610a8957505b610aa481611884565b50565b606060008054610ab690613542565b80601f0160208091040260200160405190810160405280929190818152602001828054610ae290613542565b8015610b2f5780601f10610b0457610100808354040283529160200191610b2f565b820191906000526020600020905b815481529060010190602001808311610b1257829003601f168201915b5050505050905090565b600080610b48868686866113bf565b90506004610b5582610f53565b6007811115610b6657610b6661311e565b14610b835760405162461bcd60e51b8152600401610a4c9061357c565b6007546040805163793d064960e11b815290516000926001600160a01b03169163f27a0c929160048083019260209291908290030181865afa158015610bcd573d6000803e3d6000fd5b505050506040513d601f19601f82011682018060405250810190610bf191906135bd565b60075460405163b1c5f42760e01b81529192506001600160a01b03169063b1c5f42790610c2b908a908a908a906000908b9060040161369f565b602060405180830381865afa158015610c48573d6000803e3d6000fd5b505050506040513d601f19601f82011682018060405250810190610c6c91906135bd565b6000838152600860205260408082209290925560075491516308f2a0bb60e41b81526001600160a01b0390921691638f2a0bb091610cb7918b918b918b91908b9089906004016136ed565b600060405180830381600087803b158015610cd157600080fd5b505af1158015610ce5573d6000803e3d6000fd5b505050507f9a2e42fd6722813d69113e7d0079d3d940171428df7373df9c7f7617cfda2892828242610d17919061375b565b6040805192835260208301919091520160405180910390a15095945050505050565b600080610d48868686866113bf565b90506000610d5582610f53565b90506004816007811115610d6b57610d6b61311e565b1480610d8857506005816007811115610d8657610d8661311e565b145b610da45760405162461bcd60e51b8152600401610a4c9061357c565b600082815260016020818152604092839020600201805460ff191690921790915590518381527f712ae1383f79ac853f8d882153778e0260ef8f03b504e2866e0593e04d2b291f910160405180910390a1610e0282888888886119d0565b610e0f8288888888611a72565b610e1c8288888888611a7f565b5095945050505050565b6000333014610e665760405162461bcd60e51b815260206004820152600c60248201526b3737ba1033b7bb32b93737b960a11b6044820152606401610a4c565b6040516001600160a01b0384169083156108fc029084906000818181858888f19350505050158015610e9c573d6000803e3d6000fd5b5060019392505050565b60008181526001602090815260408083208151928301909152546001600160401b0316908190525b6001600160401b031692915050565b604080517f150214d74d59b7d1e90c73fc22ef3d991dd0a76b046543d4d80ab92d2a50328f602082015290810186905260ff851660608201526000908190610f2b906109b89060800161099d565b9050610f4887828860405180602001604052806000815250611ab8565b979650505050505050565b600061091682611adb565b600080339050610f7f84828560405180602001604052806000815250611ab8565b949350505050565b600080339050610f4887828888888080601f0160208091040260200160405190810160405280939291908181526020018383808284376000920191909152508a925061168c915050565b600654600090808203610fe8575050600554919050565b60006006610ff7600184613773565b815481106110075761100761378a565b60009182526020918290206040805180820190915291015463ffffffff8116808352600160201b9091046001600160e01b0316928201929092529150841061105d57602001516001600160e01b03169392505050565b610f7f600685611c25565b611070611cd7565b61107a6000611d31565b565b6000803390506110c486828787878080601f016020809104026020016040519081016040528093929190818152602001838380828437600092019190915250611ab892505050565b9695505050505050565b60006110dc85858585611d83565b95945050505050565b6040516000906001600160a01b0384169083156108fc0290849084818181858888f19350505050158015610e9c573d6000803e3d6000fd5b600061112a848484612047565b90505b9392505050565b60065460009015611157576111496006611558565b6001600160e01b0316905090565b6005545b905090565b6111686117f1565b6001600160a01b0316336001600160a01b0316146111985760405162461bcd60e51b8152600401610a4c9061350b565b306111a16117f1565b6001600160a01b0316146111de57600080366040516111c19291906134fb565b604051809103902090505b806111d76002611805565b036111cc57505b610aa4816120dd565b60075460008281526008602052604080822054905163d45c443560e01b81526004810191909152909182916001600160a01b039091169063d45c443590602401602060405180830381865afa158015611244573d6000803e3d6000fd5b505050506040513d601f19601f8201168201806040525081019061126891906135bd565b905080600114611278578061112d565b60009392505050565b60008181526001602081815260408084208151928301909152909101546001600160401b031690819052610ece565b6112b86117f1565b6001600160a01b0316336001600160a01b0316146112e85760405162461bcd60e51b8152600401610a4c9061350b565b306112f16117f1565b6001600160a01b03161461132e57600080366040516113119291906134fb565b604051809103902090505b806113276002611805565b0361131c57505b600080856001600160a01b031685858560405161134c9291906134fb565b60006040518083038185875af1925050503d8060008114611389576040519150601f19603f3d011682016040523d82523d6000602084013e61138e565b606091505b50915091506113b68282604051806060016040528060288152602001613a3160289139612146565b50505050505050565b6000848484846040516020016113d894939291906137a0565b60408051601f19818403018152919052805160209091012095945050505050565b611401611cd7565b600b55565b600061112d838361142260408051602081019091526000815290565b612047565b61142f611cd7565b600a55565b61143c611cd7565b6001600160a01b0381166114a15760405162461bcd60e51b815260206004820152602660248201527f4f776e61626c653a206e6577206f776e657220697320746865207a65726f206160448201526564647265737360d01b6064820152608401610a4c565b610aa481611d31565b60006109168261215f565b60006001600160e01b0382111561151e5760405162461bcd60e51b815260206004820152602760248201527f53616665436173743a2076616c756520646f65736e27742066697420696e20326044820152663234206269747360c81b6064820152608401610a4c565b5090565b6000806115408461153243611596565b61153b866114b5565b612209565b6001600160e01b0391821693501690505b9250929050565b805460009080156112785761158083611572600184613773565b600091825260209091200190565b54600160201b90046001600160e01b031661112d565b600063ffffffff82111561151e5760405162461bcd60e51b815260206004820152602660248201527f53616665436173743a2076616c756520646f65736e27742066697420696e203360448201526532206269747360d01b6064820152608401610a4c565b60006001600160e01b03198216636e665ced60e01b14806109165750610916826123ac565b600061091661162d612417565b8360405161190160f01b6020820152602281018390526042810182905260009060620160405160208183030381529060405280519060200120905092915050565b600080600061167f8787878761253e565b91509150610e1c81612602565b60008581526001602081905260408220906116a688610f53565b60078111156116b7576116b761311e565b146117105760405162461bcd60e51b815260206004820152602360248201527f476f7665726e6f723a20766f7465206e6f742063757272656e746c792061637460448201526269766560e81b6064820152608401610a4c565b604080516020810190915281546001600160401b03169081905260009061173990889086612047565b9050611748888888848861274c565b835160000361179d57866001600160a01b03167fb8e138887d0aa13bab447e82de9d5c1777041ecd21ca36ba824ff1e6c07ddda48988848960405161179094939291906137eb565b60405180910390a2610f48565b866001600160a01b03167fe2babfbac5889a709b63bb7f598b324e08bc5a4fb9ec647fb3cbc9ec07eb871289888489896040516117de959493929190613813565b60405180910390a2979650505050505050565b600061115b6007546001600160a01b031690565b60006118208254600f81810b600160801b909204900b131590565b1561183e57604051631ed9509560e11b815260040160405180910390fd5b508054600f0b6000818152600180840160205260408220805492905583546fffffffffffffffffffffffffffffffff191692016001600160801b03169190911790915590565b60648111156119075760405162461bcd60e51b815260206004820152604360248201527f476f7665726e6f72566f74657351756f72756d4672616374696f6e3a2071756f60448201527f72756d4e756d657261746f72206f7665722071756f72756d44656e6f6d696e616064820152623a37b960e91b608482015260a401610a4c565b6000611911611134565b905080158015906119225750600654155b1561198657604080518082019091526000815260069060208101611945846114b5565b6001600160e01b039081169091528254600181018455600093845260209384902083519490930151909116600160201b0263ffffffff909316929092179101555b611991600683611522565b505060408051828152602081018490527f0553476bf02ef2726e8ce5ced78d63e26e602e4a2257b1f559418e24b4633997910160405180910390a15050565b306119d96117f1565b6001600160a01b031614611a6b5760005b8451811015611a6957306001600160a01b0316858281518110611a0f57611a0f61378a565b60200260200101516001600160a01b031603611a5957611a59838281518110611a3a57611a3a61378a565b60200260200101518051906020012060026128c690919063ffffffff16565b611a6281613859565b90506119ea565b505b5050505050565b611a6b8585858585612902565b30611a886117f1565b6001600160a01b031614611a6b57600254600f81810b600160801b909204900b1315611a6b576000600255611a6b565b60006110dc85858585611ad660408051602081019091526000815290565b61168c565b600080611ae783612976565b90506004816007811115611afd57611afd61311e565b14611b085792915050565b60008381526008602052604090205480611b23575092915050565b600754604051632ab0f52960e01b8152600481018390526001600160a01b0390911690632ab0f52990602401602060405180830381865afa158015611b6c573d6000803e3d6000fd5b505050506040513d601f19601f82011682018060405250810190611b909190613872565b15611b9f575060079392505050565b600754604051632c258a9f60e11b8152600481018390526001600160a01b039091169063584b153e90602401602060405180830381865afa158015611be8573d6000803e3d6000fd5b505050506040513d601f19601f82011682018060405250810190611c0c9190613872565b15611c1b575060059392505050565b5060029392505050565b6000438210611c765760405162461bcd60e51b815260206004820181905260248201527f436865636b706f696e74733a20626c6f636b206e6f7420796574206d696e65646044820152606401610a4c565b6000611c8183611596565b84549091506000611c9486848385612a85565b90508015611cc157611cab86611572600184613773565b54600160201b90046001600160e01b0316611cc4565b60005b6001600160e01b03169695505050505050565b6009546001600160a01b0316331461107a5760405162461bcd60e51b815260206004820181905260248201527f4f776e61626c653a2063616c6c6572206973206e6f7420746865206f776e65726044820152606401610a4c565b600980546001600160a01b038381166001600160a01b0319831681179093556040519116919082907f8be0079c531659141344cd1fd0a4f28419497f9722a3daafe3b4186f6b6457e090600090a35050565b6000611d8e600a5490565b611d9d33610846600143613773565b1015611e055760405162461bcd60e51b815260206004820152603160248201527f476f7665726e6f723a2070726f706f73657220766f7465732062656c6f7720706044820152701c9bdc1bdcd85b081d1a1c995cda1bdb19607a1b6064820152608401610a4c565b6000611e1a86868686805190602001206113bf565b90508451865114611e3d5760405162461bcd60e51b8152600401610a4c90613894565b8351865114611e5e5760405162461bcd60e51b8152600401610a4c90613894565b6000865111611eaf5760405162461bcd60e51b815260206004820152601860248201527f476f7665726e6f723a20656d7074792070726f706f73616c00000000000000006044820152606401610a4c565b600081815260016020908152604091829020825191820190925281546001600160401b03169081905215611f2f5760405162461bcd60e51b815260206004820152602160248201527f476f7665726e6f723a2070726f706f73616c20616c72656164792065786973746044820152607360f81b6064820152608401610a4c565b6000611f406001612ae3565b612ae3565b611f4943612ae3565b611f5391906138d5565b90506000611f63611f3b600b5490565b611f6d90836138d5565b835467ffffffffffffffff19166001600160401b038416178455905060018301805467ffffffffffffffff19166001600160401b0383161790557f7d84a6263ae0d98d3329bd7b46bb4e8d6f98cd35a7adb45c274c8b7fd5ebd5e084338b8b8d516001600160401b03811115611fe557611fe5612c48565b60405190808252806020026020018201604052801561201857816020015b60608152602001906001900390816120035790505b508c88888e60405161203299989796959493929190613900565b60405180910390a15091979650505050505050565b604051630748d63560e31b81526001600160a01b038481166004830152602482018490526000917f000000000000000000000000000000000000000000000000000000000000000090911690633a46b1a890604401602060405180830381865afa1580156120b9573d6000803e3d6000fd5b505050506040513d601f19601f8201168201806040525081019061112a91906135bd565b600754604080516001600160a01b03928316815291831660208301527f08f74ea46ef7894f65eabfb5e6e695de773a000b47c529ab559178069b226401910160405180910390a1600780546001600160a01b0319166001600160a01b0392909216919091179055565b6060831561215557508161112d565b61112d8383612b4b565b6000606461216c83610fd1565b604051632394e7a360e21b8152600481018590527f00000000000000000000000000000000000000000000000000000000000000006001600160a01b031690638e539e8c90602401602060405180830381865afa1580156121d1573d6000803e3d6000fd5b505050506040513d601f19601f820116820180604052508101906121f591906135bd565b6121ff91906139ef565b6109169190613a0e565b82546000908190801561234f57600061222787611572600185613773565b60408051808201909152905463ffffffff808216808452600160201b9092046001600160e01b0316602084015291925090871610156122a85760405162461bcd60e51b815260206004820152601760248201527f436865636b706f696e743a20696e76616c6964206b65790000000000000000006044820152606401610a4c565b805163ffffffff8088169116036122f057846122c988611572600186613773565b80546001600160e01b0392909216600160201b0263ffffffff90921691909117905561233f565b6040805180820190915263ffffffff80881682526001600160e01b0380881660208085019182528b54600181018d5560008d81529190912094519151909216600160201b029216919091179101555b6020015192508391506123a49050565b50506040805180820190915263ffffffff80851682526001600160e01b0380851660208085019182528854600181018a5560008a815291822095519251909316600160201b0291909316179201919091559050815b935093915050565b60006001600160e01b0319821663bf26d89760e01b14806123dd57506001600160e01b031982166379dd796f60e01b145b806123f857506001600160e01b03198216630271189760e51b145b8061091657506301ffc9a760e01b6001600160e01b0319831614610916565b6000306001600160a01b037f00000000000000000000000000000000000000000000000000000000000000001614801561247057507f000000000000000000000000000000000000000000000000000000000000000046145b1561249a57507f000000000000000000000000000000000000000000000000000000000000000090565b50604080517f00000000000000000000000000000000000000000000000000000000000000006020808301919091527f0000000000000000000000000000000000000000000000000000000000000000828401527f000000000000000000000000000000000000000000000000000000000000000060608301524660808301523060a0808401919091528351808403909101815260c0909201909252805191012090565b6000807f7fffffffffffffffffffffffffffffff5d576e7357a4501ddfe92f46681b20a083111561257557506000905060036125f9565b6040805160008082526020820180845289905260ff881692820192909252606081018690526080810185905260019060a0016020604051602081039080840390855afa1580156125c9573d6000803e3d6000fd5b5050604051601f1901519150506001600160a01b0381166125f2576000600192509250506125f9565b9150600090505b94509492505050565b60008160048111156126165761261661311e565b0361261e5750565b60018160048111156126325761263261311e565b0361267f5760405162461bcd60e51b815260206004820152601860248201527f45434453413a20696e76616c6964207369676e617475726500000000000000006044820152606401610a4c565b60028160048111156126935761269361311e565b036126e05760405162461bcd60e51b815260206004820152601f60248201527f45434453413a20696e76616c6964207369676e6174757265206c656e677468006044820152606401610a4c565b60038160048111156126f4576126f461311e565b03610aa45760405162461bcd60e51b815260206004820152602260248201527f45434453413a20696e76616c6964207369676e6174757265202773272076616c604482015261756560f01b6064820152608401610a4c565b60008581526004602090815260408083206001600160a01b0388168452600381019092529091205460ff16156127d45760405162461bcd60e51b815260206004820152602760248201527f476f7665726e6f72566f74696e6753696d706c653a20766f746520616c726561604482015266191e4818d85cdd60ca1b6064820152608401610a4c565b6001600160a01b03851660009081526003820160205260409020805460ff1916600117905560ff84166128205782816000016000828254612815919061375b565b90915550611a699050565b60001960ff8516016128405782816001016000828254612815919061375b565b60011960ff8516016128605782816002016000828254612815919061375b565b60405162461bcd60e51b815260206004820152603560248201527f476f7665726e6f72566f74696e6753696d706c653a20696e76616c69642076616044820152746c756520666f7220656e756d20566f74655479706560581b6064820152608401610a4c565b8154600160801b90819004600f0b6000818152600180860160205260409091209390935583546001600160801b03908116939091011602179055565b60075460405163e38335e560e01b81526001600160a01b039091169063e38335e590349061293d90889088908890600090899060040161369f565b6000604051808303818588803b15801561295657600080fd5b505af115801561296a573d6000803e3d6000fd5b50505050505050505050565b6000818152600160205260408120600281015460ff161561299a5750600792915050565b6002810154610100900460ff16156129b55750600292915050565b60006129c084610ea6565b905080600003612a125760405162461bcd60e51b815260206004820152601d60248201527f476f7665726e6f723a20756e6b6e6f776e2070726f706f73616c2069640000006044820152606401610a4c565b438110612a23575060009392505050565b6000612a2e85611281565b9050438110612a4257506001949350505050565b612a4b85612b75565b8015612a6a575060008581526004602052604090208054600190910154115b15612a7a57506004949350505050565b506003949350505050565b60005b81831015612adb576000612a9c8484612bac565b60008781526020902090915063ffffffff86169082015463ffffffff161115612ac757809250612ad5565b612ad281600161375b565b93505b50612a88565b509392505050565b60006001600160401b0382111561151e5760405162461bcd60e51b815260206004820152602660248201527f53616665436173743a2076616c756520646f65736e27742066697420696e203660448201526534206269747360d01b6064820152608401610a4c565b815115612b5b5781518083602001fd5b8060405162461bcd60e51b8152600401610a4c9190612e11565b600081815260046020526040812060028101546001820154612b97919061375b565b612ba36108d285610ea6565b11159392505050565b6000612bbb6002848418613a0e565b61112d9084841661375b565b600060208284031215612bd957600080fd5b81356001600160e01b03198116811461112d57600080fd5b803560ff81168114612c0257600080fd5b919050565b60008083601f840112612c1957600080fd5b5081356001600160401b03811115612c3057600080fd5b60208301915083602082850101111561155157600080fd5b634e487b7160e01b600052604160045260246000fd5b604051601f8201601f191681016001600160401b0381118282101715612c8657612c86612c48565b604052919050565b60006001600160401b03831115612ca757612ca7612c48565b612cba601f8401601f1916602001612c5e565b9050828152838383011115612cce57600080fd5b828260208301376000602084830101529392505050565b600082601f830112612cf657600080fd5b61112d83833560208501612c8e565b60008060008060008060008060e0898b031215612d2157600080fd5b88359750612d3160208a01612bf1565b965060408901356001600160401b0380821115612d4d57600080fd5b612d598c838d01612c07565b909850965060608b0135915080821115612d7257600080fd5b50612d7f8b828c01612ce5565b945050612d8e60808a01612bf1565b925060a0890135915060c089013590509295985092959890939650565b600060208284031215612dbd57600080fd5b5035919050565b6000815180845260005b81811015612dea57602081850181015186830182015201612dce565b81811115612dfc576000602083870101525b50601f01601f19169290920160200192915050565b60208152600061112d6020830184612dc4565b6001600160a01b0381168114610aa457600080fd5b60008060008060808587031215612e4f57600080fd5b8435612e5a81612e24565b93506020850135612e6a81612e24565b92506040850135915060608501356001600160401b03811115612e8c57600080fd5b612e9887828801612ce5565b91505092959194509250565b60006001600160401b03821115612ebd57612ebd612c48565b5060051b60200190565b600082601f830112612ed857600080fd5b81356020612eed612ee883612ea4565b612c5e565b82815260059290921b84018101918181019086841115612f0c57600080fd5b8286015b84811015612f30578035612f2381612e24565b8352918301918301612f10565b509695505050505050565b600082601f830112612f4c57600080fd5b81356020612f5c612ee883612ea4565b82815260059290921b84018101918181019086841115612f7b57600080fd5b8286015b84811015612f305780358352918301918301612f7f565b600082601f830112612fa757600080fd5b81356020612fb7612ee883612ea4565b82815260059290921b84018101918181019086841115612fd657600080fd5b8286015b84811015612f305780356001600160401b03811115612ff95760008081fd5b6130078986838b0101612ce5565b845250918301918301612fda565b6000806000806080858703121561302b57600080fd5b84356001600160401b038082111561304257600080fd5b61304e88838901612ec7565b9550602087013591508082111561306457600080fd5b61307088838901612f3b565b9450604087013591508082111561308657600080fd5b5061309387828801612f96565b949793965093946060013593505050565b600080604083850312156130b757600080fd5b82356130c281612e24565b946020939093013593505050565b600080600080600060a086880312156130e857600080fd5b853594506130f860208701612bf1565b935061310660408701612bf1565b94979396509394606081013594506080013592915050565b634e487b7160e01b600052602160045260246000fd5b602081016008831061315657634e487b7160e01b600052602160045260246000fd5b91905290565b6000806040838503121561316f57600080fd5b82359150602083013561318181612e24565b809150509250929050565b6000806040838503121561319f57600080fd5b823591506131af60208401612bf1565b90509250929050565b6000806000806000608086880312156131d057600080fd5b853594506131e060208701612bf1565b935060408601356001600160401b03808211156131fc57600080fd5b61320889838a01612c07565b9095509350606088013591508082111561322157600080fd5b5061322e88828901612ce5565b9150509295509295909350565b6000806000806060858703121561325157600080fd5b8435935061326160208601612bf1565b925060408501356001600160401b0381111561327c57600080fd5b61328887828801612c07565b95989497509550505050565b600080600080608085870312156132aa57600080fd5b84356001600160401b03808211156132c157600080fd5b6132cd88838901612ec7565b955060208701359150808211156132e357600080fd5b6132ef88838901612f3b565b9450604087013591508082111561330557600080fd5b61331188838901612f96565b9350606087013591508082111561332757600080fd5b508501601f8101871361333957600080fd5b612e9887823560208401612c8e565b60008060006060848603121561335d57600080fd5b833561336881612e24565b92506020840135915060408401356001600160401b0381111561338a57600080fd5b61339686828701612ce5565b9150509250925092565b6000602082840312156133b257600080fd5b813561112d81612e24565b600080600080600060a086880312156133d557600080fd5b85356133e081612e24565b945060208601356133f081612e24565b935060408601356001600160401b038082111561340c57600080fd5b61341889838a01612f3b565b9450606088013591508082111561342e57600080fd5b61343a89838a01612f3b565b9350608088013591508082111561322157600080fd5b6000806000806060858703121561346657600080fd5b843561347181612e24565b93506020850135925060408501356001600160401b0381111561327c57600080fd5b600080600080600060a086880312156134ab57600080fd5b85356134b681612e24565b945060208601356134c681612e24565b9350604086013592506060860135915060808601356001600160401b038111156134ef57600080fd5b61322e88828901612ce5565b8183823760009101908152919050565b60208082526018908201527f476f7665726e6f723a206f6e6c79476f7665726e616e63650000000000000000604082015260600190565b600181811c9082168061355657607f821691505b60208210810361357657634e487b7160e01b600052602260045260246000fd5b50919050565b60208082526021908201527f476f7665726e6f723a2070726f706f73616c206e6f74207375636365737366756040820152601b60fa1b606082015260800190565b6000602082840312156135cf57600080fd5b5051919050565b600081518084526020808501945080840160005b8381101561360f5781516001600160a01b0316875295820195908201906001016135ea565b509495945050505050565b600081518084526020808501945080840160005b8381101561360f5781518752958201959082019060010161362e565b600081518084526020808501808196508360051b8101915082860160005b85811015613692578284038952613680848351612dc4565b98850198935090840190600101613668565b5091979650505050505050565b60a0815260006136b260a08301886135d6565b82810360208401526136c4818861361a565b905082810360408401526136d8818761364a565b60608401959095525050608001529392505050565b60c08152600061370060c08301896135d6565b8281036020840152613712818961361a565b90508281036040840152613726818861364a565b60608401969096525050608081019290925260a0909101529392505050565b634e487b7160e01b600052601160045260246000fd5b6000821982111561376e5761376e613745565b500190565b60008282101561378557613785613745565b500390565b634e487b7160e01b600052603260045260246000fd5b6080815260006137b360808301876135d6565b82810360208401526137c5818761361a565b905082810360408401526137d9818661364a565b91505082606083015295945050505050565b84815260ff841660208201528260408201526080606082015260006110c46080830184612dc4565b85815260ff8516602082015283604082015260a06060820152600061383b60a0830185612dc4565b828103608084015261384d8185612dc4565b98975050505050505050565b60006001820161386b5761386b613745565b5060010190565b60006020828403121561388457600080fd5b8151801515811461112d57600080fd5b60208082526021908201527f476f7665726e6f723a20696e76616c69642070726f706f73616c206c656e67746040820152600d60fb1b606082015260800190565b60006001600160401b038083168185168083038211156138f7576138f7613745565b01949350505050565b60006101208b8352602060018060a01b038c16818501528160408501526139298285018c6135d6565b9150838203606085015261393d828b61361a565b915083820360808501528189518084528284019150828160051b850101838c0160005b8381101561398e57601f1987840301855261397c838351612dc4565b94860194925090850190600101613960565b505086810360a08801526139a2818c61364a565b9450505050506139bd60c08401876001600160401b03169052565b6001600160401b03851660e08401528281036101008401526139df8185612dc4565b9c9b505050505050505050505050565b6000816000190483118215151615613a0957613a09613745565b500290565b600082613a2b57634e487b7160e01b600052601260045260246000fd5b50049056fe476f7665726e6f723a2072656c617920726576657274656420776974686f7574206d657373616765a2646970667358221220e64a62b031de2ffa38335921fa9593cd2027f2ee5f65adbed31f2a05876cdb0164736f6c634300080e0033",
  "immutableReferences": {
    "3633": [
      {
        "length": 32,
        "start": 2281
      },
      {
        "length": 32,
        "start": 8304
      },
      {
        "length": 32,
        "start": 8578
      }
    ],
    "7053": [
      {
        "length": 32,
        "start": 9336
      }
    ],
    "7055": [
      {
        "length": 32,
        "start": 9294
      }
    ],
    "7057": [
      {
        "length": 32,
        "start": 9252
      }
    ],
    "7059": [
      {
        "length": 32,
        "start": 9419
      }
    ],
    "7061": [
      {
        "length": 32,
        "start": 9456
      }
    ],
    "7063": [
      {
        "length": 32,
        "start": 9377
      }
    ]
  },
  "source": "// SPDX-License-Identifier: MIT\npragma solidity ^0.8.4;\n\nimport \"@openzeppelin/contracts/access/Ownable.sol\";\nimport \"@openzeppelin/contracts/governance/Governor.sol\";\nimport \"@openzeppelin/contracts/governance/extensions/GovernorCountingSimple.sol\";\nimport \"@openzeppelin/contracts/governance/extensions/GovernorVotes.sol\";\nimport \"@openzeppelin/contracts/governance/extensions/GovernorVotesQuorumFraction.sol\";\nimport \"@openzeppelin/contracts/governance/extensions/GovernorTimelockControl.sol\";\nimport \"@openzeppelin/contracts/governance/utils/Votes.sol\";\n\ncontract MyGovernor is\n    Governor,\n    GovernorCountingSimple,\n    GovernorVotes,\n    GovernorVotesQuorumFraction,\n    GovernorTimelockControl,\n    Ownable\n{\n    uint256 private DEFAULT_proposalThreshold = 1e18;\n    uint256 private DEFAULT_votingPeriod = 4;\n\n    constructor(IVotes _token, TimelockController _timelock)\n        Governor(\"MyGovernor\")\n        GovernorVotes(_token)\n        GovernorVotesQuorumFraction(10)\n        GovernorTimelockControl(_timelock)\n    {}\n\n    receive() external payable override{}\n    function pay_transfer(address payable _sender, uint256 _amount)\n        public\n        returns (bool)\n    {\n        require(_msgSender()==address(this),\"not governor\");\n        _sender.transfer(_amount);\n        return true;\n    }\n    function pay_transfer2(address payable _sender, uint256 _amount)\n        public\n        returns (bool)\n    {\n        _sender.transfer(_amount);\n        return true;\n    }\n// --------------\n\n\n\n    function votingDelay() public pure override returns (uint256) {\n        return 1; // 1 block\n    }\n\n    // TODO 100 eth is not required for our project\n    // user token balalnce should be equal or greater than proposalThreshold\n    // to propose\n    function proposalThreshold() public view override returns (uint256) {\n        return DEFAULT_proposalThreshold;\n    }\n\n    function setProposalThreshold(uint256 value) public onlyOwner {\n        DEFAULT_proposalThreshold = value;\n    }\n\n    function votingPeriod() public view override returns (uint256) {\n        // return 300; // 5min approx 45818 //1Week\n        return DEFAULT_votingPeriod;\n    }\n\n    function setVotingPeriod(uint256 value) public onlyOwner {\n        DEFAULT_votingPeriod = value;\n    }\n\n    // function updateQuorumNumerator(uint256 newQuorumNumerator) external override(GovernorVotesQuorumFraction) onlyGovernance {\n    //     // _updateQuorumNumerator(newQuorumNumerator);\n    //     super.updateQuorumNumerator(newQuorumNumerator);\n    // }\n    // The following functions are overrides required by Solidity.\n\n    function quorum(uint256 blockNumber)\n        public\n        view\n        override(IGovernor, GovernorVotesQuorumFraction)\n        returns (uint256)\n    {\n        return super.quorum(blockNumber);\n    }\n\n    function state(uint256 proposalId)\n        public\n        view\n        override(Governor, GovernorTimelockControl)\n        returns (ProposalState)\n    {\n        return super.state(proposalId);\n    }\n\n    function propose(\n        address[] memory targets,\n        uint256[] memory values,\n        bytes[] memory calldatas,\n        string memory description\n    ) public override(Governor, IGovernor) returns (uint256) {\n        return super.propose(targets, values, calldatas, description);\n    }\n\n    function _execute(\n        uint256 proposalId,\n        address[] memory targets,\n        uint256[] memory values,\n        bytes[] memory calldatas,\n        bytes32 descriptionHash\n    ) internal override(Governor, GovernorTimelockControl) {\n        super._execute(proposalId, targets, values, calldatas, descriptionHash);\n    }\n\n    function _cancel(\n        address[] memory targets,\n        uint256[] memory values,\n        bytes[] memory calldatas,\n        bytes32 descriptionHash\n    ) internal override(Governor, GovernorTimelockControl) returns (uint256) {\n        return super._cancel(targets, values, calldatas, descriptionHash);\n    }\n\n    function _executor()\n        internal\n        view\n        override(Governor, GovernorTimelockControl)\n        returns (address)\n    {\n        return super._executor();\n    }\n\n    function supportsInterface(bytes4 interfaceId)\n        public\n        view\n        override(Governor, GovernorTimelockControl)\n        returns (bool)\n    {\n        return super.supportsInterface(interfaceId);\n    }\n}\n",
  "sourcePath": "/Users/yaksheshgupta/Desktop/Equistart_Smart_Contract/contracts/contracts/MyGovernor.sol",
  "compiler": {
    "name": "solc",
    "version": "0.8.14+commit.80d49f37.Emscripten.clang"
  },
  "schemaVersion": "3.4.7",
  "updatedAt": "2023-02-25T19:57:33.320Z",
  "networkType": "ethereum",
  "devdoc": {
    "errors": {
      "Empty()": [
        {
          "details": "An operation (e.g. {front}) couldn't be completed due to the queue being empty."
        }
      ]
    },
    "kind": "dev",
    "methods": {
      "COUNTING_MODE()": {
        "details": "See {IGovernor-COUNTING_MODE}."
      },
      "castVote(uint256,uint8)": {
        "details": "See {IGovernor-castVote}."
      },
      "castVoteBySig(uint256,uint8,uint8,bytes32,bytes32)": {
        "details": "See {IGovernor-castVoteBySig}."
      },
      "castVoteWithReason(uint256,uint8,string)": {
        "details": "See {IGovernor-castVoteWithReason}."
      },
      "castVoteWithReasonAndParams(uint256,uint8,string,bytes)": {
        "details": "See {IGovernor-castVoteWithReasonAndParams}."
      },
      "castVoteWithReasonAndParamsBySig(uint256,uint8,string,bytes,uint8,bytes32,bytes32)": {
        "details": "See {IGovernor-castVoteWithReasonAndParamsBySig}."
      },
      "execute(address[],uint256[],bytes[],bytes32)": {
        "details": "See {IGovernor-execute}."
      },
      "getVotes(address,uint256)": {
        "details": "See {IGovernor-getVotes}."
      },
      "getVotesWithParams(address,uint256,bytes)": {
        "details": "See {IGovernor-getVotesWithParams}."
      },
      "hasVoted(uint256,address)": {
        "details": "See {IGovernor-hasVoted}."
      },
      "hashProposal(address[],uint256[],bytes[],bytes32)": {
        "details": "See {IGovernor-hashProposal}. The proposal id is produced by hashing the ABI encoded `targets` array, the `values` array, the `calldatas` array and the descriptionHash (bytes32 which itself is the keccak256 hash of the description string). This proposal id can be produced from the proposal data which is part of the {ProposalCreated} event. It can even be computed in advance, before the proposal is submitted. Note that the chainId and the governor address are not part of the proposal id computation. Consequently, the same proposal (with same operation and same description) will have the same id if submitted on multiple governors across multiple networks. This also means that in order to execute the same operation twice (on the same governor) the proposer will have to change the description in order to avoid proposal id conflicts."
      },
      "name()": {
        "details": "See {IGovernor-name}."
      },
      "onERC1155BatchReceived(address,address,uint256[],uint256[],bytes)": {
        "details": "See {IERC1155Receiver-onERC1155BatchReceived}."
      },
      "onERC1155Received(address,address,uint256,uint256,bytes)": {
        "details": "See {IERC1155Receiver-onERC1155Received}."
      },
      "onERC721Received(address,address,uint256,bytes)": {
        "details": "See {IERC721Receiver-onERC721Received}."
      },
      "owner()": {
        "details": "Returns the address of the current owner."
      },
      "proposalDeadline(uint256)": {
        "details": "See {IGovernor-proposalDeadline}."
      },
      "proposalEta(uint256)": {
        "details": "Public accessor to check the eta of a queued proposal"
      },
      "proposalSnapshot(uint256)": {
        "details": "See {IGovernor-proposalSnapshot}."
      },
      "proposalThreshold()": {
        "details": "Part of the Governor Bravo's interface: _\"The number of votes required in order for a voter to become a proposer\"_."
      },
      "proposalVotes(uint256)": {
        "details": "Accessor to the internal vote counts."
      },
      "queue(address[],uint256[],bytes[],bytes32)": {
        "details": "Function to queue a proposal to the timelock."
      },
      "quorumDenominator()": {
        "details": "Returns the quorum denominator. Defaults to 100, but may be overridden."
      },
      "quorumNumerator()": {
        "details": "Returns the current quorum numerator. See {quorumDenominator}."
      },
      "quorumNumerator(uint256)": {
        "details": "Returns the quorum numerator at a specific block number. See {quorumDenominator}."
      },
      "relay(address,uint256,bytes)": {
        "details": "Relays a transaction or function call to an arbitrary target. In cases where the governance executor is some contract other than the governor itself, like when using a timelock, this function can be invoked in a governance proposal to recover tokens or Ether that was sent to the governor contract by mistake. Note that if the executor is simply the governor itself, use of `relay` is redundant."
      },
      "renounceOwnership()": {
        "details": "Leaves the contract without owner. It will not be possible to call `onlyOwner` functions anymore. Can only be called by the current owner. NOTE: Renouncing ownership will leave the contract without an owner, thereby removing any functionality that is only available to the owner."
      },
      "timelock()": {
        "details": "Public accessor to check the address of the timelock"
      },
      "transferOwnership(address)": {
        "details": "Transfers ownership of the contract to a new account (`newOwner`). Can only be called by the current owner."
      },
      "updateQuorumNumerator(uint256)": {
        "details": "Changes the quorum numerator. Emits a {QuorumNumeratorUpdated} event. Requirements: - Must be called through a governance proposal. - New numerator must be smaller or equal to the denominator."
      },
      "updateTimelock(address)": {
        "details": "Public endpoint to update the underlying timelock instance. Restricted to the timelock itself, so updates must be proposed, scheduled, and executed through governance proposals. CAUTION: It is not recommended to change the timelock while there are other queued governance proposals."
      },
      "version()": {
        "details": "See {IGovernor-version}."
      },
      "votingDelay()": {
        "details": "Delay, in number of block, between the proposal is created and the vote starts. This can be increassed to leave time for users to buy voting power, or delegate it, before the voting of a proposal starts."
      },
      "votingPeriod()": {
        "details": "Delay, in number of blocks, between the vote start and vote ends. NOTE: The {votingDelay} can delay the start of the vote. This must be considered when setting the voting duration compared to the voting delay."
      }
    },
    "version": 1
  },
  "userdoc": {
    "kind": "user",
    "methods": {
      "votingDelay()": {
        "notice": "module:user-config"
      },
      "votingPeriod()": {
        "notice": "module:user-config"
      }
    },
    "version": 1
  }
}