{
  "contractName": "MyGovernor",
  "abi": [
    {
      "inputs": [
        {
          "internalType": "contract IVotes",
          "name": "_token",
          "type": "address"
        },
        {
          "internalType": "contract TimelockController",
          "name": "_timelock",
          "type": "address"
        }
      ],
      "stateMutability": "nonpayable",
      "type": "constructor"
    },
    {
      "inputs": [],
      "name": "Empty",
      "type": "error"
    },
    {
      "anonymous": false,
      "inputs": [
        {
          "indexed": true,
          "internalType": "address",
          "name": "previousOwner",
          "type": "address"
        },
        {
          "indexed": true,
          "internalType": "address",
          "name": "newOwner",
          "type": "address"
        }
      ],
      "name": "OwnershipTransferred",
      "type": "event"
    },
    {
      "anonymous": false,
      "inputs": [
        {
          "indexed": false,
          "internalType": "uint256",
          "name": "proposalId",
          "type": "uint256"
        }
      ],
      "name": "ProposalCanceled",
      "type": "event"
    },
    {
      "anonymous": false,
      "inputs": [
        {
          "indexed": false,
          "internalType": "uint256",
          "name": "proposalId",
          "type": "uint256"
        },
        {
          "indexed": false,
          "internalType": "address",
          "name": "proposer",
          "type": "address"
        },
        {
          "indexed": false,
          "internalType": "address[]",
          "name": "targets",
          "type": "address[]"
        },
        {
          "indexed": false,
          "internalType": "uint256[]",
          "name": "values",
          "type": "uint256[]"
        },
        {
          "indexed": false,
          "internalType": "string[]",
          "name": "signatures",
          "type": "string[]"
        },
        {
          "indexed": false,
          "internalType": "bytes[]",
          "name": "calldatas",
          "type": "bytes[]"
        },
        {
          "indexed": false,
          "internalType": "uint256",
          "name": "startBlock",
          "type": "uint256"
        },
        {
          "indexed": false,
          "internalType": "uint256",
          "name": "endBlock",
          "type": "uint256"
        },
        {
          "indexed": false,
          "internalType": "string",
          "name": "description",
          "type": "string"
        }
      ],
      "name": "ProposalCreated",
      "type": "event"
    },
    {
      "anonymous": false,
      "inputs": [
        {
          "indexed": false,
          "internalType": "uint256",
          "name": "proposalId",
          "type": "uint256"
        }
      ],
      "name": "ProposalExecuted",
      "type": "event"
    },
    {
      "anonymous": false,
      "inputs": [
        {
          "indexed": false,
          "internalType": "uint256",
          "name": "proposalId",
          "type": "uint256"
        },
        {
          "indexed": false,
          "internalType": "uint256",
          "name": "eta",
          "type": "uint256"
        }
      ],
      "name": "ProposalQueued",
      "type": "event"
    },
    {
      "anonymous": false,
      "inputs": [
        {
          "indexed": false,
          "internalType": "uint256",
          "name": "oldQuorumNumerator",
          "type": "uint256"
        },
        {
          "indexed": false,
          "internalType": "uint256",
          "name": "newQuorumNumerator",
          "type": "uint256"
        }
      ],
      "name": "QuorumNumeratorUpdated",
      "type": "event"
    },
    {
      "anonymous": false,
      "inputs": [
        {
          "indexed": false,
          "internalType": "address",
          "name": "oldTimelock",
          "type": "address"
        },
        {
          "indexed": false,
          "internalType": "address",
          "name": "newTimelock",
          "type": "address"
        }
      ],
      "name": "TimelockChange",
      "type": "event"
    },
    {
      "anonymous": false,
      "inputs": [
        {
          "indexed": true,
          "internalType": "address",
          "name": "voter",
          "type": "address"
        },
        {
          "indexed": false,
          "internalType": "uint256",
          "name": "proposalId",
          "type": "uint256"
        },
        {
          "indexed": false,
          "internalType": "uint8",
          "name": "support",
          "type": "uint8"
        },
        {
          "indexed": false,
          "internalType": "uint256",
          "name": "weight",
          "type": "uint256"
        },
        {
          "indexed": false,
          "internalType": "string",
          "name": "reason",
          "type": "string"
        }
      ],
      "name": "VoteCast",
      "type": "event"
    },
    {
      "anonymous": false,
      "inputs": [
        {
          "indexed": true,
          "internalType": "address",
          "name": "voter",
          "type": "address"
        },
        {
          "indexed": false,
          "internalType": "uint256",
          "name": "proposalId",
          "type": "uint256"
        },
        {
          "indexed": false,
          "internalType": "uint8",
          "name": "support",
          "type": "uint8"
        },
        {
          "indexed": false,
          "internalType": "uint256",
          "name": "weight",
          "type": "uint256"
        },
        {
          "indexed": false,
          "internalType": "string",
          "name": "reason",
          "type": "string"
        },
        {
          "indexed": false,
          "internalType": "bytes",
          "name": "params",
          "type": "bytes"
        }
      ],
      "name": "VoteCastWithParams",
      "type": "event"
    },
    {
      "inputs": [],
      "name": "BALLOT_TYPEHASH",
      "outputs": [
        {
          "internalType": "bytes32",
          "name": "",
          "type": "bytes32"
        }
      ],
      "stateMutability": "view",
      "type": "function"
    },
    {
      "inputs": [],
      "name": "COUNTING_MODE",
      "outputs": [
        {
          "internalType": "string",
          "name": "",
          "type": "string"
        }
      ],
      "stateMutability": "pure",
      "type": "function"
    },
    {
      "inputs": [],
      "name": "EXTENDED_BALLOT_TYPEHASH",
      "outputs": [
        {
          "internalType": "bytes32",
          "name": "",
          "type": "bytes32"
        }
      ],
      "stateMutability": "view",
      "type": "function"
    },
    {
      "inputs": [
        {
          "internalType": "uint256",
          "name": "proposalId",
          "type": "uint256"
        },
        {
          "internalType": "uint8",
          "name": "support",
          "type": "uint8"
        }
      ],
      "name": "castVote",
      "outputs": [
        {
          "internalType": "uint256",
          "name": "",
          "type": "uint256"
        }
      ],
      "stateMutability": "nonpayable",
      "type": "function"
    },
    {
      "inputs": [
        {
          "internalType": "uint256",
          "name": "proposalId",
          "type": "uint256"
        },
        {
          "internalType": "uint8",
          "name": "support",
          "type": "uint8"
        },
        {
          "internalType": "uint8",
          "name": "v",
          "type": "uint8"
        },
        {
          "internalType": "bytes32",
          "name": "r",
          "type": "bytes32"
        },
        {
          "internalType": "bytes32",
          "name": "s",
          "type": "bytes32"
        }
      ],
      "name": "castVoteBySig",
      "outputs": [
        {
          "internalType": "uint256",
          "name": "",
          "type": "uint256"
        }
      ],
      "stateMutability": "nonpayable",
      "type": "function"
    },
    {
      "inputs": [
        {
          "internalType": "uint256",
          "name": "proposalId",
          "type": "uint256"
        },
        {
          "internalType": "uint8",
          "name": "support",
          "type": "uint8"
        },
        {
          "internalType": "string",
          "name": "reason",
          "type": "string"
        }
      ],
      "name": "castVoteWithReason",
      "outputs": [
        {
          "internalType": "uint256",
          "name": "",
          "type": "uint256"
        }
      ],
      "stateMutability": "nonpayable",
      "type": "function"
    },
    {
      "inputs": [
        {
          "internalType": "uint256",
          "name": "proposalId",
          "type": "uint256"
        },
        {
          "internalType": "uint8",
          "name": "support",
          "type": "uint8"
        },
        {
          "internalType": "string",
          "name": "reason",
          "type": "string"
        },
        {
          "internalType": "bytes",
          "name": "params",
          "type": "bytes"
        }
      ],
      "name": "castVoteWithReasonAndParams",
      "outputs": [
        {
          "internalType": "uint256",
          "name": "",
          "type": "uint256"
        }
      ],
      "stateMutability": "nonpayable",
      "type": "function"
    },
    {
      "inputs": [
        {
          "internalType": "uint256",
          "name": "proposalId",
          "type": "uint256"
        },
        {
          "internalType": "uint8",
          "name": "support",
          "type": "uint8"
        },
        {
          "internalType": "string",
          "name": "reason",
          "type": "string"
        },
        {
          "internalType": "bytes",
          "name": "params",
          "type": "bytes"
        },
        {
          "internalType": "uint8",
          "name": "v",
          "type": "uint8"
        },
        {
          "internalType": "bytes32",
          "name": "r",
          "type": "bytes32"
        },
        {
          "internalType": "bytes32",
          "name": "s",
          "type": "bytes32"
        }
      ],
      "name": "castVoteWithReasonAndParamsBySig",
      "outputs": [
        {
          "internalType": "uint256",
          "name": "",
          "type": "uint256"
        }
      ],
      "stateMutability": "nonpayable",
      "type": "function"
    },
    {
      "inputs": [
        {
          "internalType": "address[]",
          "name": "targets",
          "type": "address[]"
        },
        {
          "internalType": "uint256[]",
          "name": "values",
          "type": "uint256[]"
        },
        {
          "internalType": "bytes[]",
          "name": "calldatas",
          "type": "bytes[]"
        },
        {
          "internalType": "bytes32",
          "name": "descriptionHash",
          "type": "bytes32"
        }
      ],
      "name": "execute",
      "outputs": [
        {
          "internalType": "uint256",
          "name": "",
          "type": "uint256"
        }
      ],
      "stateMutability": "payable",
      "type": "function"
    },
    {
      "inputs": [
        {
          "internalType": "address",
          "name": "account",
          "type": "address"
        },
        {
          "internalType": "uint256",
          "name": "blockNumber",
          "type": "uint256"
        }
      ],
      "name": "getVotes",
      "outputs": [
        {
          "internalType": "uint256",
          "name": "",
          "type": "uint256"
        }
      ],
      "stateMutability": "view",
      "type": "function"
    },
    {
      "inputs": [
        {
          "internalType": "address",
          "name": "account",
          "type": "address"
        },
        {
          "internalType": "uint256",
          "name": "blockNumber",
          "type": "uint256"
        },
        {
          "internalType": "bytes",
          "name": "params",
          "type": "bytes"
        }
      ],
      "name": "getVotesWithParams",
      "outputs": [
        {
          "internalType": "uint256",
          "name": "",
          "type": "uint256"
        }
      ],
      "stateMutability": "view",
      "type": "function"
    },
    {
      "inputs": [
        {
          "internalType": "uint256",
          "name": "proposalId",
          "type": "uint256"
        },
        {
          "internalType": "address",
          "name": "account",
          "type": "address"
        }
      ],
      "name": "hasVoted",
      "outputs": [
        {
          "internalType": "bool",
          "name": "",
          "type": "bool"
        }
      ],
      "stateMutability": "view",
      "type": "function"
    },
    {
      "inputs": [
        {
          "internalType": "address[]",
          "name": "targets",
          "type": "address[]"
        },
        {
          "internalType": "uint256[]",
          "name": "values",
          "type": "uint256[]"
        },
        {
          "internalType": "bytes[]",
          "name": "calldatas",
          "type": "bytes[]"
        },
        {
          "internalType": "bytes32",
          "name": "descriptionHash",
          "type": "bytes32"
        }
      ],
      "name": "hashProposal",
      "outputs": [
        {
          "internalType": "uint256",
          "name": "",
          "type": "uint256"
        }
      ],
      "stateMutability": "pure",
      "type": "function"
    },
    {
      "inputs": [],
      "name": "name",
      "outputs": [
        {
          "internalType": "string",
          "name": "",
          "type": "string"
        }
      ],
      "stateMutability": "view",
      "type": "function"
    },
    {
      "inputs": [
        {
          "internalType": "address",
          "name": "",
          "type": "address"
        },
        {
          "internalType": "address",
          "name": "",
          "type": "address"
        },
        {
          "internalType": "uint256[]",
          "name": "",
          "type": "uint256[]"
        },
        {
          "internalType": "uint256[]",
          "name": "",
          "type": "uint256[]"
        },
        {
          "internalType": "bytes",
          "name": "",
          "type": "bytes"
        }
      ],
      "name": "onERC1155BatchReceived",
      "outputs": [
        {
          "internalType": "bytes4",
          "name": "",
          "type": "bytes4"
        }
      ],
      "stateMutability": "nonpayable",
      "type": "function"
    },
    {
      "inputs": [
        {
          "internalType": "address",
          "name": "",
          "type": "address"
        },
        {
          "internalType": "address",
          "name": "",
          "type": "address"
        },
        {
          "internalType": "uint256",
          "name": "",
          "type": "uint256"
        },
        {
          "internalType": "uint256",
          "name": "",
          "type": "uint256"
        },
        {
          "internalType": "bytes",
          "name": "",
          "type": "bytes"
        }
      ],
      "name": "onERC1155Received",
      "outputs": [
        {
          "internalType": "bytes4",
          "name": "",
          "type": "bytes4"
        }
      ],
      "stateMutability": "nonpayable",
      "type": "function"
    },
    {
      "inputs": [
        {
          "internalType": "address",
          "name": "",
          "type": "address"
        },
        {
          "internalType": "address",
          "name": "",
          "type": "address"
        },
        {
          "internalType": "uint256",
          "name": "",
          "type": "uint256"
        },
        {
          "internalType": "bytes",
          "name": "",
          "type": "bytes"
        }
      ],
      "name": "onERC721Received",
      "outputs": [
        {
          "internalType": "bytes4",
          "name": "",
          "type": "bytes4"
        }
      ],
      "stateMutability": "nonpayable",
      "type": "function"
    },
    {
      "inputs": [],
      "name": "owner",
      "outputs": [
        {
          "internalType": "address",
          "name": "",
          "type": "address"
        }
      ],
      "stateMutability": "view",
      "type": "function"
    },
    {
      "inputs": [
        {
          "internalType": "uint256",
          "name": "proposalId",
          "type": "uint256"
        }
      ],
      "name": "proposalDeadline",
      "outputs": [
        {
          "internalType": "uint256",
          "name": "",
          "type": "uint256"
        }
      ],
      "stateMutability": "view",
      "type": "function"
    },
    {
      "inputs": [
        {
          "internalType": "uint256",
          "name": "proposalId",
          "type": "uint256"
        }
      ],
      "name": "proposalEta",
      "outputs": [
        {
          "internalType": "uint256",
          "name": "",
          "type": "uint256"
        }
      ],
      "stateMutability": "view",
      "type": "function"
    },
    {
      "inputs": [
        {
          "internalType": "uint256",
          "name": "proposalId",
          "type": "uint256"
        }
      ],
      "name": "proposalSnapshot",
      "outputs": [
        {
          "internalType": "uint256",
          "name": "",
          "type": "uint256"
        }
      ],
      "stateMutability": "view",
      "type": "function"
    },
    {
      "inputs": [
        {
          "internalType": "uint256",
          "name": "proposalId",
          "type": "uint256"
        }
      ],
      "name": "proposalVotes",
      "outputs": [
        {
          "internalType": "uint256",
          "name": "againstVotes",
          "type": "uint256"
        },
        {
          "internalType": "uint256",
          "name": "forVotes",
          "type": "uint256"
        },
        {
          "internalType": "uint256",
          "name": "abstainVotes",
          "type": "uint256"
        }
      ],
      "stateMutability": "view",
      "type": "function"
    },
    {
      "inputs": [
        {
          "internalType": "address[]",
          "name": "targets",
          "type": "address[]"
        },
        {
          "internalType": "uint256[]",
          "name": "values",
          "type": "uint256[]"
        },
        {
          "internalType": "bytes[]",
          "name": "calldatas",
          "type": "bytes[]"
        },
        {
          "internalType": "bytes32",
          "name": "descriptionHash",
          "type": "bytes32"
        }
      ],
      "name": "queue",
      "outputs": [
        {
          "internalType": "uint256",
          "name": "",
          "type": "uint256"
        }
      ],
      "stateMutability": "nonpayable",
      "type": "function"
    },
    {
      "inputs": [],
      "name": "quorumDenominator",
      "outputs": [
        {
          "internalType": "uint256",
          "name": "",
          "type": "uint256"
        }
      ],
      "stateMutability": "view",
      "type": "function"
    },
    {
      "inputs": [
        {
          "internalType": "uint256",
          "name": "blockNumber",
          "type": "uint256"
        }
      ],
      "name": "quorumNumerator",
      "outputs": [
        {
          "internalType": "uint256",
          "name": "",
          "type": "uint256"
        }
      ],
      "stateMutability": "view",
      "type": "function"
    },
    {
      "inputs": [],
      "name": "quorumNumerator",
      "outputs": [
        {
          "internalType": "uint256",
          "name": "",
          "type": "uint256"
        }
      ],
      "stateMutability": "view",
      "type": "function"
    },
    {
      "inputs": [
        {
          "internalType": "address",
          "name": "target",
          "type": "address"
        },
        {
          "internalType": "uint256",
          "name": "value",
          "type": "uint256"
        },
        {
          "internalType": "bytes",
          "name": "data",
          "type": "bytes"
        }
      ],
      "name": "relay",
      "outputs": [],
      "stateMutability": "payable",
      "type": "function"
    },
    {
      "inputs": [],
      "name": "renounceOwnership",
      "outputs": [],
      "stateMutability": "nonpayable",
      "type": "function"
    },
    {
      "inputs": [],
      "name": "timelock",
      "outputs": [
        {
          "internalType": "address",
          "name": "",
          "type": "address"
        }
      ],
      "stateMutability": "view",
      "type": "function"
    },
    {
      "inputs": [],
      "name": "token",
      "outputs": [
        {
          "internalType": "contract IVotes",
          "name": "",
          "type": "address"
        }
      ],
      "stateMutability": "view",
      "type": "function"
    },
    {
      "inputs": [
        {
          "internalType": "address",
          "name": "newOwner",
          "type": "address"
        }
      ],
      "name": "transferOwnership",
      "outputs": [],
      "stateMutability": "nonpayable",
      "type": "function"
    },
    {
      "inputs": [
        {
          "internalType": "uint256",
          "name": "newQuorumNumerator",
          "type": "uint256"
        }
      ],
      "name": "updateQuorumNumerator",
      "outputs": [],
      "stateMutability": "nonpayable",
      "type": "function"
    },
    {
      "inputs": [
        {
          "internalType": "contract TimelockController",
          "name": "newTimelock",
          "type": "address"
        }
      ],
      "name": "updateTimelock",
      "outputs": [],
      "stateMutability": "nonpayable",
      "type": "function"
    },
    {
      "inputs": [],
      "name": "version",
      "outputs": [
        {
          "internalType": "string",
          "name": "",
          "type": "string"
        }
      ],
      "stateMutability": "view",
      "type": "function"
    },
    {
      "stateMutability": "payable",
      "type": "receive"
    },
    {
      "inputs": [],
      "name": "votingDelay",
      "outputs": [
        {
          "internalType": "uint256",
          "name": "",
          "type": "uint256"
        }
      ],
      "stateMutability": "pure",
      "type": "function"
    },
    {
      "inputs": [],
      "name": "proposalThreshold",
      "outputs": [
        {
          "internalType": "uint256",
          "name": "",
          "type": "uint256"
        }
      ],
      "stateMutability": "view",
      "type": "function"
    },
    {
      "inputs": [
        {
          "internalType": "uint256",
          "name": "value",
          "type": "uint256"
        }
      ],
      "name": "setProposalThreshold",
      "outputs": [],
      "stateMutability": "nonpayable",
      "type": "function"
    },
    {
      "inputs": [],
      "name": "votingPeriod",
      "outputs": [
        {
          "internalType": "uint256",
          "name": "",
          "type": "uint256"
        }
      ],
      "stateMutability": "view",
      "type": "function"
    },
    {
      "inputs": [
        {
          "internalType": "uint256",
          "name": "value",
          "type": "uint256"
        }
      ],
      "name": "setVotingPeriod",
      "outputs": [],
      "stateMutability": "nonpayable",
      "type": "function"
    },
    {
      "inputs": [
        {
          "internalType": "uint256",
          "name": "blockNumber",
          "type": "uint256"
        }
      ],
      "name": "quorum",
      "outputs": [
        {
          "internalType": "uint256",
          "name": "",
          "type": "uint256"
        }
      ],
      "stateMutability": "view",
      "type": "function"
    },
    {
      "inputs": [
        {
          "internalType": "uint256",
          "name": "proposalId",
          "type": "uint256"
        }
      ],
      "name": "state",
      "outputs": [
        {
          "internalType": "enum IGovernor.ProposalState",
          "name": "",
          "type": "uint8"
        }
      ],
      "stateMutability": "view",
      "type": "function"
    },
    {
      "inputs": [
        {
          "internalType": "address[]",
          "name": "targets",
          "type": "address[]"
        },
        {
          "internalType": "uint256[]",
          "name": "values",
          "type": "uint256[]"
        },
        {
          "internalType": "bytes[]",
          "name": "calldatas",
          "type": "bytes[]"
        },
        {
          "internalType": "string",
          "name": "description",
          "type": "string"
        }
      ],
      "name": "propose",
      "outputs": [
        {
          "internalType": "uint256",
          "name": "",
          "type": "uint256"
        }
      ],
      "stateMutability": "nonpayable",
      "type": "function"
    },
    {
      "inputs": [
        {
          "internalType": "bytes4",
          "name": "interfaceId",
          "type": "bytes4"
        }
      ],
      "name": "supportsInterface",
      "outputs": [
        {
          "internalType": "bool",
          "name": "",
          "type": "bool"
        }
      ],
      "stateMutability": "view",
      "type": "function"
    }
  ],
  "bytecode": "0x610160604052670de0b6b3a7640000600a556004600b553480156200002357600080fd5b506040516200426e3803806200426e8339810160408190526200004691620007c7565b80600a836040518060400160405280600a81526020016926bca3b7bb32b93737b960b11b815250806200007e6200015e60201b60201c565b815160208084019190912082518383012060e08290526101008190524660a0818152604080517f8b73c3c69bb8fe3d512ecc4cf759cc79239f7b179b0ffacaa9a75d522b39400f81880181905281830187905260608201869052608082019490945230818401528151808203909301835260c00190528051940193909320919290916080523060c052610120525050825162000124925060009150602084019062000712565b50506001600160a01b0316610140526200013e8162000179565b506200014a81620002f5565b5062000156336200035e565b505062000868565b6040805180820190915260018152603160f81b602082015290565b6064811115620002025760405162461bcd60e51b815260206004820152604360248201527f476f7665726e6f72566f74657351756f72756d4672616374696f6e3a2071756f60448201527f72756d4e756d657261746f72206f7665722071756f72756d44656e6f6d696e616064820152623a37b960e91b608482015260a4015b60405180910390fd5b60006200020e620003b0565b90508015801590620002205750600654155b156200029b5760066000016040518060400160405280600063ffffffff1681526020016200025984620003e860201b620013d81760201c565b6001600160e01b0390811690915282546001810184556000938452602093849020835194909301519091166401000000000263ffffffff909316929092179101555b620002b68260066200045760201b620014451790919060201c565b505060408051828152602081018490527f0553476bf02ef2726e8ce5ced78d63e26e602e4a2257b1f559418e24b4633997910160405180910390a15050565b600754604080516001600160a01b03928316815291831660208301527f08f74ea46ef7894f65eabfb5e6e695de773a000b47c529ab559178069b226401910160405180910390a1600780546001600160a01b0319166001600160a01b0392909216919091179055565b600980546001600160a01b038381166001600160a01b0319831681179093556040519116919082907f8be0079c531659141344cd1fd0a4f28419497f9722a3daafe3b4186f6b6457e090600090a35050565b60065460009015620003e157620003d36006620004aa60201b6200147b1760201c565b6001600160e01b0316905090565b5060055490565b60006001600160e01b03821115620004535760405162461bcd60e51b815260206004820152602760248201527f53616665436173743a2076616c756520646f65736e27742066697420696e20326044820152663234206269747360c81b6064820152608401620001f9565b5090565b60008062000494846000016200047843620004f860201b620014b91760201c565b6200048e86620003e860201b620013d81760201c565b6200055f565b6001600160e01b03918216969116945092505050565b80546000908015620004ee57620004d683620004c860018462000806565b600091825260209091200190565b5464010000000090046001600160e01b0316620004f1565b60005b9392505050565b600063ffffffff821115620004535760405162461bcd60e51b815260206004820152602660248201527f53616665436173743a2076616c756520646f65736e27742066697420696e203360448201526532206269747360d01b6064820152608401620001f9565b825460009081908015620006b45760006200058187620004c860018562000806565b60408051808201909152905463ffffffff8082168084526401000000009092046001600160e01b031660208401529192509087161015620006055760405162461bcd60e51b815260206004820152601760248201527f436865636b706f696e743a20696e76616c6964206b65790000000000000000006044820152606401620001f9565b805163ffffffff8088169116036200065357846200062a88620004c860018662000806565b80546001600160e01b03929092166401000000000263ffffffff909216919091179055620006a3565b6040805180820190915263ffffffff80881682526001600160e01b0380881660208085019182528b54600181018d5560008d81529190912094519151909216640100000000029216919091179101555b6020015192508391506200070a9050565b50506040805180820190915263ffffffff80851682526001600160e01b0380851660208085019182528854600181018a5560008a8152918220955192519093166401000000000291909316179201919091559050815b935093915050565b82805462000720906200082c565b90600052602060002090601f0160209004810192826200074457600085556200078f565b82601f106200075f57805160ff19168380011785556200078f565b828001600101855582156200078f579182015b828111156200078f57825182559160200191906001019062000772565b50620004539291505b8082111562000453576000815560010162000798565b6001600160a01b0381168114620007c457600080fd5b50565b60008060408385031215620007db57600080fd5b8251620007e881620007ae565b6020840151909250620007fb81620007ae565b809150509250929050565b6000828210156200082757634e487b7160e01b600052601160045260246000fd5b500390565b600181811c908216806200084157607f821691505b6020821081036200086257634e487b7160e01b600052602260045260246000fd5b50919050565b60805160a05160c05160e05161010051610120516101405161399d620008d1600039600081816108ad01528181611f7f0152612091015260006123b0015260006123ff015260006123da015260006123330152600061235d01526000612387015261399d6000f3fe6080604052600436106102605760003560e01c80637d5e81e211610144578063c59057e4116100b6578063eb9019d41161007a578063eb9019d4146107ef578063ece40cc11461080f578063f23a6e611461082f578063f2fde38b1461085b578063f8ce560a1461087b578063fc0c546a1461089b57600080fd5b8063c59057e414610717578063d33219b414610737578063dd4e2ba514610755578063deaaa7cc1461079b578063ea0217cf146107cf57600080fd5b8063a890c91011610108578063a890c91014610663578063ab58fb8e14610683578063b58131b0146106a3578063bc197c81146106b8578063c01f9e37146106e4578063c28bc2fa1461070457600080fd5b80637d5e81e2146105c85780638da5cb5b146105e857806397c3d3341461061a5780639a802a6d1461062e578063a7713a701461064e57600080fd5b80633932abb1116101dd57806354fd4d50116101a157806354fd4d501461050957806356781388146105335780635f398a141461055357806360c4247f14610573578063715018a6146105935780637b3c71d3146105a857600080fd5b80633932abb1146104095780633bccf4fd1461041d5780633e4f49e61461043d578063438596321461046a578063544ffc9c146104b457600080fd5b8063150b7a0211610224578063150b7a021461033e578063160cbed7146103825780632656227d146103a25780632d63f693146103b55780632fe3e261146103d557600080fd5b806301ffc9a71461028857806302a251a3146102bd57806303420181146102dc57806306f3f9e6146102fc57806306fdde031461031c57600080fd5b36610283573061026e6108cf565b6001600160a01b03161461028157600080fd5b005b600080fd5b34801561029457600080fd5b506102a86102a3366004612ad6565b6108e8565b60405190151581526020015b60405180910390f35b3480156102c957600080fd5b50600b545b6040519081526020016102b4565b3480156102e857600080fd5b506102ce6102f7366004612c14565b6108f9565b34801561030857600080fd5b50610281610317366004612cba565b6109f1565b34801561032857600080fd5b50610331610a84565b6040516102b49190612d20565b34801561034a57600080fd5b50610369610359366004612d48565b630a85bd0160e11b949350505050565b6040516001600160e01b031990911681526020016102b4565b34801561038e57600080fd5b506102ce61039d366004612f24565b610b16565b6102ce6103b0366004612f24565b610d16565b3480156103c157600080fd5b506102ce6103d0366004612cba565b610e03565b3480156103e157600080fd5b506102ce7fb3b3f3b703cd84ce352197dcff232b1b5d3cfb2025ce47cf04742d0651f1af8881565b34801561041557600080fd5b5060016102ce565b34801561042957600080fd5b506102ce610438366004612fb3565b610e3a565b34801561044957600080fd5b5061045d610458366004612cba565b610eb0565b6040516102b49190613017565b34801561047657600080fd5b506102a861048536600461303f565b60008281526004602090815260408083206001600160a01b038516845260030190915290205460ff1692915050565b3480156104c057600080fd5b506104ee6104cf366004612cba565b6000908152600460205260409020805460018201546002909201549092565b604080519384526020840192909252908201526060016102b4565b34801561051557600080fd5b506040805180820190915260018152603160f81b6020820152610331565b34801561053f57600080fd5b506102ce61054e36600461306f565b610ebb565b34801561055f57600080fd5b506102ce61056e36600461309b565b610ee4565b34801561057f57600080fd5b506102ce61058e366004612cba565b610f2e565b34801561059f57600080fd5b50610281610fc5565b3480156105b457600080fd5b506102ce6105c336600461311e565b610fd9565b3480156105d457600080fd5b506102ce6105e3366004613177565b61102b565b3480156105f457600080fd5b506009546001600160a01b03165b6040516001600160a01b0390911681526020016102b4565b34801561062657600080fd5b5060646102ce565b34801561063a57600080fd5b506102ce61064936600461322b565b611042565b34801561065a57600080fd5b506102ce611059565b34801561066f57600080fd5b5061028161067e366004613283565b611083565b34801561068f57600080fd5b506102ce61069e366004612cba565b61110a565b3480156106af57600080fd5b50600a546102ce565b3480156106c457600080fd5b506103696106d33660046132a0565b63bc197c8160e01b95945050505050565b3480156106f057600080fd5b506102ce6106ff366004612cba565b6111a4565b610281610712366004613333565b6111d3565b34801561072357600080fd5b506102ce610732366004612f24565b6112e2565b34801561074357600080fd5b506007546001600160a01b0316610602565b34801561076157600080fd5b506040805180820190915260208082527f737570706f72743d627261766f2671756f72756d3d666f722c6162737461696e90820152610331565b3480156107a757600080fd5b506102ce7f150214d74d59b7d1e90c73fc22ef3d991dd0a76b046543d4d80ab92d2a50328f81565b3480156107db57600080fd5b506102816107ea366004612cba565b61131c565b3480156107fb57600080fd5b506102ce61080a366004613376565b611329565b34801561081b57600080fd5b5061028161082a366004612cba565b61134a565b34801561083b57600080fd5b5061036961084a3660046133a2565b63f23a6e6160e01b95945050505050565b34801561086757600080fd5b50610281610876366004613283565b611357565b34801561088757600080fd5b506102ce610896366004612cba565b6113cd565b3480156108a757600080fd5b506106027f000000000000000000000000000000000000000000000000000000000000000081565b60006108e36007546001600160a01b031690565b905090565b60006108f38261151e565b92915050565b60008061099d6109957fb3b3f3b703cd84ce352197dcff232b1b5d3cfb2025ce47cf04742d0651f1af888c8c8c8c60405161093592919061340a565b60405180910390208b8051906020012060405160200161097a959493929190948552602085019390935260ff9190911660408401526060830152608082015260a00190565b60405160208183030381529060405280519060200120611543565b868686611591565b90506109e38a828b8b8b8080601f0160208091040260200160405190810160405280939291908181526020018383808284376000920191909152508d92506115af915050565b9a9950505050505050505050565b6109f96108cf565b6001600160a01b0316336001600160a01b031614610a325760405162461bcd60e51b8152600401610a299061341a565b60405180910390fd5b30610a3b6108cf565b6001600160a01b031614610a785760008036604051610a5b92919061340a565b604051809103902090505b80610a716002611714565b03610a6657505b610a8181611793565b50565b606060008054610a9390613451565b80601f0160208091040260200160405190810160405280929190818152602001828054610abf90613451565b8015610b0c5780601f10610ae157610100808354040283529160200191610b0c565b820191906000526020600020905b815481529060010190602001808311610aef57829003601f168201915b5050505050905090565b600080610b25868686866112e2565b90506004610b3282610eb0565b6007811115610b4357610b43613001565b14610b605760405162461bcd60e51b8152600401610a299061348b565b6007546040805163793d064960e11b815290516000926001600160a01b03169163f27a0c929160048083019260209291908290030181865afa158015610baa573d6000803e3d6000fd5b505050506040513d601f19601f82011682018060405250810190610bce91906134cc565b60075460405163b1c5f42760e01b81529192506001600160a01b03169063b1c5f42790610c08908a908a908a906000908b906004016135ae565b602060405180830381865afa158015610c25573d6000803e3d6000fd5b505050506040513d601f19601f82011682018060405250810190610c4991906134cc565b6000838152600860205260408082209290925560075491516308f2a0bb60e41b81526001600160a01b0390921691638f2a0bb091610c94918b918b918b91908b9089906004016135fc565b600060405180830381600087803b158015610cae57600080fd5b505af1158015610cc2573d6000803e3d6000fd5b505050507f9a2e42fd6722813d69113e7d0079d3d940171428df7373df9c7f7617cfda2892828242610cf4919061366a565b6040805192835260208301919091520160405180910390a15095945050505050565b600080610d25868686866112e2565b90506000610d3282610eb0565b90506004816007811115610d4857610d48613001565b1480610d6557506005816007811115610d6357610d63613001565b145b610d815760405162461bcd60e51b8152600401610a299061348b565b600082815260016020818152604092839020600201805460ff191690921790915590518381527f712ae1383f79ac853f8d882153778e0260ef8f03b504e2866e0593e04d2b291f910160405180910390a1610ddf82888888886118df565b610dec8288888888611981565b610df9828888888861198e565b5095945050505050565b60008181526001602090815260408083208151928301909152546001600160401b0316908190525b6001600160401b031692915050565b604080517f150214d74d59b7d1e90c73fc22ef3d991dd0a76b046543d4d80ab92d2a50328f602082015290810186905260ff851660608201526000908190610e88906109959060800161097a565b9050610ea5878288604051806020016040528060008152506119c7565b979650505050505050565b60006108f3826119ea565b600080339050610edc848285604051806020016040528060008152506119c7565b949350505050565b600080339050610ea587828888888080601f0160208091040260200160405190810160405280939291908181526020018383808284376000920191909152508a92506115af915050565b600654600090808203610f45575050600554919050565b60006006610f54600184613682565b81548110610f6457610f64613699565b60009182526020918290206040805180820190915291015463ffffffff8116808352600160201b9091046001600160e01b03169282019290925291508410610fba57602001516001600160e01b03169392505050565b610edc600685611b34565b610fcd611be6565b610fd76000611c40565b565b60008033905061102186828787878080601f0160208091040260200160405190810160405280939291908181526020018383808284376000920191909152506119c792505050565b9695505050505050565b600061103985858585611c92565b95945050505050565b600061104f848484611f56565b90505b9392505050565b6006546000901561107c5761106e600661147b565b6001600160e01b0316905090565b5060055490565b61108b6108cf565b6001600160a01b0316336001600160a01b0316146110bb5760405162461bcd60e51b8152600401610a299061341a565b306110c46108cf565b6001600160a01b03161461110157600080366040516110e492919061340a565b604051809103902090505b806110fa6002611714565b036110ef57505b610a8181611fec565b60075460008281526008602052604080822054905163d45c443560e01b81526004810191909152909182916001600160a01b039091169063d45c443590602401602060405180830381865afa158015611167573d6000803e3d6000fd5b505050506040513d601f19601f8201168201806040525081019061118b91906134cc565b90508060011461119b5780611052565b60009392505050565b60008181526001602081815260408084208151928301909152909101546001600160401b031690819052610e2b565b6111db6108cf565b6001600160a01b0316336001600160a01b03161461120b5760405162461bcd60e51b8152600401610a299061341a565b306112146108cf565b6001600160a01b031614611251576000803660405161123492919061340a565b604051809103902090505b8061124a6002611714565b0361123f57505b600080856001600160a01b031685858560405161126f92919061340a565b60006040518083038185875af1925050503d80600081146112ac576040519150601f19603f3d011682016040523d82523d6000602084013e6112b1565b606091505b50915091506112d9828260405180606001604052806028815260200161394060289139612055565b50505050505050565b6000848484846040516020016112fb94939291906136af565b60408051601f19818403018152919052805160209091012095945050505050565b611324611be6565b600b55565b6000611052838361134560408051602081019091526000815290565b611f56565b611352611be6565b600a55565b61135f611be6565b6001600160a01b0381166113c45760405162461bcd60e51b815260206004820152602660248201527f4f776e61626c653a206e6577206f776e657220697320746865207a65726f206160448201526564647265737360d01b6064820152608401610a29565b610a8181611c40565b60006108f38261206e565b60006001600160e01b038211156114415760405162461bcd60e51b815260206004820152602760248201527f53616665436173743a2076616c756520646f65736e27742066697420696e20326044820152663234206269747360c81b6064820152608401610a29565b5090565b60008061146384611455436114b9565b61145e866113d8565b612118565b6001600160e01b0391821693501690505b9250929050565b8054600090801561119b576114a383611495600184613682565b600091825260209091200190565b54600160201b90046001600160e01b0316611052565b600063ffffffff8211156114415760405162461bcd60e51b815260206004820152602660248201527f53616665436173743a2076616c756520646f65736e27742066697420696e203360448201526532206269747360d01b6064820152608401610a29565b60006001600160e01b03198216636e665ced60e01b14806108f357506108f3826122bb565b60006108f3611550612326565b8360405161190160f01b6020820152602281018390526042810182905260009060620160405160208183030381529060405280519060200120905092915050565b60008060006115a28787878761244d565b91509150610df981612511565b60008581526001602081905260408220906115c988610eb0565b60078111156115da576115da613001565b146116335760405162461bcd60e51b815260206004820152602360248201527f476f7665726e6f723a20766f7465206e6f742063757272656e746c792061637460448201526269766560e81b6064820152608401610a29565b604080516020810190915281546001600160401b03169081905260009061165c90889086611f56565b905061166b888888848861265b565b83516000036116c057866001600160a01b03167fb8e138887d0aa13bab447e82de9d5c1777041ecd21ca36ba824ff1e6c07ddda4898884896040516116b394939291906136fa565b60405180910390a2610ea5565b866001600160a01b03167fe2babfbac5889a709b63bb7f598b324e08bc5a4fb9ec647fb3cbc9ec07eb87128988848989604051611701959493929190613722565b60405180910390a2979650505050505050565b600061172f8254600f81810b600160801b909204900b131590565b1561174d57604051631ed9509560e11b815260040160405180910390fd5b508054600f0b6000818152600180840160205260408220805492905583546fffffffffffffffffffffffffffffffff191692016001600160801b03169190911790915590565b60648111156118165760405162461bcd60e51b815260206004820152604360248201527f476f7665726e6f72566f74657351756f72756d4672616374696f6e3a2071756f60448201527f72756d4e756d657261746f72206f7665722071756f72756d44656e6f6d696e616064820152623a37b960e91b608482015260a401610a29565b6000611820611059565b905080158015906118315750600654155b1561189557604080518082019091526000815260069060208101611854846113d8565b6001600160e01b039081169091528254600181018455600093845260209384902083519490930151909116600160201b0263ffffffff909316929092179101555b6118a0600683611445565b505060408051828152602081018490527f0553476bf02ef2726e8ce5ced78d63e26e602e4a2257b1f559418e24b4633997910160405180910390a15050565b306118e86108cf565b6001600160a01b03161461197a5760005b845181101561197857306001600160a01b031685828151811061191e5761191e613699565b60200260200101516001600160a01b0316036119685761196883828151811061194957611949613699565b60200260200101518051906020012060026127d590919063ffffffff16565b61197181613768565b90506118f9565b505b5050505050565b61197a8585858585612811565b306119976108cf565b6001600160a01b03161461197a57600254600f81810b600160801b909204900b131561197a57600060025561197a565b6000611039858585856119e560408051602081019091526000815290565b6115af565b6000806119f683612885565b90506004816007811115611a0c57611a0c613001565b14611a175792915050565b60008381526008602052604090205480611a32575092915050565b600754604051632ab0f52960e01b8152600481018390526001600160a01b0390911690632ab0f52990602401602060405180830381865afa158015611a7b573d6000803e3d6000fd5b505050506040513d601f19601f82011682018060405250810190611a9f9190613781565b15611aae575060079392505050565b600754604051632c258a9f60e11b8152600481018390526001600160a01b039091169063584b153e90602401602060405180830381865afa158015611af7573d6000803e3d6000fd5b505050506040513d601f19601f82011682018060405250810190611b1b9190613781565b15611b2a575060059392505050565b5060029392505050565b6000438210611b855760405162461bcd60e51b815260206004820181905260248201527f436865636b706f696e74733a20626c6f636b206e6f7420796574206d696e65646044820152606401610a29565b6000611b90836114b9565b84549091506000611ba386848385612994565b90508015611bd057611bba86611495600184613682565b54600160201b90046001600160e01b0316611bd3565b60005b6001600160e01b03169695505050505050565b6009546001600160a01b03163314610fd75760405162461bcd60e51b815260206004820181905260248201527f4f776e61626c653a2063616c6c6572206973206e6f7420746865206f776e65726044820152606401610a29565b600980546001600160a01b038381166001600160a01b0319831681179093556040519116919082907f8be0079c531659141344cd1fd0a4f28419497f9722a3daafe3b4186f6b6457e090600090a35050565b6000611c9d600a5490565b611cac3361080a600143613682565b1015611d145760405162461bcd60e51b815260206004820152603160248201527f476f7665726e6f723a2070726f706f73657220766f7465732062656c6f7720706044820152701c9bdc1bdcd85b081d1a1c995cda1bdb19607a1b6064820152608401610a29565b6000611d2986868686805190602001206112e2565b90508451865114611d4c5760405162461bcd60e51b8152600401610a29906137a3565b8351865114611d6d5760405162461bcd60e51b8152600401610a29906137a3565b6000865111611dbe5760405162461bcd60e51b815260206004820152601860248201527f476f7665726e6f723a20656d7074792070726f706f73616c00000000000000006044820152606401610a29565b600081815260016020908152604091829020825191820190925281546001600160401b03169081905215611e3e5760405162461bcd60e51b815260206004820152602160248201527f476f7665726e6f723a2070726f706f73616c20616c72656164792065786973746044820152607360f81b6064820152608401610a29565b6000611e4f60016129f2565b6129f2565b611e58436129f2565b611e6291906137e4565b90506000611e72611e4a600b5490565b611e7c90836137e4565b835467ffffffffffffffff19166001600160401b038416178455905060018301805467ffffffffffffffff19166001600160401b0383161790557f7d84a6263ae0d98d3329bd7b46bb4e8d6f98cd35a7adb45c274c8b7fd5ebd5e084338b8b8d516001600160401b03811115611ef457611ef4612b57565b604051908082528060200260200182016040528015611f2757816020015b6060815260200190600190039081611f125790505b508c88888e604051611f419998979695949392919061380f565b60405180910390a15091979650505050505050565b604051630748d63560e31b81526001600160a01b038481166004830152602482018490526000917f000000000000000000000000000000000000000000000000000000000000000090911690633a46b1a890604401602060405180830381865afa158015611fc8573d6000803e3d6000fd5b505050506040513d601f19601f8201168201806040525081019061104f91906134cc565b600754604080516001600160a01b03928316815291831660208301527f08f74ea46ef7894f65eabfb5e6e695de773a000b47c529ab559178069b226401910160405180910390a1600780546001600160a01b0319166001600160a01b0392909216919091179055565b60608315612064575081611052565b6110528383612a5a565b6000606461207b83610f2e565b604051632394e7a360e21b8152600481018590527f00000000000000000000000000000000000000000000000000000000000000006001600160a01b031690638e539e8c90602401602060405180830381865afa1580156120e0573d6000803e3d6000fd5b505050506040513d601f19601f8201168201806040525081019061210491906134cc565b61210e91906138fe565b6108f3919061391d565b82546000908190801561225e57600061213687611495600185613682565b60408051808201909152905463ffffffff808216808452600160201b9092046001600160e01b0316602084015291925090871610156121b75760405162461bcd60e51b815260206004820152601760248201527f436865636b706f696e743a20696e76616c6964206b65790000000000000000006044820152606401610a29565b805163ffffffff8088169116036121ff57846121d888611495600186613682565b80546001600160e01b0392909216600160201b0263ffffffff90921691909117905561224e565b6040805180820190915263ffffffff80881682526001600160e01b0380881660208085019182528b54600181018d5560008d81529190912094519151909216600160201b029216919091179101555b6020015192508391506122b39050565b50506040805180820190915263ffffffff80851682526001600160e01b0380851660208085019182528854600181018a5560008a815291822095519251909316600160201b0291909316179201919091559050815b935093915050565b60006001600160e01b0319821663bf26d89760e01b14806122ec57506001600160e01b031982166379dd796f60e01b145b8061230757506001600160e01b03198216630271189760e51b145b806108f357506301ffc9a760e01b6001600160e01b03198316146108f3565b6000306001600160a01b037f00000000000000000000000000000000000000000000000000000000000000001614801561237f57507f000000000000000000000000000000000000000000000000000000000000000046145b156123a957507f000000000000000000000000000000000000000000000000000000000000000090565b50604080517f00000000000000000000000000000000000000000000000000000000000000006020808301919091527f0000000000000000000000000000000000000000000000000000000000000000828401527f000000000000000000000000000000000000000000000000000000000000000060608301524660808301523060a0808401919091528351808403909101815260c0909201909252805191012090565b6000807f7fffffffffffffffffffffffffffffff5d576e7357a4501ddfe92f46681b20a08311156124845750600090506003612508565b6040805160008082526020820180845289905260ff881692820192909252606081018690526080810185905260019060a0016020604051602081039080840390855afa1580156124d8573d6000803e3d6000fd5b5050604051601f1901519150506001600160a01b03811661250157600060019250925050612508565b9150600090505b94509492505050565b600081600481111561252557612525613001565b0361252d5750565b600181600481111561254157612541613001565b0361258e5760405162461bcd60e51b815260206004820152601860248201527f45434453413a20696e76616c6964207369676e617475726500000000000000006044820152606401610a29565b60028160048111156125a2576125a2613001565b036125ef5760405162461bcd60e51b815260206004820152601f60248201527f45434453413a20696e76616c6964207369676e6174757265206c656e677468006044820152606401610a29565b600381600481111561260357612603613001565b03610a815760405162461bcd60e51b815260206004820152602260248201527f45434453413a20696e76616c6964207369676e6174757265202773272076616c604482015261756560f01b6064820152608401610a29565b60008581526004602090815260408083206001600160a01b0388168452600381019092529091205460ff16156126e35760405162461bcd60e51b815260206004820152602760248201527f476f7665726e6f72566f74696e6753696d706c653a20766f746520616c726561604482015266191e4818d85cdd60ca1b6064820152608401610a29565b6001600160a01b03851660009081526003820160205260409020805460ff1916600117905560ff841661272f5782816000016000828254612724919061366a565b909155506119789050565b60001960ff85160161274f5782816001016000828254612724919061366a565b60011960ff85160161276f5782816002016000828254612724919061366a565b60405162461bcd60e51b815260206004820152603560248201527f476f7665726e6f72566f74696e6753696d706c653a20696e76616c69642076616044820152746c756520666f7220656e756d20566f74655479706560581b6064820152608401610a29565b8154600160801b90819004600f0b6000818152600180860160205260409091209390935583546001600160801b03908116939091011602179055565b60075460405163e38335e560e01b81526001600160a01b039091169063e38335e590349061284c9088908890889060009089906004016135ae565b6000604051808303818588803b15801561286557600080fd5b505af1158015612879573d6000803e3d6000fd5b50505050505050505050565b6000818152600160205260408120600281015460ff16156128a95750600792915050565b6002810154610100900460ff16156128c45750600292915050565b60006128cf84610e03565b9050806000036129215760405162461bcd60e51b815260206004820152601d60248201527f476f7665726e6f723a20756e6b6e6f776e2070726f706f73616c2069640000006044820152606401610a29565b438110612932575060009392505050565b600061293d856111a4565b905043811061295157506001949350505050565b61295a85612a84565b8015612979575060008581526004602052604090208054600190910154115b1561298957506004949350505050565b506003949350505050565b60005b818310156129ea5760006129ab8484612abb565b60008781526020902090915063ffffffff86169082015463ffffffff1611156129d6578092506129e4565b6129e181600161366a565b93505b50612997565b509392505050565b60006001600160401b038211156114415760405162461bcd60e51b815260206004820152602660248201527f53616665436173743a2076616c756520646f65736e27742066697420696e203660448201526534206269747360d01b6064820152608401610a29565b815115612a6a5781518083602001fd5b8060405162461bcd60e51b8152600401610a299190612d20565b600081815260046020526040812060028101546001820154612aa6919061366a565b612ab261089685610e03565b11159392505050565b6000612aca600284841861391d565b6110529084841661366a565b600060208284031215612ae857600080fd5b81356001600160e01b03198116811461105257600080fd5b803560ff81168114612b1157600080fd5b919050565b60008083601f840112612b2857600080fd5b5081356001600160401b03811115612b3f57600080fd5b60208301915083602082850101111561147457600080fd5b634e487b7160e01b600052604160045260246000fd5b604051601f8201601f191681016001600160401b0381118282101715612b9557612b95612b57565b604052919050565b60006001600160401b03831115612bb657612bb6612b57565b612bc9601f8401601f1916602001612b6d565b9050828152838383011115612bdd57600080fd5b828260208301376000602084830101529392505050565b600082601f830112612c0557600080fd5b61105283833560208501612b9d565b60008060008060008060008060e0898b031215612c3057600080fd5b88359750612c4060208a01612b00565b965060408901356001600160401b0380821115612c5c57600080fd5b612c688c838d01612b16565b909850965060608b0135915080821115612c8157600080fd5b50612c8e8b828c01612bf4565b945050612c9d60808a01612b00565b925060a0890135915060c089013590509295985092959890939650565b600060208284031215612ccc57600080fd5b5035919050565b6000815180845260005b81811015612cf957602081850181015186830182015201612cdd565b81811115612d0b576000602083870101525b50601f01601f19169290920160200192915050565b6020815260006110526020830184612cd3565b6001600160a01b0381168114610a8157600080fd5b60008060008060808587031215612d5e57600080fd5b8435612d6981612d33565b93506020850135612d7981612d33565b92506040850135915060608501356001600160401b03811115612d9b57600080fd5b612da787828801612bf4565b91505092959194509250565b60006001600160401b03821115612dcc57612dcc612b57565b5060051b60200190565b600082601f830112612de757600080fd5b81356020612dfc612df783612db3565b612b6d565b82815260059290921b84018101918181019086841115612e1b57600080fd5b8286015b84811015612e3f578035612e3281612d33565b8352918301918301612e1f565b509695505050505050565b600082601f830112612e5b57600080fd5b81356020612e6b612df783612db3565b82815260059290921b84018101918181019086841115612e8a57600080fd5b8286015b84811015612e3f5780358352918301918301612e8e565b600082601f830112612eb657600080fd5b81356020612ec6612df783612db3565b82815260059290921b84018101918181019086841115612ee557600080fd5b8286015b84811015612e3f5780356001600160401b03811115612f085760008081fd5b612f168986838b0101612bf4565b845250918301918301612ee9565b60008060008060808587031215612f3a57600080fd5b84356001600160401b0380821115612f5157600080fd5b612f5d88838901612dd6565b95506020870135915080821115612f7357600080fd5b612f7f88838901612e4a565b94506040870135915080821115612f9557600080fd5b50612fa287828801612ea5565b949793965093946060013593505050565b600080600080600060a08688031215612fcb57600080fd5b85359450612fdb60208701612b00565b9350612fe960408701612b00565b94979396509394606081013594506080013592915050565b634e487b7160e01b600052602160045260246000fd5b602081016008831061303957634e487b7160e01b600052602160045260246000fd5b91905290565b6000806040838503121561305257600080fd5b82359150602083013561306481612d33565b809150509250929050565b6000806040838503121561308257600080fd5b8235915061309260208401612b00565b90509250929050565b6000806000806000608086880312156130b357600080fd5b853594506130c360208701612b00565b935060408601356001600160401b03808211156130df57600080fd5b6130eb89838a01612b16565b9095509350606088013591508082111561310457600080fd5b5061311188828901612bf4565b9150509295509295909350565b6000806000806060858703121561313457600080fd5b8435935061314460208601612b00565b925060408501356001600160401b0381111561315f57600080fd5b61316b87828801612b16565b95989497509550505050565b6000806000806080858703121561318d57600080fd5b84356001600160401b03808211156131a457600080fd5b6131b088838901612dd6565b955060208701359150808211156131c657600080fd5b6131d288838901612e4a565b945060408701359150808211156131e857600080fd5b6131f488838901612ea5565b9350606087013591508082111561320a57600080fd5b508501601f8101871361321c57600080fd5b612da787823560208401612b9d565b60008060006060848603121561324057600080fd5b833561324b81612d33565b92506020840135915060408401356001600160401b0381111561326d57600080fd5b61327986828701612bf4565b9150509250925092565b60006020828403121561329557600080fd5b813561105281612d33565b600080600080600060a086880312156132b857600080fd5b85356132c381612d33565b945060208601356132d381612d33565b935060408601356001600160401b03808211156132ef57600080fd5b6132fb89838a01612e4a565b9450606088013591508082111561331157600080fd5b61331d89838a01612e4a565b9350608088013591508082111561310457600080fd5b6000806000806060858703121561334957600080fd5b843561335481612d33565b93506020850135925060408501356001600160401b0381111561315f57600080fd5b6000806040838503121561338957600080fd5b823561339481612d33565b946020939093013593505050565b600080600080600060a086880312156133ba57600080fd5b85356133c581612d33565b945060208601356133d581612d33565b9350604086013592506060860135915060808601356001600160401b038111156133fe57600080fd5b61311188828901612bf4565b8183823760009101908152919050565b60208082526018908201527f476f7665726e6f723a206f6e6c79476f7665726e616e63650000000000000000604082015260600190565b600181811c9082168061346557607f821691505b60208210810361348557634e487b7160e01b600052602260045260246000fd5b50919050565b60208082526021908201527f476f7665726e6f723a2070726f706f73616c206e6f74207375636365737366756040820152601b60fa1b606082015260800190565b6000602082840312156134de57600080fd5b5051919050565b600081518084526020808501945080840160005b8381101561351e5781516001600160a01b0316875295820195908201906001016134f9565b509495945050505050565b600081518084526020808501945080840160005b8381101561351e5781518752958201959082019060010161353d565b600081518084526020808501808196508360051b8101915082860160005b858110156135a157828403895261358f848351612cd3565b98850198935090840190600101613577565b5091979650505050505050565b60a0815260006135c160a08301886134e5565b82810360208401526135d38188613529565b905082810360408401526135e78187613559565b60608401959095525050608001529392505050565b60c08152600061360f60c08301896134e5565b82810360208401526136218189613529565b905082810360408401526136358188613559565b60608401969096525050608081019290925260a0909101529392505050565b634e487b7160e01b600052601160045260246000fd5b6000821982111561367d5761367d613654565b500190565b60008282101561369457613694613654565b500390565b634e487b7160e01b600052603260045260246000fd5b6080815260006136c260808301876134e5565b82810360208401526136d48187613529565b905082810360408401526136e88186613559565b91505082606083015295945050505050565b84815260ff841660208201528260408201526080606082015260006110216080830184612cd3565b85815260ff8516602082015283604082015260a06060820152600061374a60a0830185612cd3565b828103608084015261375c8185612cd3565b98975050505050505050565b60006001820161377a5761377a613654565b5060010190565b60006020828403121561379357600080fd5b8151801515811461105257600080fd5b60208082526021908201527f476f7665726e6f723a20696e76616c69642070726f706f73616c206c656e67746040820152600d60fb1b606082015260800190565b60006001600160401b0380831681851680830382111561380657613806613654565b01949350505050565b60006101208b8352602060018060a01b038c16818501528160408501526138388285018c6134e5565b9150838203606085015261384c828b613529565b915083820360808501528189518084528284019150828160051b850101838c0160005b8381101561389d57601f1987840301855261388b838351612cd3565b9486019492509085019060010161386f565b505086810360a08801526138b1818c613559565b9450505050506138cc60c08401876001600160401b03169052565b6001600160401b03851660e08401528281036101008401526138ee8185612cd3565b9c9b505050505050505050505050565b600081600019048311821515161561391857613918613654565b500290565b60008261393a57634e487b7160e01b600052601260045260246000fd5b50049056fe476f7665726e6f723a2072656c617920726576657274656420776974686f7574206d657373616765a26469706673582212206640f75b9b7b5a94969ff3181a7d4f34b29129cdfb05c5d97b15587b81c6c2aa64736f6c634300080d0033",
  "immutableReferences": {
    "3633": [
      {
        "length": 32,
        "start": 2221
      },
      {
        "length": 32,
        "start": 8063
      },
      {
        "length": 32,
        "start": 8337
      }
    ],
    "9028": [
      {
        "length": 32,
        "start": 9095
      }
    ],
    "9030": [
      {
        "length": 32,
        "start": 9053
      }
    ],
    "9032": [
      {
        "length": 32,
        "start": 9011
      }
    ],
    "9034": [
      {
        "length": 32,
        "start": 9178
      }
    ],
    "9036": [
      {
        "length": 32,
        "start": 9215
      }
    ],
    "9038": [
      {
        "length": 32,
        "start": 9136
      }
    ]
  },
  "source": "// SPDX-License-Identifier: MIT\npragma solidity ^0.8.4;\n\nimport \"@openzeppelin/contracts/access/Ownable.sol\";\nimport \"@openzeppelin/contracts/governance/Governor.sol\";\nimport \"@openzeppelin/contracts/governance/extensions/GovernorCountingSimple.sol\";\nimport \"@openzeppelin/contracts/governance/extensions/GovernorVotes.sol\";\nimport \"@openzeppelin/contracts/governance/extensions/GovernorVotesQuorumFraction.sol\";\nimport \"@openzeppelin/contracts/governance/extensions/GovernorTimelockControl.sol\";\nimport \"@openzeppelin/contracts/governance/utils/Votes.sol\";\n\ncontract MyGovernor is\n    Governor,\n    GovernorCountingSimple,\n    GovernorVotes,\n    GovernorVotesQuorumFraction,\n    GovernorTimelockControl,\n    Ownable\n{\n    constructor(IVotes _token, TimelockController _timelock)\n        Governor(\"MyGovernor\")\n        GovernorVotes(_token)\n        GovernorVotesQuorumFraction(10)\n        GovernorTimelockControl(_timelock)\n    {}\n\n    uint256 private DEFAULT_proposalThreshold = 1e18;\n    uint256 private DEFAULT_votingPeriod = 4;\n\n    function votingDelay() public pure override returns (uint256) {\n        return 1; // 1 block\n    }\n\n    // function proposalThreshold() public pure override returns (uint256) {\n    //     return 100e18;\n    // }\n\n    // TODO 100 eth is not required for our project\n    // user token balalnce should be equal or greater than proposalThreshold\n    // to propose\n    function proposalThreshold() public view override returns (uint256) {\n        return DEFAULT_proposalThreshold;\n    }\n\n    function setProposalThreshold(uint256 value) public onlyOwner {\n        DEFAULT_proposalThreshold = value;\n    }\n\n    function votingPeriod() public view override returns (uint256) {\n        // return 300; // 5min approx 45818 //1Week\n        return DEFAULT_votingPeriod;\n    }\n\n    function setVotingPeriod(uint256 value) public onlyOwner {\n        DEFAULT_votingPeriod = value;\n    }\n\n    // function updateQuorumNumerator(uint256 newQuorumNumerator) external override(GovernorVotesQuorumFraction) onlyGovernance {\n    //     // _updateQuorumNumerator(newQuorumNumerator);\n    //     super.updateQuorumNumerator(newQuorumNumerator);\n    // }\n    // The following functions are overrides required by Solidity.\n\n    function quorum(uint256 blockNumber)\n        public\n        view\n        override(IGovernor, GovernorVotesQuorumFraction)\n        returns (uint256)\n    {\n        return super.quorum(blockNumber);\n    }\n\n    function state(uint256 proposalId)\n        public\n        view\n        override(Governor, GovernorTimelockControl)\n        returns (ProposalState)\n    {\n        return super.state(proposalId);\n    }\n\n    function propose(\n        address[] memory targets,\n        uint256[] memory values,\n        bytes[] memory calldatas,\n        string memory description\n    ) public override(Governor, IGovernor) returns (uint256) {\n        return super.propose(targets, values, calldatas, description);\n    }\n\n    function _execute(\n        uint256 proposalId,\n        address[] memory targets,\n        uint256[] memory values,\n        bytes[] memory calldatas,\n        bytes32 descriptionHash\n    ) internal override(Governor, GovernorTimelockControl) {\n        super._execute(proposalId, targets, values, calldatas, descriptionHash);\n    }\n\n    function _cancel(\n        address[] memory targets,\n        uint256[] memory values,\n        bytes[] memory calldatas,\n        bytes32 descriptionHash\n    ) internal override(Governor, GovernorTimelockControl) returns (uint256) {\n        return super._cancel(targets, values, calldatas, descriptionHash);\n    }\n\n    function _executor()\n        internal\n        view\n        override(Governor, GovernorTimelockControl)\n        returns (address)\n    {\n        return super._executor();\n    }\n\n    function supportsInterface(bytes4 interfaceId)\n        public\n        view\n        override(Governor, GovernorTimelockControl)\n        returns (bool)\n    {\n        return super.supportsInterface(interfaceId);\n    }\n}\n",
  "sourcePath": "/Users/yaksheshgupta/Desktop/Equistart_Smart_Contract/contracts/contracts/MyGovernor.sol",
  "compiler": {
    "name": "solc",
    "version": "0.8.13+commit.abaa5c0e.Emscripten.clang"
  },
  "schemaVersion": "3.4.7",
  "updatedAt": "2023-02-06T14:37:51.898Z",
  "devdoc": {
    "errors": {
      "Empty()": [
        {
          "details": "An operation (e.g. {front}) couldn't be completed due to the queue being empty."
        }
      ]
    },
    "kind": "dev",
    "methods": {
      "COUNTING_MODE()": {
        "details": "See {IGovernor-COUNTING_MODE}."
      },
      "castVote(uint256,uint8)": {
        "details": "See {IGovernor-castVote}."
      },
      "castVoteBySig(uint256,uint8,uint8,bytes32,bytes32)": {
        "details": "See {IGovernor-castVoteBySig}."
      },
      "castVoteWithReason(uint256,uint8,string)": {
        "details": "See {IGovernor-castVoteWithReason}."
      },
      "castVoteWithReasonAndParams(uint256,uint8,string,bytes)": {
        "details": "See {IGovernor-castVoteWithReasonAndParams}."
      },
      "castVoteWithReasonAndParamsBySig(uint256,uint8,string,bytes,uint8,bytes32,bytes32)": {
        "details": "See {IGovernor-castVoteWithReasonAndParamsBySig}."
      },
      "execute(address[],uint256[],bytes[],bytes32)": {
        "details": "See {IGovernor-execute}."
      },
      "getVotes(address,uint256)": {
        "details": "See {IGovernor-getVotes}."
      },
      "getVotesWithParams(address,uint256,bytes)": {
        "details": "See {IGovernor-getVotesWithParams}."
      },
      "hasVoted(uint256,address)": {
        "details": "See {IGovernor-hasVoted}."
      },
      "hashProposal(address[],uint256[],bytes[],bytes32)": {
        "details": "See {IGovernor-hashProposal}. The proposal id is produced by hashing the ABI encoded `targets` array, the `values` array, the `calldatas` array and the descriptionHash (bytes32 which itself is the keccak256 hash of the description string). This proposal id can be produced from the proposal data which is part of the {ProposalCreated} event. It can even be computed in advance, before the proposal is submitted. Note that the chainId and the governor address are not part of the proposal id computation. Consequently, the same proposal (with same operation and same description) will have the same id if submitted on multiple governors across multiple networks. This also means that in order to execute the same operation twice (on the same governor) the proposer will have to change the description in order to avoid proposal id conflicts."
      },
      "name()": {
        "details": "See {IGovernor-name}."
      },
      "onERC1155BatchReceived(address,address,uint256[],uint256[],bytes)": {
        "details": "See {IERC1155Receiver-onERC1155BatchReceived}."
      },
      "onERC1155Received(address,address,uint256,uint256,bytes)": {
        "details": "See {IERC1155Receiver-onERC1155Received}."
      },
      "onERC721Received(address,address,uint256,bytes)": {
        "details": "See {IERC721Receiver-onERC721Received}."
      },
      "owner()": {
        "details": "Returns the address of the current owner."
      },
      "proposalDeadline(uint256)": {
        "details": "See {IGovernor-proposalDeadline}."
      },
      "proposalEta(uint256)": {
        "details": "Public accessor to check the eta of a queued proposal"
      },
      "proposalSnapshot(uint256)": {
        "details": "See {IGovernor-proposalSnapshot}."
      },
      "proposalThreshold()": {
        "details": "Part of the Governor Bravo's interface: _\"The number of votes required in order for a voter to become a proposer\"_."
      },
      "proposalVotes(uint256)": {
        "details": "Accessor to the internal vote counts."
      },
      "queue(address[],uint256[],bytes[],bytes32)": {
        "details": "Function to queue a proposal to the timelock."
      },
      "quorumDenominator()": {
        "details": "Returns the quorum denominator. Defaults to 100, but may be overridden."
      },
      "quorumNumerator()": {
        "details": "Returns the current quorum numerator. See {quorumDenominator}."
      },
      "quorumNumerator(uint256)": {
        "details": "Returns the quorum numerator at a specific block number. See {quorumDenominator}."
      },
      "relay(address,uint256,bytes)": {
        "details": "Relays a transaction or function call to an arbitrary target. In cases where the governance executor is some contract other than the governor itself, like when using a timelock, this function can be invoked in a governance proposal to recover tokens or Ether that was sent to the governor contract by mistake. Note that if the executor is simply the governor itself, use of `relay` is redundant."
      },
      "renounceOwnership()": {
        "details": "Leaves the contract without owner. It will not be possible to call `onlyOwner` functions anymore. Can only be called by the current owner. NOTE: Renouncing ownership will leave the contract without an owner, thereby removing any functionality that is only available to the owner."
      },
      "timelock()": {
        "details": "Public accessor to check the address of the timelock"
      },
      "transferOwnership(address)": {
        "details": "Transfers ownership of the contract to a new account (`newOwner`). Can only be called by the current owner."
      },
      "updateQuorumNumerator(uint256)": {
        "details": "Changes the quorum numerator. Emits a {QuorumNumeratorUpdated} event. Requirements: - Must be called through a governance proposal. - New numerator must be smaller or equal to the denominator."
      },
      "updateTimelock(address)": {
        "details": "Public endpoint to update the underlying timelock instance. Restricted to the timelock itself, so updates must be proposed, scheduled, and executed through governance proposals. CAUTION: It is not recommended to change the timelock while there are other queued governance proposals."
      },
      "version()": {
        "details": "See {IGovernor-version}."
      },
      "votingDelay()": {
        "details": "Delay, in number of block, between the proposal is created and the vote starts. This can be increassed to leave time for users to buy voting power, or delegate it, before the voting of a proposal starts."
      },
      "votingPeriod()": {
        "details": "Delay, in number of blocks, between the vote start and vote ends. NOTE: The {votingDelay} can delay the start of the vote. This must be considered when setting the voting duration compared to the voting delay."
      }
    },
    "version": 1
  },
  "userdoc": {
    "kind": "user",
    "methods": {
      "votingDelay()": {
        "notice": "module:user-config"
      },
      "votingPeriod()": {
        "notice": "module:user-config"
      }
    },
    "version": 1
  }
}