{
  "contractName": "MyGovernor",
  "abi": [
    {
      "inputs": [
        {
          "internalType": "contract IVotes",
          "name": "_token",
          "type": "address"
        },
        {
          "internalType": "contract TimelockController",
          "name": "_timelock",
          "type": "address"
        }
      ],
      "stateMutability": "nonpayable",
      "type": "constructor"
    },
    {
      "inputs": [],
      "name": "Empty",
      "type": "error"
    },
    {
      "anonymous": false,
      "inputs": [
        {
          "indexed": true,
          "internalType": "address",
          "name": "previousOwner",
          "type": "address"
        },
        {
          "indexed": true,
          "internalType": "address",
          "name": "newOwner",
          "type": "address"
        }
      ],
      "name": "OwnershipTransferred",
      "type": "event"
    },
    {
      "anonymous": false,
      "inputs": [
        {
          "indexed": false,
          "internalType": "uint256",
          "name": "proposalId",
          "type": "uint256"
        }
      ],
      "name": "ProposalCanceled",
      "type": "event"
    },
    {
      "anonymous": false,
      "inputs": [
        {
          "indexed": false,
          "internalType": "uint256",
          "name": "proposalId",
          "type": "uint256"
        },
        {
          "indexed": false,
          "internalType": "address",
          "name": "proposer",
          "type": "address"
        },
        {
          "indexed": false,
          "internalType": "address[]",
          "name": "targets",
          "type": "address[]"
        },
        {
          "indexed": false,
          "internalType": "uint256[]",
          "name": "values",
          "type": "uint256[]"
        },
        {
          "indexed": false,
          "internalType": "string[]",
          "name": "signatures",
          "type": "string[]"
        },
        {
          "indexed": false,
          "internalType": "bytes[]",
          "name": "calldatas",
          "type": "bytes[]"
        },
        {
          "indexed": false,
          "internalType": "uint256",
          "name": "startBlock",
          "type": "uint256"
        },
        {
          "indexed": false,
          "internalType": "uint256",
          "name": "endBlock",
          "type": "uint256"
        },
        {
          "indexed": false,
          "internalType": "string",
          "name": "description",
          "type": "string"
        }
      ],
      "name": "ProposalCreated",
      "type": "event"
    },
    {
      "anonymous": false,
      "inputs": [
        {
          "indexed": false,
          "internalType": "uint256",
          "name": "proposalId",
          "type": "uint256"
        }
      ],
      "name": "ProposalExecuted",
      "type": "event"
    },
    {
      "anonymous": false,
      "inputs": [
        {
          "indexed": false,
          "internalType": "uint256",
          "name": "proposalId",
          "type": "uint256"
        },
        {
          "indexed": false,
          "internalType": "uint256",
          "name": "eta",
          "type": "uint256"
        }
      ],
      "name": "ProposalQueued",
      "type": "event"
    },
    {
      "anonymous": false,
      "inputs": [
        {
          "indexed": false,
          "internalType": "uint256",
          "name": "oldQuorumNumerator",
          "type": "uint256"
        },
        {
          "indexed": false,
          "internalType": "uint256",
          "name": "newQuorumNumerator",
          "type": "uint256"
        }
      ],
      "name": "QuorumNumeratorUpdated",
      "type": "event"
    },
    {
      "anonymous": false,
      "inputs": [
        {
          "indexed": false,
          "internalType": "address",
          "name": "oldTimelock",
          "type": "address"
        },
        {
          "indexed": false,
          "internalType": "address",
          "name": "newTimelock",
          "type": "address"
        }
      ],
      "name": "TimelockChange",
      "type": "event"
    },
    {
      "anonymous": false,
      "inputs": [
        {
          "indexed": true,
          "internalType": "address",
          "name": "voter",
          "type": "address"
        },
        {
          "indexed": false,
          "internalType": "uint256",
          "name": "proposalId",
          "type": "uint256"
        },
        {
          "indexed": false,
          "internalType": "uint8",
          "name": "support",
          "type": "uint8"
        },
        {
          "indexed": false,
          "internalType": "uint256",
          "name": "weight",
          "type": "uint256"
        },
        {
          "indexed": false,
          "internalType": "string",
          "name": "reason",
          "type": "string"
        }
      ],
      "name": "VoteCast",
      "type": "event"
    },
    {
      "anonymous": false,
      "inputs": [
        {
          "indexed": true,
          "internalType": "address",
          "name": "voter",
          "type": "address"
        },
        {
          "indexed": false,
          "internalType": "uint256",
          "name": "proposalId",
          "type": "uint256"
        },
        {
          "indexed": false,
          "internalType": "uint8",
          "name": "support",
          "type": "uint8"
        },
        {
          "indexed": false,
          "internalType": "uint256",
          "name": "weight",
          "type": "uint256"
        },
        {
          "indexed": false,
          "internalType": "string",
          "name": "reason",
          "type": "string"
        },
        {
          "indexed": false,
          "internalType": "bytes",
          "name": "params",
          "type": "bytes"
        }
      ],
      "name": "VoteCastWithParams",
      "type": "event"
    },
    {
      "inputs": [],
      "name": "BALLOT_TYPEHASH",
      "outputs": [
        {
          "internalType": "bytes32",
          "name": "",
          "type": "bytes32"
        }
      ],
      "stateMutability": "view",
      "type": "function",
      "constant": true
    },
    {
      "inputs": [],
      "name": "COUNTING_MODE",
      "outputs": [
        {
          "internalType": "string",
          "name": "",
          "type": "string"
        }
      ],
      "stateMutability": "pure",
      "type": "function",
      "constant": true
    },
    {
      "inputs": [],
      "name": "EXTENDED_BALLOT_TYPEHASH",
      "outputs": [
        {
          "internalType": "bytes32",
          "name": "",
          "type": "bytes32"
        }
      ],
      "stateMutability": "view",
      "type": "function",
      "constant": true
    },
    {
      "inputs": [
        {
          "internalType": "uint256",
          "name": "proposalId",
          "type": "uint256"
        },
        {
          "internalType": "uint8",
          "name": "support",
          "type": "uint8"
        }
      ],
      "name": "castVote",
      "outputs": [
        {
          "internalType": "uint256",
          "name": "",
          "type": "uint256"
        }
      ],
      "stateMutability": "nonpayable",
      "type": "function"
    },
    {
      "inputs": [
        {
          "internalType": "uint256",
          "name": "proposalId",
          "type": "uint256"
        },
        {
          "internalType": "uint8",
          "name": "support",
          "type": "uint8"
        },
        {
          "internalType": "uint8",
          "name": "v",
          "type": "uint8"
        },
        {
          "internalType": "bytes32",
          "name": "r",
          "type": "bytes32"
        },
        {
          "internalType": "bytes32",
          "name": "s",
          "type": "bytes32"
        }
      ],
      "name": "castVoteBySig",
      "outputs": [
        {
          "internalType": "uint256",
          "name": "",
          "type": "uint256"
        }
      ],
      "stateMutability": "nonpayable",
      "type": "function"
    },
    {
      "inputs": [
        {
          "internalType": "uint256",
          "name": "proposalId",
          "type": "uint256"
        },
        {
          "internalType": "uint8",
          "name": "support",
          "type": "uint8"
        },
        {
          "internalType": "string",
          "name": "reason",
          "type": "string"
        }
      ],
      "name": "castVoteWithReason",
      "outputs": [
        {
          "internalType": "uint256",
          "name": "",
          "type": "uint256"
        }
      ],
      "stateMutability": "nonpayable",
      "type": "function"
    },
    {
      "inputs": [
        {
          "internalType": "uint256",
          "name": "proposalId",
          "type": "uint256"
        },
        {
          "internalType": "uint8",
          "name": "support",
          "type": "uint8"
        },
        {
          "internalType": "string",
          "name": "reason",
          "type": "string"
        },
        {
          "internalType": "bytes",
          "name": "params",
          "type": "bytes"
        }
      ],
      "name": "castVoteWithReasonAndParams",
      "outputs": [
        {
          "internalType": "uint256",
          "name": "",
          "type": "uint256"
        }
      ],
      "stateMutability": "nonpayable",
      "type": "function"
    },
    {
      "inputs": [
        {
          "internalType": "uint256",
          "name": "proposalId",
          "type": "uint256"
        },
        {
          "internalType": "uint8",
          "name": "support",
          "type": "uint8"
        },
        {
          "internalType": "string",
          "name": "reason",
          "type": "string"
        },
        {
          "internalType": "bytes",
          "name": "params",
          "type": "bytes"
        },
        {
          "internalType": "uint8",
          "name": "v",
          "type": "uint8"
        },
        {
          "internalType": "bytes32",
          "name": "r",
          "type": "bytes32"
        },
        {
          "internalType": "bytes32",
          "name": "s",
          "type": "bytes32"
        }
      ],
      "name": "castVoteWithReasonAndParamsBySig",
      "outputs": [
        {
          "internalType": "uint256",
          "name": "",
          "type": "uint256"
        }
      ],
      "stateMutability": "nonpayable",
      "type": "function"
    },
    {
      "inputs": [
        {
          "internalType": "address[]",
          "name": "targets",
          "type": "address[]"
        },
        {
          "internalType": "uint256[]",
          "name": "values",
          "type": "uint256[]"
        },
        {
          "internalType": "bytes[]",
          "name": "calldatas",
          "type": "bytes[]"
        },
        {
          "internalType": "bytes32",
          "name": "descriptionHash",
          "type": "bytes32"
        }
      ],
      "name": "execute",
      "outputs": [
        {
          "internalType": "uint256",
          "name": "",
          "type": "uint256"
        }
      ],
      "stateMutability": "payable",
      "type": "function",
      "payable": true
    },
    {
      "inputs": [
        {
          "internalType": "address",
          "name": "account",
          "type": "address"
        },
        {
          "internalType": "uint256",
          "name": "blockNumber",
          "type": "uint256"
        }
      ],
      "name": "getVotes",
      "outputs": [
        {
          "internalType": "uint256",
          "name": "",
          "type": "uint256"
        }
      ],
      "stateMutability": "view",
      "type": "function",
      "constant": true
    },
    {
      "inputs": [
        {
          "internalType": "address",
          "name": "account",
          "type": "address"
        },
        {
          "internalType": "uint256",
          "name": "blockNumber",
          "type": "uint256"
        },
        {
          "internalType": "bytes",
          "name": "params",
          "type": "bytes"
        }
      ],
      "name": "getVotesWithParams",
      "outputs": [
        {
          "internalType": "uint256",
          "name": "",
          "type": "uint256"
        }
      ],
      "stateMutability": "view",
      "type": "function",
      "constant": true
    },
    {
      "inputs": [
        {
          "internalType": "uint256",
          "name": "proposalId",
          "type": "uint256"
        },
        {
          "internalType": "address",
          "name": "account",
          "type": "address"
        }
      ],
      "name": "hasVoted",
      "outputs": [
        {
          "internalType": "bool",
          "name": "",
          "type": "bool"
        }
      ],
      "stateMutability": "view",
      "type": "function",
      "constant": true
    },
    {
      "inputs": [
        {
          "internalType": "address[]",
          "name": "targets",
          "type": "address[]"
        },
        {
          "internalType": "uint256[]",
          "name": "values",
          "type": "uint256[]"
        },
        {
          "internalType": "bytes[]",
          "name": "calldatas",
          "type": "bytes[]"
        },
        {
          "internalType": "bytes32",
          "name": "descriptionHash",
          "type": "bytes32"
        }
      ],
      "name": "hashProposal",
      "outputs": [
        {
          "internalType": "uint256",
          "name": "",
          "type": "uint256"
        }
      ],
      "stateMutability": "pure",
      "type": "function",
      "constant": true
    },
    {
      "inputs": [],
      "name": "name",
      "outputs": [
        {
          "internalType": "string",
          "name": "",
          "type": "string"
        }
      ],
      "stateMutability": "view",
      "type": "function",
      "constant": true
    },
    {
      "inputs": [
        {
          "internalType": "address",
          "name": "",
          "type": "address"
        },
        {
          "internalType": "address",
          "name": "",
          "type": "address"
        },
        {
          "internalType": "uint256[]",
          "name": "",
          "type": "uint256[]"
        },
        {
          "internalType": "uint256[]",
          "name": "",
          "type": "uint256[]"
        },
        {
          "internalType": "bytes",
          "name": "",
          "type": "bytes"
        }
      ],
      "name": "onERC1155BatchReceived",
      "outputs": [
        {
          "internalType": "bytes4",
          "name": "",
          "type": "bytes4"
        }
      ],
      "stateMutability": "nonpayable",
      "type": "function"
    },
    {
      "inputs": [
        {
          "internalType": "address",
          "name": "",
          "type": "address"
        },
        {
          "internalType": "address",
          "name": "",
          "type": "address"
        },
        {
          "internalType": "uint256",
          "name": "",
          "type": "uint256"
        },
        {
          "internalType": "uint256",
          "name": "",
          "type": "uint256"
        },
        {
          "internalType": "bytes",
          "name": "",
          "type": "bytes"
        }
      ],
      "name": "onERC1155Received",
      "outputs": [
        {
          "internalType": "bytes4",
          "name": "",
          "type": "bytes4"
        }
      ],
      "stateMutability": "nonpayable",
      "type": "function"
    },
    {
      "inputs": [
        {
          "internalType": "address",
          "name": "",
          "type": "address"
        },
        {
          "internalType": "address",
          "name": "",
          "type": "address"
        },
        {
          "internalType": "uint256",
          "name": "",
          "type": "uint256"
        },
        {
          "internalType": "bytes",
          "name": "",
          "type": "bytes"
        }
      ],
      "name": "onERC721Received",
      "outputs": [
        {
          "internalType": "bytes4",
          "name": "",
          "type": "bytes4"
        }
      ],
      "stateMutability": "nonpayable",
      "type": "function"
    },
    {
      "inputs": [],
      "name": "owner",
      "outputs": [
        {
          "internalType": "address",
          "name": "",
          "type": "address"
        }
      ],
      "stateMutability": "view",
      "type": "function",
      "constant": true
    },
    {
      "inputs": [
        {
          "internalType": "uint256",
          "name": "proposalId",
          "type": "uint256"
        }
      ],
      "name": "proposalDeadline",
      "outputs": [
        {
          "internalType": "uint256",
          "name": "",
          "type": "uint256"
        }
      ],
      "stateMutability": "view",
      "type": "function",
      "constant": true
    },
    {
      "inputs": [
        {
          "internalType": "uint256",
          "name": "proposalId",
          "type": "uint256"
        }
      ],
      "name": "proposalEta",
      "outputs": [
        {
          "internalType": "uint256",
          "name": "",
          "type": "uint256"
        }
      ],
      "stateMutability": "view",
      "type": "function",
      "constant": true
    },
    {
      "inputs": [
        {
          "internalType": "uint256",
          "name": "proposalId",
          "type": "uint256"
        }
      ],
      "name": "proposalSnapshot",
      "outputs": [
        {
          "internalType": "uint256",
          "name": "",
          "type": "uint256"
        }
      ],
      "stateMutability": "view",
      "type": "function",
      "constant": true
    },
    {
      "inputs": [
        {
          "internalType": "uint256",
          "name": "proposalId",
          "type": "uint256"
        }
      ],
      "name": "proposalVotes",
      "outputs": [
        {
          "internalType": "uint256",
          "name": "againstVotes",
          "type": "uint256"
        },
        {
          "internalType": "uint256",
          "name": "forVotes",
          "type": "uint256"
        },
        {
          "internalType": "uint256",
          "name": "abstainVotes",
          "type": "uint256"
        }
      ],
      "stateMutability": "view",
      "type": "function",
      "constant": true
    },
    {
      "inputs": [
        {
          "internalType": "address[]",
          "name": "targets",
          "type": "address[]"
        },
        {
          "internalType": "uint256[]",
          "name": "values",
          "type": "uint256[]"
        },
        {
          "internalType": "bytes[]",
          "name": "calldatas",
          "type": "bytes[]"
        },
        {
          "internalType": "bytes32",
          "name": "descriptionHash",
          "type": "bytes32"
        }
      ],
      "name": "queue",
      "outputs": [
        {
          "internalType": "uint256",
          "name": "",
          "type": "uint256"
        }
      ],
      "stateMutability": "nonpayable",
      "type": "function"
    },
    {
      "inputs": [],
      "name": "quorumDenominator",
      "outputs": [
        {
          "internalType": "uint256",
          "name": "",
          "type": "uint256"
        }
      ],
      "stateMutability": "view",
      "type": "function",
      "constant": true
    },
    {
      "inputs": [
        {
          "internalType": "uint256",
          "name": "blockNumber",
          "type": "uint256"
        }
      ],
      "name": "quorumNumerator",
      "outputs": [
        {
          "internalType": "uint256",
          "name": "",
          "type": "uint256"
        }
      ],
      "stateMutability": "view",
      "type": "function",
      "constant": true
    },
    {
      "inputs": [],
      "name": "quorumNumerator",
      "outputs": [
        {
          "internalType": "uint256",
          "name": "",
          "type": "uint256"
        }
      ],
      "stateMutability": "view",
      "type": "function",
      "constant": true
    },
    {
      "inputs": [
        {
          "internalType": "address",
          "name": "target",
          "type": "address"
        },
        {
          "internalType": "uint256",
          "name": "value",
          "type": "uint256"
        },
        {
          "internalType": "bytes",
          "name": "data",
          "type": "bytes"
        }
      ],
      "name": "relay",
      "outputs": [],
      "stateMutability": "payable",
      "type": "function",
      "payable": true
    },
    {
      "inputs": [],
      "name": "renounceOwnership",
      "outputs": [],
      "stateMutability": "nonpayable",
      "type": "function"
    },
    {
      "inputs": [],
      "name": "timelock",
      "outputs": [
        {
          "internalType": "address",
          "name": "",
          "type": "address"
        }
      ],
      "stateMutability": "view",
      "type": "function",
      "constant": true
    },
    {
      "inputs": [],
      "name": "token",
      "outputs": [
        {
          "internalType": "contract IVotes",
          "name": "",
          "type": "address"
        }
      ],
      "stateMutability": "view",
      "type": "function",
      "constant": true
    },
    {
      "inputs": [
        {
          "internalType": "address",
          "name": "newOwner",
          "type": "address"
        }
      ],
      "name": "transferOwnership",
      "outputs": [],
      "stateMutability": "nonpayable",
      "type": "function"
    },
    {
      "inputs": [
        {
          "internalType": "uint256",
          "name": "newQuorumNumerator",
          "type": "uint256"
        }
      ],
      "name": "updateQuorumNumerator",
      "outputs": [],
      "stateMutability": "nonpayable",
      "type": "function"
    },
    {
      "inputs": [
        {
          "internalType": "contract TimelockController",
          "name": "newTimelock",
          "type": "address"
        }
      ],
      "name": "updateTimelock",
      "outputs": [],
      "stateMutability": "nonpayable",
      "type": "function"
    },
    {
      "inputs": [],
      "name": "version",
      "outputs": [
        {
          "internalType": "string",
          "name": "",
          "type": "string"
        }
      ],
      "stateMutability": "view",
      "type": "function",
      "constant": true
    },
    {
      "stateMutability": "payable",
      "type": "receive",
      "payable": true
    },
    {
      "inputs": [
        {
          "internalType": "address payable",
          "name": "_sender",
          "type": "address"
        },
        {
          "internalType": "uint256",
          "name": "_amount",
          "type": "uint256"
        }
      ],
      "name": "pay_transfer",
      "outputs": [
        {
          "internalType": "bool",
          "name": "",
          "type": "bool"
        }
      ],
      "stateMutability": "nonpayable",
      "type": "function"
    },
    {
      "inputs": [],
      "name": "votingDelay",
      "outputs": [
        {
          "internalType": "uint256",
          "name": "",
          "type": "uint256"
        }
      ],
      "stateMutability": "pure",
      "type": "function",
      "constant": true
    },
    {
      "inputs": [],
      "name": "proposalThreshold",
      "outputs": [
        {
          "internalType": "uint256",
          "name": "",
          "type": "uint256"
        }
      ],
      "stateMutability": "view",
      "type": "function",
      "constant": true
    },
    {
      "inputs": [
        {
          "internalType": "uint256",
          "name": "value",
          "type": "uint256"
        }
      ],
      "name": "setProposalThreshold",
      "outputs": [],
      "stateMutability": "nonpayable",
      "type": "function"
    },
    {
      "inputs": [],
      "name": "votingPeriod",
      "outputs": [
        {
          "internalType": "uint256",
          "name": "",
          "type": "uint256"
        }
      ],
      "stateMutability": "view",
      "type": "function",
      "constant": true
    },
    {
      "inputs": [
        {
          "internalType": "uint256",
          "name": "value",
          "type": "uint256"
        }
      ],
      "name": "setVotingPeriod",
      "outputs": [],
      "stateMutability": "nonpayable",
      "type": "function"
    },
    {
      "inputs": [
        {
          "internalType": "uint256",
          "name": "blockNumber",
          "type": "uint256"
        }
      ],
      "name": "quorum",
      "outputs": [
        {
          "internalType": "uint256",
          "name": "",
          "type": "uint256"
        }
      ],
      "stateMutability": "view",
      "type": "function",
      "constant": true
    },
    {
      "inputs": [
        {
          "internalType": "uint256",
          "name": "proposalId",
          "type": "uint256"
        }
      ],
      "name": "state",
      "outputs": [
        {
          "internalType": "enum IGovernor.ProposalState",
          "name": "",
          "type": "uint8"
        }
      ],
      "stateMutability": "view",
      "type": "function",
      "constant": true
    },
    {
      "inputs": [
        {
          "internalType": "address[]",
          "name": "targets",
          "type": "address[]"
        },
        {
          "internalType": "uint256[]",
          "name": "values",
          "type": "uint256[]"
        },
        {
          "internalType": "bytes[]",
          "name": "calldatas",
          "type": "bytes[]"
        },
        {
          "internalType": "string",
          "name": "description",
          "type": "string"
        }
      ],
      "name": "propose",
      "outputs": [
        {
          "internalType": "uint256",
          "name": "",
          "type": "uint256"
        }
      ],
      "stateMutability": "nonpayable",
      "type": "function"
    },
    {
      "inputs": [
        {
          "internalType": "bytes4",
          "name": "interfaceId",
          "type": "bytes4"
        }
      ],
      "name": "supportsInterface",
      "outputs": [
        {
          "internalType": "bool",
          "name": "",
          "type": "bool"
        }
      ],
      "stateMutability": "view",
      "type": "function",
      "constant": true
    }
  ],
  "bytecode": "0x610160604052670de0b6b3a7640000600a556004600b553480156200002357600080fd5b50604051620042fc380380620042fc8339810160408190526200004691620007c7565b80600a836040518060400160405280600a81526020016926bca3b7bb32b93737b960b11b815250806200007e6200015e60201b60201c565b815160208084019190912082518383012060e08290526101008190524660a0818152604080517f8b73c3c69bb8fe3d512ecc4cf759cc79239f7b179b0ffacaa9a75d522b39400f81880181905281830187905260608201869052608082019490945230818401528151808203909301835260c00190528051940193909320919290916080523060c052610120525050825162000124925060009150602084019062000712565b50506001600160a01b0316610140526200013e8162000179565b506200014a81620002f5565b5062000156336200035e565b505062000868565b6040805180820190915260018152603160f81b602082015290565b6064811115620002025760405162461bcd60e51b815260206004820152604360248201527f476f7665726e6f72566f74657351756f72756d4672616374696f6e3a2071756f60448201527f72756d4e756d657261746f72206f7665722071756f72756d44656e6f6d696e616064820152623a37b960e91b608482015260a4015b60405180910390fd5b60006200020e620003b0565b90508015801590620002205750600654155b156200029b5760066000016040518060400160405280600063ffffffff1681526020016200025984620003e860201b620014521760201c565b6001600160e01b0390811690915282546001810184556000938452602093849020835194909301519091166401000000000263ffffffff909316929092179101555b620002b68260066200045760201b620014bf1790919060201c565b505060408051828152602081018490527f0553476bf02ef2726e8ce5ced78d63e26e602e4a2257b1f559418e24b4633997910160405180910390a15050565b600754604080516001600160a01b03928316815291831660208301527f08f74ea46ef7894f65eabfb5e6e695de773a000b47c529ab559178069b226401910160405180910390a1600780546001600160a01b0319166001600160a01b0392909216919091179055565b600980546001600160a01b038381166001600160a01b0319831681179093556040519116919082907f8be0079c531659141344cd1fd0a4f28419497f9722a3daafe3b4186f6b6457e090600090a35050565b60065460009015620003e157620003d36006620004aa60201b620014f51760201c565b6001600160e01b0316905090565b5060055490565b60006001600160e01b03821115620004535760405162461bcd60e51b815260206004820152602760248201527f53616665436173743a2076616c756520646f65736e27742066697420696e20326044820152663234206269747360c81b6064820152608401620001f9565b5090565b60008062000494846000016200047843620004f860201b620015331760201c565b6200048e86620003e860201b620014521760201c565b6200055f565b6001600160e01b03918216969116945092505050565b80546000908015620004ee57620004d683620004c860018462000806565b600091825260209091200190565b5464010000000090046001600160e01b0316620004f1565b60005b9392505050565b600063ffffffff821115620004535760405162461bcd60e51b815260206004820152602660248201527f53616665436173743a2076616c756520646f65736e27742066697420696e203360448201526532206269747360d01b6064820152608401620001f9565b825460009081908015620006b45760006200058187620004c860018562000806565b60408051808201909152905463ffffffff8082168084526401000000009092046001600160e01b031660208401529192509087161015620006055760405162461bcd60e51b815260206004820152601760248201527f436865636b706f696e743a20696e76616c6964206b65790000000000000000006044820152606401620001f9565b805163ffffffff8088169116036200065357846200062a88620004c860018662000806565b80546001600160e01b03929092166401000000000263ffffffff909216919091179055620006a3565b6040805180820190915263ffffffff80881682526001600160e01b0380881660208085019182528b54600181018d5560008d81529190912094519151909216640100000000029216919091179101555b6020015192508391506200070a9050565b50506040805180820190915263ffffffff80851682526001600160e01b0380851660208085019182528854600181018a5560008a8152918220955192519093166401000000000291909316179201919091559050815b935093915050565b82805462000720906200082c565b90600052602060002090601f0160209004810192826200074457600085556200078f565b82601f106200075f57805160ff19168380011785556200078f565b828001600101855582156200078f579182015b828111156200078f57825182559160200191906001019062000772565b50620004539291505b8082111562000453576000815560010162000798565b6001600160a01b0381168114620007c457600080fd5b50565b60008060408385031215620007db57600080fd5b8251620007e881620007ae565b6020840151909250620007fb81620007ae565b809150509250929050565b6000828210156200082757634e487b7160e01b600052601160045260246000fd5b500390565b600181811c908216806200084157607f821691505b6020821081036200086257634e487b7160e01b600052602260045260246000fd5b50919050565b60805160a05160c05160e051610100516101205161014051613a2b620008d1600039600081816108be0152818161200d015261211f0152600061243e0152600061248d01526000612468015260006123c1015260006123eb015260006124150152613a2b6000f3fe60806040526004361061026b5760003560e01c80637d5e81e211610144578063c59057e4116100b6578063eb9019d41161007a578063eb9019d414610800578063ece40cc114610820578063f23a6e6114610840578063f2fde38b1461086c578063f8ce560a1461088c578063fc0c546a146108ac57600080fd5b8063c59057e414610728578063d33219b414610748578063dd4e2ba514610766578063deaaa7cc146107ac578063ea0217cf146107e057600080fd5b8063a890c91011610108578063a890c91014610674578063ab58fb8e14610694578063b58131b0146106b4578063bc197c81146106c9578063c01f9e37146106f5578063c28bc2fa1461071557600080fd5b80637d5e81e2146105d95780638da5cb5b146105f957806397c3d3341461062b5780639a802a6d1461063f578063a7713a701461065f57600080fd5b80633932abb1116101dd57806354fd4d50116101a157806354fd4d501461051a57806356781388146105445780635f398a141461056457806360c4247f14610584578063715018a6146105a45780637b3c71d3146105b957600080fd5b80633932abb11461041a5780633bccf4fd1461042e5780633e4f49e61461044e578063438596321461047b578063544ffc9c146104c557600080fd5b8063150b7a021161022f578063150b7a021461032f578063160cbed7146103735780632656227d1461039357806328f1506d146103a65780632d63f693146103c65780632fe3e261146103e657600080fd5b806301ffc9a71461027757806302a251a3146102ac57806303420181146102cb57806306f3f9e6146102eb57806306fdde031461030d57600080fd5b3661027257005b600080fd5b34801561028357600080fd5b50610297610292366004612b64565b6108e0565b60405190151581526020015b60405180910390f35b3480156102b857600080fd5b50600b545b6040519081526020016102a3565b3480156102d757600080fd5b506102bd6102e6366004612ca2565b6108f1565b3480156102f757600080fd5b5061030b610306366004612d48565b6109e9565b005b34801561031957600080fd5b50610322610a7c565b6040516102a39190612dae565b34801561033b57600080fd5b5061035a61034a366004612dd6565b630a85bd0160e11b949350505050565b6040516001600160e01b031990911681526020016102a3565b34801561037f57600080fd5b506102bd61038e366004612fb2565b610b0e565b6102bd6103a1366004612fb2565b610d0e565b3480156103b257600080fd5b506102976103c1366004613041565b610dfb565b3480156103d257600080fd5b506102bd6103e1366004612d48565b610e7b565b3480156103f257600080fd5b506102bd7fb3b3f3b703cd84ce352197dcff232b1b5d3cfb2025ce47cf04742d0651f1af8881565b34801561042657600080fd5b5060016102bd565b34801561043a57600080fd5b506102bd61044936600461306d565b610eb2565b34801561045a57600080fd5b5061046e610469366004612d48565b610f28565b6040516102a391906130d1565b34801561048757600080fd5b506102976104963660046130f9565b60008281526004602090815260408083206001600160a01b038516845260030190915290205460ff1692915050565b3480156104d157600080fd5b506104ff6104e0366004612d48565b6000908152600460205260409020805460018201546002909201549092565b604080519384526020840192909252908201526060016102a3565b34801561052657600080fd5b506040805180820190915260018152603160f81b6020820152610322565b34801561055057600080fd5b506102bd61055f366004613129565b610f33565b34801561057057600080fd5b506102bd61057f366004613155565b610f5c565b34801561059057600080fd5b506102bd61059f366004612d48565b610fa6565b3480156105b057600080fd5b5061030b61103d565b3480156105c557600080fd5b506102bd6105d43660046131d8565b611051565b3480156105e557600080fd5b506102bd6105f4366004613231565b6110a3565b34801561060557600080fd5b506009546001600160a01b03165b6040516001600160a01b0390911681526020016102a3565b34801561063757600080fd5b5060646102bd565b34801561064b57600080fd5b506102bd61065a3660046132e5565b6110ba565b34801561066b57600080fd5b506102bd6110d1565b34801561068057600080fd5b5061030b61068f36600461333d565b6110fd565b3480156106a057600080fd5b506102bd6106af366004612d48565b611184565b3480156106c057600080fd5b50600a546102bd565b3480156106d557600080fd5b5061035a6106e436600461335a565b63bc197c8160e01b95945050505050565b34801561070157600080fd5b506102bd610710366004612d48565b61121e565b61030b6107233660046133ed565b61124d565b34801561073457600080fd5b506102bd610743366004612fb2565b61135c565b34801561075457600080fd5b506007546001600160a01b0316610613565b34801561077257600080fd5b506040805180820190915260208082527f737570706f72743d627261766f2671756f72756d3d666f722c6162737461696e90820152610322565b3480156107b857600080fd5b506102bd7f150214d74d59b7d1e90c73fc22ef3d991dd0a76b046543d4d80ab92d2a50328f81565b3480156107ec57600080fd5b5061030b6107fb366004612d48565b611396565b34801561080c57600080fd5b506102bd61081b366004613041565b6113a3565b34801561082c57600080fd5b5061030b61083b366004612d48565b6113c4565b34801561084c57600080fd5b5061035a61085b366004613430565b63f23a6e6160e01b95945050505050565b34801561087857600080fd5b5061030b61088736600461333d565b6113d1565b34801561089857600080fd5b506102bd6108a7366004612d48565b611447565b3480156108b857600080fd5b506106137f000000000000000000000000000000000000000000000000000000000000000081565b60006108eb82611598565b92915050565b60008061099561098d7fb3b3f3b703cd84ce352197dcff232b1b5d3cfb2025ce47cf04742d0651f1af888c8c8c8c60405161092d929190613498565b60405180910390208b80519060200120604051602001610972959493929190948552602085019390935260ff9190911660408401526060830152608082015260a00190565b604051602081830303815290604052805190602001206115bd565b86868661160b565b90506109db8a828b8b8b8080601f0160208091040260200160405190810160405280939291908181526020018383808284376000920191909152508d9250611629915050565b9a9950505050505050505050565b6109f161178e565b6001600160a01b0316336001600160a01b031614610a2a5760405162461bcd60e51b8152600401610a21906134a8565b60405180910390fd5b30610a3361178e565b6001600160a01b031614610a705760008036604051610a53929190613498565b604051809103902090505b80610a6960026117a2565b03610a5e57505b610a7981611821565b50565b606060008054610a8b906134df565b80601f0160208091040260200160405190810160405280929190818152602001828054610ab7906134df565b8015610b045780601f10610ad957610100808354040283529160200191610b04565b820191906000526020600020905b815481529060010190602001808311610ae757829003601f168201915b5050505050905090565b600080610b1d8686868661135c565b90506004610b2a82610f28565b6007811115610b3b57610b3b6130bb565b14610b585760405162461bcd60e51b8152600401610a2190613519565b6007546040805163793d064960e11b815290516000926001600160a01b03169163f27a0c929160048083019260209291908290030181865afa158015610ba2573d6000803e3d6000fd5b505050506040513d601f19601f82011682018060405250810190610bc6919061355a565b60075460405163b1c5f42760e01b81529192506001600160a01b03169063b1c5f42790610c00908a908a908a906000908b9060040161363c565b602060405180830381865afa158015610c1d573d6000803e3d6000fd5b505050506040513d601f19601f82011682018060405250810190610c41919061355a565b6000838152600860205260408082209290925560075491516308f2a0bb60e41b81526001600160a01b0390921691638f2a0bb091610c8c918b918b918b91908b90899060040161368a565b600060405180830381600087803b158015610ca657600080fd5b505af1158015610cba573d6000803e3d6000fd5b505050507f9a2e42fd6722813d69113e7d0079d3d940171428df7373df9c7f7617cfda2892828242610cec91906136f8565b6040805192835260208301919091520160405180910390a15095945050505050565b600080610d1d8686868661135c565b90506000610d2a82610f28565b90506004816007811115610d4057610d406130bb565b1480610d5d57506005816007811115610d5b57610d5b6130bb565b145b610d795760405162461bcd60e51b8152600401610a2190613519565b600082815260016020818152604092839020600201805460ff191690921790915590518381527f712ae1383f79ac853f8d882153778e0260ef8f03b504e2866e0593e04d2b291f910160405180910390a1610dd7828888888861196d565b610de48288888888611a0f565b610df18288888888611a1c565b5095945050505050565b6000333014610e3b5760405162461bcd60e51b815260206004820152600c60248201526b3737ba1033b7bb32b93737b960a11b6044820152606401610a21565b6040516001600160a01b0384169083156108fc029084906000818181858888f19350505050158015610e71573d6000803e3d6000fd5b5060019392505050565b60008181526001602090815260408083208151928301909152546001600160401b0316908190525b6001600160401b031692915050565b604080517f150214d74d59b7d1e90c73fc22ef3d991dd0a76b046543d4d80ab92d2a50328f602082015290810186905260ff851660608201526000908190610f009061098d90608001610972565b9050610f1d87828860405180602001604052806000815250611a55565b979650505050505050565b60006108eb82611a78565b600080339050610f5484828560405180602001604052806000815250611a55565b949350505050565b600080339050610f1d87828888888080601f0160208091040260200160405190810160405280939291908181526020018383808284376000920191909152508a9250611629915050565b600654600090808203610fbd575050600554919050565b60006006610fcc600184613710565b81548110610fdc57610fdc613727565b60009182526020918290206040805180820190915291015463ffffffff8116808352600160201b9091046001600160e01b0316928201929092529150841061103257602001516001600160e01b03169392505050565b610f54600685611bc2565b611045611c74565b61104f6000611cce565b565b60008033905061109986828787878080601f016020809104026020016040519081016040528093929190818152602001838380828437600092019190915250611a5592505050565b9695505050505050565b60006110b185858585611d20565b95945050505050565b60006110c7848484611fe4565b90505b9392505050565b600654600090156110f4576110e660066114f5565b6001600160e01b0316905090565b6005545b905090565b61110561178e565b6001600160a01b0316336001600160a01b0316146111355760405162461bcd60e51b8152600401610a21906134a8565b3061113e61178e565b6001600160a01b03161461117b576000803660405161115e929190613498565b604051809103902090505b8061117460026117a2565b0361116957505b610a798161207a565b60075460008281526008602052604080822054905163d45c443560e01b81526004810191909152909182916001600160a01b039091169063d45c443590602401602060405180830381865afa1580156111e1573d6000803e3d6000fd5b505050506040513d601f19601f82011682018060405250810190611205919061355a565b90508060011461121557806110ca565b60009392505050565b60008181526001602081815260408084208151928301909152909101546001600160401b031690819052610ea3565b61125561178e565b6001600160a01b0316336001600160a01b0316146112855760405162461bcd60e51b8152600401610a21906134a8565b3061128e61178e565b6001600160a01b0316146112cb57600080366040516112ae929190613498565b604051809103902090505b806112c460026117a2565b036112b957505b600080856001600160a01b03168585856040516112e9929190613498565b60006040518083038185875af1925050503d8060008114611326576040519150601f19603f3d011682016040523d82523d6000602084013e61132b565b606091505b509150915061135382826040518060600160405280602881526020016139ce602891396120e3565b50505050505050565b600084848484604051602001611375949392919061373d565b60408051601f19818403018152919052805160209091012095945050505050565b61139e611c74565b600b55565b60006110ca83836113bf60408051602081019091526000815290565b611fe4565b6113cc611c74565b600a55565b6113d9611c74565b6001600160a01b03811661143e5760405162461bcd60e51b815260206004820152602660248201527f4f776e61626c653a206e6577206f776e657220697320746865207a65726f206160448201526564647265737360d01b6064820152608401610a21565b610a7981611cce565b60006108eb826120fc565b60006001600160e01b038211156114bb5760405162461bcd60e51b815260206004820152602760248201527f53616665436173743a2076616c756520646f65736e27742066697420696e20326044820152663234206269747360c81b6064820152608401610a21565b5090565b6000806114dd846114cf43611533565b6114d886611452565b6121a6565b6001600160e01b0391821693501690505b9250929050565b805460009080156112155761151d8361150f600184613710565b600091825260209091200190565b54600160201b90046001600160e01b03166110ca565b600063ffffffff8211156114bb5760405162461bcd60e51b815260206004820152602660248201527f53616665436173743a2076616c756520646f65736e27742066697420696e203360448201526532206269747360d01b6064820152608401610a21565b60006001600160e01b03198216636e665ced60e01b14806108eb57506108eb82612349565b60006108eb6115ca6123b4565b8360405161190160f01b6020820152602281018390526042810182905260009060620160405160208183030381529060405280519060200120905092915050565b600080600061161c878787876124db565b91509150610df18161259f565b600085815260016020819052604082209061164388610f28565b6007811115611654576116546130bb565b146116ad5760405162461bcd60e51b815260206004820152602360248201527f476f7665726e6f723a20766f7465206e6f742063757272656e746c792061637460448201526269766560e81b6064820152608401610a21565b604080516020810190915281546001600160401b0316908190526000906116d690889086611fe4565b90506116e588888884886126e9565b835160000361173a57866001600160a01b03167fb8e138887d0aa13bab447e82de9d5c1777041ecd21ca36ba824ff1e6c07ddda48988848960405161172d9493929190613788565b60405180910390a2610f1d565b866001600160a01b03167fe2babfbac5889a709b63bb7f598b324e08bc5a4fb9ec647fb3cbc9ec07eb8712898884898960405161177b9594939291906137b0565b60405180910390a2979650505050505050565b60006110f86007546001600160a01b031690565b60006117bd8254600f81810b600160801b909204900b131590565b156117db57604051631ed9509560e11b815260040160405180910390fd5b508054600f0b6000818152600180840160205260408220805492905583546fffffffffffffffffffffffffffffffff191692016001600160801b03169190911790915590565b60648111156118a45760405162461bcd60e51b815260206004820152604360248201527f476f7665726e6f72566f74657351756f72756d4672616374696f6e3a2071756f60448201527f72756d4e756d657261746f72206f7665722071756f72756d44656e6f6d696e616064820152623a37b960e91b608482015260a401610a21565b60006118ae6110d1565b905080158015906118bf5750600654155b15611923576040805180820190915260008152600690602081016118e284611452565b6001600160e01b039081169091528254600181018455600093845260209384902083519490930151909116600160201b0263ffffffff909316929092179101555b61192e6006836114bf565b505060408051828152602081018490527f0553476bf02ef2726e8ce5ced78d63e26e602e4a2257b1f559418e24b4633997910160405180910390a15050565b3061197661178e565b6001600160a01b031614611a085760005b8451811015611a0657306001600160a01b03168582815181106119ac576119ac613727565b60200260200101516001600160a01b0316036119f6576119f68382815181106119d7576119d7613727565b602002602001015180519060200120600261286390919063ffffffff16565b6119ff816137f6565b9050611987565b505b5050505050565b611a08858585858561289f565b30611a2561178e565b6001600160a01b031614611a0857600254600f81810b600160801b909204900b1315611a08576000600255611a08565b60006110b185858585611a7360408051602081019091526000815290565b611629565b600080611a8483612913565b90506004816007811115611a9a57611a9a6130bb565b14611aa55792915050565b60008381526008602052604090205480611ac0575092915050565b600754604051632ab0f52960e01b8152600481018390526001600160a01b0390911690632ab0f52990602401602060405180830381865afa158015611b09573d6000803e3d6000fd5b505050506040513d601f19601f82011682018060405250810190611b2d919061380f565b15611b3c575060079392505050565b600754604051632c258a9f60e11b8152600481018390526001600160a01b039091169063584b153e90602401602060405180830381865afa158015611b85573d6000803e3d6000fd5b505050506040513d601f19601f82011682018060405250810190611ba9919061380f565b15611bb8575060059392505050565b5060029392505050565b6000438210611c135760405162461bcd60e51b815260206004820181905260248201527f436865636b706f696e74733a20626c6f636b206e6f7420796574206d696e65646044820152606401610a21565b6000611c1e83611533565b84549091506000611c3186848385612a22565b90508015611c5e57611c488661150f600184613710565b54600160201b90046001600160e01b0316611c61565b60005b6001600160e01b03169695505050505050565b6009546001600160a01b0316331461104f5760405162461bcd60e51b815260206004820181905260248201527f4f776e61626c653a2063616c6c6572206973206e6f7420746865206f776e65726044820152606401610a21565b600980546001600160a01b038381166001600160a01b0319831681179093556040519116919082907f8be0079c531659141344cd1fd0a4f28419497f9722a3daafe3b4186f6b6457e090600090a35050565b6000611d2b600a5490565b611d3a3361081b600143613710565b1015611da25760405162461bcd60e51b815260206004820152603160248201527f476f7665726e6f723a2070726f706f73657220766f7465732062656c6f7720706044820152701c9bdc1bdcd85b081d1a1c995cda1bdb19607a1b6064820152608401610a21565b6000611db7868686868051906020012061135c565b90508451865114611dda5760405162461bcd60e51b8152600401610a2190613831565b8351865114611dfb5760405162461bcd60e51b8152600401610a2190613831565b6000865111611e4c5760405162461bcd60e51b815260206004820152601860248201527f476f7665726e6f723a20656d7074792070726f706f73616c00000000000000006044820152606401610a21565b600081815260016020908152604091829020825191820190925281546001600160401b03169081905215611ecc5760405162461bcd60e51b815260206004820152602160248201527f476f7665726e6f723a2070726f706f73616c20616c72656164792065786973746044820152607360f81b6064820152608401610a21565b6000611edd6001612a80565b612a80565b611ee643612a80565b611ef09190613872565b90506000611f00611ed8600b5490565b611f0a9083613872565b835467ffffffffffffffff19166001600160401b038416178455905060018301805467ffffffffffffffff19166001600160401b0383161790557f7d84a6263ae0d98d3329bd7b46bb4e8d6f98cd35a7adb45c274c8b7fd5ebd5e084338b8b8d516001600160401b03811115611f8257611f82612be5565b604051908082528060200260200182016040528015611fb557816020015b6060815260200190600190039081611fa05790505b508c88888e604051611fcf9998979695949392919061389d565b60405180910390a15091979650505050505050565b604051630748d63560e31b81526001600160a01b038481166004830152602482018490526000917f000000000000000000000000000000000000000000000000000000000000000090911690633a46b1a890604401602060405180830381865afa158015612056573d6000803e3d6000fd5b505050506040513d601f19601f820116820180604052508101906110c7919061355a565b600754604080516001600160a01b03928316815291831660208301527f08f74ea46ef7894f65eabfb5e6e695de773a000b47c529ab559178069b226401910160405180910390a1600780546001600160a01b0319166001600160a01b0392909216919091179055565b606083156120f25750816110ca565b6110ca8383612ae8565b6000606461210983610fa6565b604051632394e7a360e21b8152600481018590527f00000000000000000000000000000000000000000000000000000000000000006001600160a01b031690638e539e8c90602401602060405180830381865afa15801561216e573d6000803e3d6000fd5b505050506040513d601f19601f82011682018060405250810190612192919061355a565b61219c919061398c565b6108eb91906139ab565b8254600090819080156122ec5760006121c48761150f600185613710565b60408051808201909152905463ffffffff808216808452600160201b9092046001600160e01b0316602084015291925090871610156122455760405162461bcd60e51b815260206004820152601760248201527f436865636b706f696e743a20696e76616c6964206b65790000000000000000006044820152606401610a21565b805163ffffffff80881691160361228d57846122668861150f600186613710565b80546001600160e01b0392909216600160201b0263ffffffff9092169190911790556122dc565b6040805180820190915263ffffffff80881682526001600160e01b0380881660208085019182528b54600181018d5560008d81529190912094519151909216600160201b029216919091179101555b6020015192508391506123419050565b50506040805180820190915263ffffffff80851682526001600160e01b0380851660208085019182528854600181018a5560008a815291822095519251909316600160201b0291909316179201919091559050815b935093915050565b60006001600160e01b0319821663bf26d89760e01b148061237a57506001600160e01b031982166379dd796f60e01b145b8061239557506001600160e01b03198216630271189760e51b145b806108eb57506301ffc9a760e01b6001600160e01b03198316146108eb565b6000306001600160a01b037f00000000000000000000000000000000000000000000000000000000000000001614801561240d57507f000000000000000000000000000000000000000000000000000000000000000046145b1561243757507f000000000000000000000000000000000000000000000000000000000000000090565b50604080517f00000000000000000000000000000000000000000000000000000000000000006020808301919091527f0000000000000000000000000000000000000000000000000000000000000000828401527f000000000000000000000000000000000000000000000000000000000000000060608301524660808301523060a0808401919091528351808403909101815260c0909201909252805191012090565b6000807f7fffffffffffffffffffffffffffffff5d576e7357a4501ddfe92f46681b20a08311156125125750600090506003612596565b6040805160008082526020820180845289905260ff881692820192909252606081018690526080810185905260019060a0016020604051602081039080840390855afa158015612566573d6000803e3d6000fd5b5050604051601f1901519150506001600160a01b03811661258f57600060019250925050612596565b9150600090505b94509492505050565b60008160048111156125b3576125b36130bb565b036125bb5750565b60018160048111156125cf576125cf6130bb565b0361261c5760405162461bcd60e51b815260206004820152601860248201527f45434453413a20696e76616c6964207369676e617475726500000000000000006044820152606401610a21565b6002816004811115612630576126306130bb565b0361267d5760405162461bcd60e51b815260206004820152601f60248201527f45434453413a20696e76616c6964207369676e6174757265206c656e677468006044820152606401610a21565b6003816004811115612691576126916130bb565b03610a795760405162461bcd60e51b815260206004820152602260248201527f45434453413a20696e76616c6964207369676e6174757265202773272076616c604482015261756560f01b6064820152608401610a21565b60008581526004602090815260408083206001600160a01b0388168452600381019092529091205460ff16156127715760405162461bcd60e51b815260206004820152602760248201527f476f7665726e6f72566f74696e6753696d706c653a20766f746520616c726561604482015266191e4818d85cdd60ca1b6064820152608401610a21565b6001600160a01b03851660009081526003820160205260409020805460ff1916600117905560ff84166127bd57828160000160008282546127b291906136f8565b90915550611a069050565b60001960ff8516016127dd57828160010160008282546127b291906136f8565b60011960ff8516016127fd57828160020160008282546127b291906136f8565b60405162461bcd60e51b815260206004820152603560248201527f476f7665726e6f72566f74696e6753696d706c653a20696e76616c69642076616044820152746c756520666f7220656e756d20566f74655479706560581b6064820152608401610a21565b8154600160801b90819004600f0b6000818152600180860160205260409091209390935583546001600160801b03908116939091011602179055565b60075460405163e38335e560e01b81526001600160a01b039091169063e38335e59034906128da90889088908890600090899060040161363c565b6000604051808303818588803b1580156128f357600080fd5b505af1158015612907573d6000803e3d6000fd5b50505050505050505050565b6000818152600160205260408120600281015460ff16156129375750600792915050565b6002810154610100900460ff16156129525750600292915050565b600061295d84610e7b565b9050806000036129af5760405162461bcd60e51b815260206004820152601d60248201527f476f7665726e6f723a20756e6b6e6f776e2070726f706f73616c2069640000006044820152606401610a21565b4381106129c0575060009392505050565b60006129cb8561121e565b90504381106129df57506001949350505050565b6129e885612b12565b8015612a07575060008581526004602052604090208054600190910154115b15612a1757506004949350505050565b506003949350505050565b60005b81831015612a78576000612a398484612b49565b60008781526020902090915063ffffffff86169082015463ffffffff161115612a6457809250612a72565b612a6f8160016136f8565b93505b50612a25565b509392505050565b60006001600160401b038211156114bb5760405162461bcd60e51b815260206004820152602660248201527f53616665436173743a2076616c756520646f65736e27742066697420696e203660448201526534206269747360d01b6064820152608401610a21565b815115612af85781518083602001fd5b8060405162461bcd60e51b8152600401610a219190612dae565b600081815260046020526040812060028101546001820154612b3491906136f8565b612b406108a785610e7b565b11159392505050565b6000612b5860028484186139ab565b6110ca908484166136f8565b600060208284031215612b7657600080fd5b81356001600160e01b0319811681146110ca57600080fd5b803560ff81168114612b9f57600080fd5b919050565b60008083601f840112612bb657600080fd5b5081356001600160401b03811115612bcd57600080fd5b6020830191508360208285010111156114ee57600080fd5b634e487b7160e01b600052604160045260246000fd5b604051601f8201601f191681016001600160401b0381118282101715612c2357612c23612be5565b604052919050565b60006001600160401b03831115612c4457612c44612be5565b612c57601f8401601f1916602001612bfb565b9050828152838383011115612c6b57600080fd5b828260208301376000602084830101529392505050565b600082601f830112612c9357600080fd5b6110ca83833560208501612c2b565b60008060008060008060008060e0898b031215612cbe57600080fd5b88359750612cce60208a01612b8e565b965060408901356001600160401b0380821115612cea57600080fd5b612cf68c838d01612ba4565b909850965060608b0135915080821115612d0f57600080fd5b50612d1c8b828c01612c82565b945050612d2b60808a01612b8e565b925060a0890135915060c089013590509295985092959890939650565b600060208284031215612d5a57600080fd5b5035919050565b6000815180845260005b81811015612d8757602081850181015186830182015201612d6b565b81811115612d99576000602083870101525b50601f01601f19169290920160200192915050565b6020815260006110ca6020830184612d61565b6001600160a01b0381168114610a7957600080fd5b60008060008060808587031215612dec57600080fd5b8435612df781612dc1565b93506020850135612e0781612dc1565b92506040850135915060608501356001600160401b03811115612e2957600080fd5b612e3587828801612c82565b91505092959194509250565b60006001600160401b03821115612e5a57612e5a612be5565b5060051b60200190565b600082601f830112612e7557600080fd5b81356020612e8a612e8583612e41565b612bfb565b82815260059290921b84018101918181019086841115612ea957600080fd5b8286015b84811015612ecd578035612ec081612dc1565b8352918301918301612ead565b509695505050505050565b600082601f830112612ee957600080fd5b81356020612ef9612e8583612e41565b82815260059290921b84018101918181019086841115612f1857600080fd5b8286015b84811015612ecd5780358352918301918301612f1c565b600082601f830112612f4457600080fd5b81356020612f54612e8583612e41565b82815260059290921b84018101918181019086841115612f7357600080fd5b8286015b84811015612ecd5780356001600160401b03811115612f965760008081fd5b612fa48986838b0101612c82565b845250918301918301612f77565b60008060008060808587031215612fc857600080fd5b84356001600160401b0380821115612fdf57600080fd5b612feb88838901612e64565b9550602087013591508082111561300157600080fd5b61300d88838901612ed8565b9450604087013591508082111561302357600080fd5b5061303087828801612f33565b949793965093946060013593505050565b6000806040838503121561305457600080fd5b823561305f81612dc1565b946020939093013593505050565b600080600080600060a0868803121561308557600080fd5b8535945061309560208701612b8e565b93506130a360408701612b8e565b94979396509394606081013594506080013592915050565b634e487b7160e01b600052602160045260246000fd5b60208101600883106130f357634e487b7160e01b600052602160045260246000fd5b91905290565b6000806040838503121561310c57600080fd5b82359150602083013561311e81612dc1565b809150509250929050565b6000806040838503121561313c57600080fd5b8235915061314c60208401612b8e565b90509250929050565b60008060008060006080868803121561316d57600080fd5b8535945061317d60208701612b8e565b935060408601356001600160401b038082111561319957600080fd5b6131a589838a01612ba4565b909550935060608801359150808211156131be57600080fd5b506131cb88828901612c82565b9150509295509295909350565b600080600080606085870312156131ee57600080fd5b843593506131fe60208601612b8e565b925060408501356001600160401b0381111561321957600080fd5b61322587828801612ba4565b95989497509550505050565b6000806000806080858703121561324757600080fd5b84356001600160401b038082111561325e57600080fd5b61326a88838901612e64565b9550602087013591508082111561328057600080fd5b61328c88838901612ed8565b945060408701359150808211156132a257600080fd5b6132ae88838901612f33565b935060608701359150808211156132c457600080fd5b508501601f810187136132d657600080fd5b612e3587823560208401612c2b565b6000806000606084860312156132fa57600080fd5b833561330581612dc1565b92506020840135915060408401356001600160401b0381111561332757600080fd5b61333386828701612c82565b9150509250925092565b60006020828403121561334f57600080fd5b81356110ca81612dc1565b600080600080600060a0868803121561337257600080fd5b853561337d81612dc1565b9450602086013561338d81612dc1565b935060408601356001600160401b03808211156133a957600080fd5b6133b589838a01612ed8565b945060608801359150808211156133cb57600080fd5b6133d789838a01612ed8565b935060808801359150808211156131be57600080fd5b6000806000806060858703121561340357600080fd5b843561340e81612dc1565b93506020850135925060408501356001600160401b0381111561321957600080fd5b600080600080600060a0868803121561344857600080fd5b853561345381612dc1565b9450602086013561346381612dc1565b9350604086013592506060860135915060808601356001600160401b0381111561348c57600080fd5b6131cb88828901612c82565b8183823760009101908152919050565b60208082526018908201527f476f7665726e6f723a206f6e6c79476f7665726e616e63650000000000000000604082015260600190565b600181811c908216806134f357607f821691505b60208210810361351357634e487b7160e01b600052602260045260246000fd5b50919050565b60208082526021908201527f476f7665726e6f723a2070726f706f73616c206e6f74207375636365737366756040820152601b60fa1b606082015260800190565b60006020828403121561356c57600080fd5b5051919050565b600081518084526020808501945080840160005b838110156135ac5781516001600160a01b031687529582019590820190600101613587565b509495945050505050565b600081518084526020808501945080840160005b838110156135ac578151875295820195908201906001016135cb565b600081518084526020808501808196508360051b8101915082860160005b8581101561362f57828403895261361d848351612d61565b98850198935090840190600101613605565b5091979650505050505050565b60a08152600061364f60a0830188613573565b828103602084015261366181886135b7565b9050828103604084015261367581876135e7565b60608401959095525050608001529392505050565b60c08152600061369d60c0830189613573565b82810360208401526136af81896135b7565b905082810360408401526136c381886135e7565b60608401969096525050608081019290925260a0909101529392505050565b634e487b7160e01b600052601160045260246000fd5b6000821982111561370b5761370b6136e2565b500190565b600082821015613722576137226136e2565b500390565b634e487b7160e01b600052603260045260246000fd5b6080815260006137506080830187613573565b828103602084015261376281876135b7565b9050828103604084015261377681866135e7565b91505082606083015295945050505050565b84815260ff841660208201528260408201526080606082015260006110996080830184612d61565b85815260ff8516602082015283604082015260a0606082015260006137d860a0830185612d61565b82810360808401526137ea8185612d61565b98975050505050505050565b600060018201613808576138086136e2565b5060010190565b60006020828403121561382157600080fd5b815180151581146110ca57600080fd5b60208082526021908201527f476f7665726e6f723a20696e76616c69642070726f706f73616c206c656e67746040820152600d60fb1b606082015260800190565b60006001600160401b03808316818516808303821115613894576138946136e2565b01949350505050565b60006101208b8352602060018060a01b038c16818501528160408501526138c68285018c613573565b915083820360608501526138da828b6135b7565b915083820360808501528189518084528284019150828160051b850101838c0160005b8381101561392b57601f19878403018552613919838351612d61565b948601949250908501906001016138fd565b505086810360a088015261393f818c6135e7565b94505050505061395a60c08401876001600160401b03169052565b6001600160401b03851660e084015282810361010084015261397c8185612d61565b9c9b505050505050505050505050565b60008160001904831182151516156139a6576139a66136e2565b500290565b6000826139c857634e487b7160e01b600052601260045260246000fd5b50049056fe476f7665726e6f723a2072656c617920726576657274656420776974686f7574206d657373616765a2646970667358221220b3e56fea50288d5ca986fe0c679fbdd06ba13823ee515ce055087f21c82b68e964736f6c634300080e0033",
  "immutableReferences": {
    "3633": [
      {
        "length": 32,
        "start": 2238
      },
      {
        "length": 32,
        "start": 8205
      },
      {
        "length": 32,
        "start": 8479
      }
    ],
    "8114": [
      {
        "length": 32,
        "start": 9237
      }
    ],
    "8116": [
      {
        "length": 32,
        "start": 9195
      }
    ],
    "8118": [
      {
        "length": 32,
        "start": 9153
      }
    ],
    "8120": [
      {
        "length": 32,
        "start": 9320
      }
    ],
    "8122": [
      {
        "length": 32,
        "start": 9357
      }
    ],
    "8124": [
      {
        "length": 32,
        "start": 9278
      }
    ]
  },
  "source": "// SPDX-License-Identifier: MIT\npragma solidity ^0.8.4;\n\nimport \"@openzeppelin/contracts/access/Ownable.sol\";\nimport \"@openzeppelin/contracts/governance/Governor.sol\";\nimport \"@openzeppelin/contracts/governance/extensions/GovernorCountingSimple.sol\";\nimport \"@openzeppelin/contracts/governance/extensions/GovernorVotes.sol\";\nimport \"@openzeppelin/contracts/governance/extensions/GovernorVotesQuorumFraction.sol\";\nimport \"@openzeppelin/contracts/governance/extensions/GovernorTimelockControl.sol\";\nimport \"@openzeppelin/contracts/governance/utils/Votes.sol\";\n\ncontract MyGovernor is\n    Governor,\n    GovernorCountingSimple,\n    GovernorVotes,\n    GovernorVotesQuorumFraction,\n    GovernorTimelockControl,\n    Ownable\n{\n    uint256 private DEFAULT_proposalThreshold = 1e18;\n    uint256 private DEFAULT_votingPeriod = 4;\n\n    constructor(IVotes _token, TimelockController _timelock)\n        Governor(\"MyGovernor\")\n        GovernorVotes(_token)\n        GovernorVotesQuorumFraction(10)\n        GovernorTimelockControl(_timelock)\n    {}\n\n    receive() external payable override{}\n    function pay_transfer(address payable _sender, uint256 _amount)\n        public\n        returns (bool)\n    {\n        require(_msgSender()==address(this),\"not governor\");\n        _sender.transfer(_amount);\n        return true;\n    }\n\n// --------------\n\n\n\n    function votingDelay() public pure override returns (uint256) {\n        return 1; // 1 block\n    }\n\n    // TODO 100 eth is not required for our project\n    // user token balalnce should be equal or greater than proposalThreshold\n    // to propose\n    function proposalThreshold() public view override returns (uint256) {\n        return DEFAULT_proposalThreshold;\n    }\n\n    function setProposalThreshold(uint256 value) public onlyOwner {\n        DEFAULT_proposalThreshold = value;\n    }\n\n    function votingPeriod() public view override returns (uint256) {\n        // return 300; // 5min approx 45818 //1Week\n        return DEFAULT_votingPeriod;\n    }\n\n    function setVotingPeriod(uint256 value) public onlyOwner {\n        DEFAULT_votingPeriod = value;\n    }\n\n    // function updateQuorumNumerator(uint256 newQuorumNumerator) external override(GovernorVotesQuorumFraction) onlyGovernance {\n    //     // _updateQuorumNumerator(newQuorumNumerator);\n    //     super.updateQuorumNumerator(newQuorumNumerator);\n    // }\n    // The following functions are overrides required by Solidity.\n\n    function quorum(uint256 blockNumber)\n        public\n        view\n        override(IGovernor, GovernorVotesQuorumFraction)\n        returns (uint256)\n    {\n        return super.quorum(blockNumber);\n    }\n\n    function state(uint256 proposalId)\n        public\n        view\n        override(Governor, GovernorTimelockControl)\n        returns (ProposalState)\n    {\n        return super.state(proposalId);\n    }\n\n    function propose(\n        address[] memory targets,\n        uint256[] memory values,\n        bytes[] memory calldatas,\n        string memory description\n    ) public override(Governor, IGovernor) returns (uint256) {\n        return super.propose(targets, values, calldatas, description);\n    }\n\n    function _execute(\n        uint256 proposalId,\n        address[] memory targets,\n        uint256[] memory values,\n        bytes[] memory calldatas,\n        bytes32 descriptionHash\n    ) internal override(Governor, GovernorTimelockControl) {\n        super._execute(proposalId, targets, values, calldatas, descriptionHash);\n    }\n\n    function _cancel(\n        address[] memory targets,\n        uint256[] memory values,\n        bytes[] memory calldatas,\n        bytes32 descriptionHash\n    ) internal override(Governor, GovernorTimelockControl) returns (uint256) {\n        return super._cancel(targets, values, calldatas, descriptionHash);\n    }\n\n    function _executor()\n        internal\n        view\n        override(Governor, GovernorTimelockControl)\n        returns (address)\n    {\n        return super._executor();\n    }\n\n    function supportsInterface(bytes4 interfaceId)\n        public\n        view\n        override(Governor, GovernorTimelockControl)\n        returns (bool)\n    {\n        return super.supportsInterface(interfaceId);\n    }\n}\n",
  "sourcePath": "/Users/yaksheshgupta/Desktop/Equistart_Smart_Contract/contracts/contracts/MyGovernor.sol",
  "compiler": {
    "name": "solc",
    "version": "0.8.14+commit.80d49f37.Emscripten.clang"
  },
  "schemaVersion": "3.4.7",
  "updatedAt": "2023-03-24T14:44:20.319Z",
  "networkType": "ethereum",
  "devdoc": {
    "errors": {
      "Empty()": [
        {
          "details": "An operation (e.g. {front}) couldn't be completed due to the queue being empty."
        }
      ]
    },
    "kind": "dev",
    "methods": {
      "COUNTING_MODE()": {
        "details": "See {IGovernor-COUNTING_MODE}."
      },
      "castVote(uint256,uint8)": {
        "details": "See {IGovernor-castVote}."
      },
      "castVoteBySig(uint256,uint8,uint8,bytes32,bytes32)": {
        "details": "See {IGovernor-castVoteBySig}."
      },
      "castVoteWithReason(uint256,uint8,string)": {
        "details": "See {IGovernor-castVoteWithReason}."
      },
      "castVoteWithReasonAndParams(uint256,uint8,string,bytes)": {
        "details": "See {IGovernor-castVoteWithReasonAndParams}."
      },
      "castVoteWithReasonAndParamsBySig(uint256,uint8,string,bytes,uint8,bytes32,bytes32)": {
        "details": "See {IGovernor-castVoteWithReasonAndParamsBySig}."
      },
      "execute(address[],uint256[],bytes[],bytes32)": {
        "details": "See {IGovernor-execute}."
      },
      "getVotes(address,uint256)": {
        "details": "See {IGovernor-getVotes}."
      },
      "getVotesWithParams(address,uint256,bytes)": {
        "details": "See {IGovernor-getVotesWithParams}."
      },
      "hasVoted(uint256,address)": {
        "details": "See {IGovernor-hasVoted}."
      },
      "hashProposal(address[],uint256[],bytes[],bytes32)": {
        "details": "See {IGovernor-hashProposal}. The proposal id is produced by hashing the ABI encoded `targets` array, the `values` array, the `calldatas` array and the descriptionHash (bytes32 which itself is the keccak256 hash of the description string). This proposal id can be produced from the proposal data which is part of the {ProposalCreated} event. It can even be computed in advance, before the proposal is submitted. Note that the chainId and the governor address are not part of the proposal id computation. Consequently, the same proposal (with same operation and same description) will have the same id if submitted on multiple governors across multiple networks. This also means that in order to execute the same operation twice (on the same governor) the proposer will have to change the description in order to avoid proposal id conflicts."
      },
      "name()": {
        "details": "See {IGovernor-name}."
      },
      "onERC1155BatchReceived(address,address,uint256[],uint256[],bytes)": {
        "details": "See {IERC1155Receiver-onERC1155BatchReceived}."
      },
      "onERC1155Received(address,address,uint256,uint256,bytes)": {
        "details": "See {IERC1155Receiver-onERC1155Received}."
      },
      "onERC721Received(address,address,uint256,bytes)": {
        "details": "See {IERC721Receiver-onERC721Received}."
      },
      "owner()": {
        "details": "Returns the address of the current owner."
      },
      "proposalDeadline(uint256)": {
        "details": "See {IGovernor-proposalDeadline}."
      },
      "proposalEta(uint256)": {
        "details": "Public accessor to check the eta of a queued proposal"
      },
      "proposalSnapshot(uint256)": {
        "details": "See {IGovernor-proposalSnapshot}."
      },
      "proposalThreshold()": {
        "details": "Part of the Governor Bravo's interface: _\"The number of votes required in order for a voter to become a proposer\"_."
      },
      "proposalVotes(uint256)": {
        "details": "Accessor to the internal vote counts."
      },
      "queue(address[],uint256[],bytes[],bytes32)": {
        "details": "Function to queue a proposal to the timelock."
      },
      "quorumDenominator()": {
        "details": "Returns the quorum denominator. Defaults to 100, but may be overridden."
      },
      "quorumNumerator()": {
        "details": "Returns the current quorum numerator. See {quorumDenominator}."
      },
      "quorumNumerator(uint256)": {
        "details": "Returns the quorum numerator at a specific block number. See {quorumDenominator}."
      },
      "relay(address,uint256,bytes)": {
        "details": "Relays a transaction or function call to an arbitrary target. In cases where the governance executor is some contract other than the governor itself, like when using a timelock, this function can be invoked in a governance proposal to recover tokens or Ether that was sent to the governor contract by mistake. Note that if the executor is simply the governor itself, use of `relay` is redundant."
      },
      "renounceOwnership()": {
        "details": "Leaves the contract without owner. It will not be possible to call `onlyOwner` functions anymore. Can only be called by the current owner. NOTE: Renouncing ownership will leave the contract without an owner, thereby removing any functionality that is only available to the owner."
      },
      "timelock()": {
        "details": "Public accessor to check the address of the timelock"
      },
      "transferOwnership(address)": {
        "details": "Transfers ownership of the contract to a new account (`newOwner`). Can only be called by the current owner."
      },
      "updateQuorumNumerator(uint256)": {
        "details": "Changes the quorum numerator. Emits a {QuorumNumeratorUpdated} event. Requirements: - Must be called through a governance proposal. - New numerator must be smaller or equal to the denominator."
      },
      "updateTimelock(address)": {
        "details": "Public endpoint to update the underlying timelock instance. Restricted to the timelock itself, so updates must be proposed, scheduled, and executed through governance proposals. CAUTION: It is not recommended to change the timelock while there are other queued governance proposals."
      },
      "version()": {
        "details": "See {IGovernor-version}."
      },
      "votingDelay()": {
        "details": "Delay, in number of block, between the proposal is created and the vote starts. This can be increassed to leave time for users to buy voting power, or delegate it, before the voting of a proposal starts."
      },
      "votingPeriod()": {
        "details": "Delay, in number of blocks, between the vote start and vote ends. NOTE: The {votingDelay} can delay the start of the vote. This must be considered when setting the voting duration compared to the voting delay."
      }
    },
    "version": 1
  },
  "userdoc": {
    "kind": "user",
    "methods": {
      "votingDelay()": {
        "notice": "module:user-config"
      },
      "votingPeriod()": {
        "notice": "module:user-config"
      }
    },
    "version": 1
  }
}