{
  "contractName": "Secondary",
  "abi": [
    {
      "inputs": [],
      "stateMutability": "nonpayable",
      "type": "constructor"
    },
    {
      "anonymous": false,
      "inputs": [
        {
          "indexed": false,
          "internalType": "address",
          "name": "recipient",
          "type": "address"
        }
      ],
      "name": "PrimaryTransferred",
      "type": "event"
    },
    {
      "inputs": [],
      "name": "primary",
      "outputs": [
        {
          "internalType": "address",
          "name": "",
          "type": "address"
        }
      ],
      "stateMutability": "view",
      "type": "function"
    },
    {
      "inputs": [
        {
          "internalType": "address",
          "name": "recipient",
          "type": "address"
        }
      ],
      "name": "transferPrimary",
      "outputs": [],
      "stateMutability": "nonpayable",
      "type": "function"
    }
  ],
  "bytecode": "0x608060405234801561001057600080fd5b50600080546001600160a01b031916339081179091556040805182815290517f4101e71e974f68df5e9730cc223280b41654676bbb052cdcc735c3337e64d2d99181900360200190a15061020f806100696000396000f3fe608060405234801561001057600080fd5b50600436106100365760003560e01c80632348238c1461003b578063c6dbdf6114610050575b600080fd5b61004e6100493660046101a9565b61006f565b005b600054604080516001600160a01b039092168252519081900360200190f35b6000546001600160a01b0316336001600160a01b0316146100ec5760405162461bcd60e51b815260206004820152602c60248201527f5365636f6e646172793a2063616c6c6572206973206e6f74207468652070726960448201526b1b585c9e481858d8dbdd5b9d60a21b60648201526084015b60405180910390fd5b6001600160a01b0381166101555760405162461bcd60e51b815260206004820152602a60248201527f5365636f6e646172793a206e6577207072696d61727920697320746865207a65604482015269726f206164647265737360b01b60648201526084016100e3565b600080546001600160a01b0319166001600160a01b0383169081179091556040519081527f4101e71e974f68df5e9730cc223280b41654676bbb052cdcc735c3337e64d2d99060200160405180910390a150565b6000602082840312156101bb57600080fd5b81356001600160a01b03811681146101d257600080fd5b939250505056fea264697066735822122003a24fad35d10c7fa180a51ed5fef7e5332a2822c5b477041d1badeededc11b264736f6c634300080e0033",
  "immutableReferences": {},
  "source": "// SPDX-License-Identifier: MIT\npragma solidity ^0.8.0;\n\nimport \"@openzeppelin/contracts/utils/Context.sol\";\n/**\n * @dev A Secondary contract can only be used by its primary account (the one that created it).\n */\ncontract Secondary is Context {\n    address private _primary;\n\n    /**\n     * @dev Emitted when the primary contract changes.\n     */\n    event PrimaryTransferred(\n        address recipient\n    );\n\n    /**\n     * @dev Sets the primary account to the one that is creating the Secondary contract.\n     */\n    constructor ()  {\n        address msgSender = _msgSender();\n        _primary = msgSender;\n        emit PrimaryTransferred(msgSender);\n    }\n\n    /**\n     * @dev Reverts if called from any account other than the primary.\n     */\n    modifier onlyPrimary() {\n        require(_msgSender() == _primary, \"Secondary: caller is not the primary account\");\n        _;\n    }\n\n    /**\n     * @return the address of the primary.\n     */\n    function primary() public view returns (address) {\n        return _primary;\n    }\n\n    /**\n     * @dev Transfers contract to a new primary.\n     * @param recipient The address of new primary.\n     */\n    function transferPrimary(address recipient) public onlyPrimary {\n        require(recipient != address(0), \"Secondary: new primary is the zero address\");\n        _primary = recipient;\n        emit PrimaryTransferred(recipient);\n    }\n}\n",
  "sourcePath": "/Users/yaksheshgupta/Desktop/Equistart_Smart_Contract/contracts/contracts/crowdsale/utils/ownership/Secondary.sol",
  "compiler": {
    "name": "solc",
    "version": "0.8.14+commit.80d49f37.Emscripten.clang"
  },
  "schemaVersion": "3.4.7",
  "updatedAt": "2023-02-24T10:21:17.268Z",
  "devdoc": {
    "details": "A Secondary contract can only be used by its primary account (the one that created it).",
    "events": {
      "PrimaryTransferred(address)": {
        "details": "Emitted when the primary contract changes."
      }
    },
    "kind": "dev",
    "methods": {
      "constructor": {
        "details": "Sets the primary account to the one that is creating the Secondary contract."
      },
      "primary()": {
        "returns": {
          "_0": "the address of the primary."
        }
      },
      "transferPrimary(address)": {
        "details": "Transfers contract to a new primary.",
        "params": {
          "recipient": "The address of new primary."
        }
      }
    },
    "version": 1
  },
  "userdoc": {
    "kind": "user",
    "methods": {},
    "version": 1
  }
}