{
  "contractName": "TimedCrowdsale",
  "abi": [
    {
      "inputs": [
        {
          "internalType": "uint256",
          "name": "_openingtime",
          "type": "uint256"
        },
        {
          "internalType": "uint256",
          "name": "_closingtime",
          "type": "uint256"
        }
      ],
      "stateMutability": "nonpayable",
      "type": "constructor"
    },
    {
      "anonymous": false,
      "inputs": [
        {
          "indexed": true,
          "internalType": "address",
          "name": "previousOwner",
          "type": "address"
        },
        {
          "indexed": true,
          "internalType": "address",
          "name": "newOwner",
          "type": "address"
        }
      ],
      "name": "OwnershipTransferred",
      "type": "event"
    },
    {
      "anonymous": false,
      "inputs": [
        {
          "indexed": false,
          "internalType": "string",
          "name": "typechanged",
          "type": "string"
        },
        {
          "indexed": false,
          "internalType": "uint256",
          "name": "prevClosingTime",
          "type": "uint256"
        },
        {
          "indexed": false,
          "internalType": "uint256",
          "name": "newClosingTime",
          "type": "uint256"
        }
      ],
      "name": "TimedCrowdsaleExtended",
      "type": "event"
    },
    {
      "inputs": [],
      "name": "owner",
      "outputs": [
        {
          "internalType": "address",
          "name": "",
          "type": "address"
        }
      ],
      "stateMutability": "view",
      "type": "function"
    },
    {
      "inputs": [],
      "name": "renounceOwnership",
      "outputs": [],
      "stateMutability": "nonpayable",
      "type": "function"
    },
    {
      "inputs": [
        {
          "internalType": "address",
          "name": "newOwner",
          "type": "address"
        }
      ],
      "name": "transferOwnership",
      "outputs": [],
      "stateMutability": "nonpayable",
      "type": "function"
    },
    {
      "inputs": [],
      "name": "Openingtime",
      "outputs": [
        {
          "internalType": "uint256",
          "name": "",
          "type": "uint256"
        }
      ],
      "stateMutability": "view",
      "type": "function"
    },
    {
      "inputs": [],
      "name": "Closingtime",
      "outputs": [
        {
          "internalType": "uint256",
          "name": "",
          "type": "uint256"
        }
      ],
      "stateMutability": "view",
      "type": "function"
    },
    {
      "inputs": [],
      "name": "isOpen",
      "outputs": [
        {
          "internalType": "bool",
          "name": "",
          "type": "bool"
        }
      ],
      "stateMutability": "view",
      "type": "function"
    },
    {
      "inputs": [],
      "name": "isClose",
      "outputs": [
        {
          "internalType": "bool",
          "name": "",
          "type": "bool"
        }
      ],
      "stateMutability": "view",
      "type": "function"
    }
  ],
  "bytecode": "0x608060405234801561001057600080fd5b5060405161043e38038061043e83398101604081905261002f9161012f565b610038336100df565b428210156100825760405162461bcd60e51b81526020600482015260126024820152716f70656e696e672074696d652077726f6e6760701b60448201526064015b60405180910390fd5b8082106100d15760405162461bcd60e51b815260206004820152601b60248201527f6f70656e696e672074696d65203e20636c6f73696e672074696d6500000000006044820152606401610079565b600191909155600255610153565b600080546001600160a01b038381166001600160a01b0319831681178455604051919092169283917f8be0079c531659141344cd1fd0a4f28419497f9722a3daafe3b4186f6b6457e09190a35050565b6000806040838503121561014257600080fd5b505080516020909101519092909150565b6102dc806101626000396000f3fe608060405234801561001057600080fd5b506004361061007d5760003560e01c80636fdd96711161005b5780636fdd9671146100b9578063715018a6146100c15780638da5cb5b146100cb578063f2fde38b146100e657600080fd5b80631338f493146100825780631de98c4e1461009f57806347535d7b146100b1575b600080fd5b61008a6100f9565b60405190151581526020015b60405180910390f35b6002545b604051908152602001610096565b61008a61011c565b6001546100a3565b6100c961013a565b005b6000546040516001600160a01b039091168152602001610096565b6100c96100f4366004610276565b61014e565b600042600154118061010c575060025442115b6101165750600090565b50600190565b6000426001541115801561010c575060025442106101165750600090565b6101426101cc565b61014c6000610226565b565b6101566101cc565b6001600160a01b0381166101c05760405162461bcd60e51b815260206004820152602660248201527f4f776e61626c653a206e6577206f776e657220697320746865207a65726f206160448201526564647265737360d01b60648201526084015b60405180910390fd5b6101c981610226565b50565b6000546001600160a01b0316331461014c5760405162461bcd60e51b815260206004820181905260248201527f4f776e61626c653a2063616c6c6572206973206e6f7420746865206f776e657260448201526064016101b7565b600080546001600160a01b038381166001600160a01b0319831681178455604051919092169283917f8be0079c531659141344cd1fd0a4f28419497f9722a3daafe3b4186f6b6457e09190a35050565b60006020828403121561028857600080fd5b81356001600160a01b038116811461029f57600080fd5b939250505056fea2646970667358221220afcf8fdbdba76d0f28c213c2cc6823c7eee6ffed64fe165c841d06e6bdb504a264736f6c634300080d0033",
  "immutableReferences": {},
  "source": "// SPDX-License-Identifier: MIT\npragma solidity ^0.8.0;\nimport \"@openzeppelin/contracts/access/Ownable.sol\";\n\ncontract TimedCrowdsale is Ownable{\n    // Opening time of the crowdsale\n    uint256 private openingtime;\n    // Closing time of the crowdsale\n    uint256 private closingtime;\n\n    event TimedCrowdsaleExtended(\n        string typechanged,\n        uint256 prevClosingTime,\n        uint256 newClosingTime\n    );\n\n    constructor(uint256 _openingtime, uint256 _closingtime) {\n        require(_openingtime >= block.timestamp, \"opening time wrong\"); // turant ya baad me open kr do\n        require(_openingtime<_closingtime,\"opening time > closing time\"); // open pehle close baad me\n\n        openingtime = _openingtime;\n        closingtime = _closingtime;\n    }\n\n    // modifier to check if time permits\n    modifier onlyWhileOpen() {\n        require(openingtime <= block.timestamp, \"Crowdsale is not started\"); //CHECK\n        require(closingtime >= block.timestamp, \"Crowdsale finished\");\n        _;\n    }\n\n    function Openingtime() public view returns (uint256) {\n        return openingtime;\n    }\n\n    function Closingtime() public view returns (uint256) {\n        return closingtime;\n    }\n\n    function isOpen() public view returns (bool) {\n        return (openingtime <= block.timestamp && block.timestamp<closingtime) ? true : false;\n    }\n\n    function isClose() public view returns (bool) {\n        return (openingtime > block.timestamp || block.timestamp>closingtime) ? true : false;\n    }\n\n\n    function _extendTime(uint256 _newclosingtime) internal onlyOwner virtual returns (bool) {\n        require(openingtime < _newclosingtime);\n        uint256 prevTime = closingtime;\n        closingtime = _newclosingtime;\n        emit TimedCrowdsaleExtended(\n            \"Closing time edited\",\n            prevTime,\n            _newclosingtime\n        );\n        return true;\n    }\n}\n",
  "sourcePath": "/Users/yaksheshgupta/Desktop/Equistart_Smart_Contract/contracts/contracts/TimedCrowdsale.sol",
  "compiler": {
    "name": "solc",
    "version": "0.8.13+commit.abaa5c0e.Emscripten.clang"
  },
  "schemaVersion": "3.4.7",
  "updatedAt": "2023-02-09T14:19:56.195Z",
  "devdoc": {
    "kind": "dev",
    "methods": {
      "owner()": {
        "details": "Returns the address of the current owner."
      },
      "renounceOwnership()": {
        "details": "Leaves the contract without owner. It will not be possible to call `onlyOwner` functions anymore. Can only be called by the current owner. NOTE: Renouncing ownership will leave the contract without an owner, thereby removing any functionality that is only available to the owner."
      },
      "transferOwnership(address)": {
        "details": "Transfers ownership of the contract to a new account (`newOwner`). Can only be called by the current owner."
      }
    },
    "version": 1
  },
  "userdoc": {
    "kind": "user",
    "methods": {},
    "version": 1
  }
}