{
  "contractName": "TokenFactory",
  "abi": [
    {
      "anonymous": false,
      "inputs": [
        {
          "indexed": false,
          "internalType": "string",
          "name": "name",
          "type": "string"
        },
        {
          "indexed": false,
          "internalType": "string",
          "name": "symbol",
          "type": "string"
        },
        {
          "indexed": false,
          "internalType": "uint256",
          "name": "amount",
          "type": "uint256"
        }
      ],
      "name": "NewTokenCreated",
      "type": "event"
    },
    {
      "inputs": [
        {
          "internalType": "string",
          "name": "name",
          "type": "string"
        },
        {
          "internalType": "string",
          "name": "symbol",
          "type": "string"
        },
        {
          "internalType": "uint256",
          "name": "initialSupply",
          "type": "uint256"
        },
        {
          "internalType": "address",
          "name": "beneficiary",
          "type": "address"
        }
      ],
      "name": "createProject",
      "outputs": [],
      "stateMutability": "nonpayable",
      "type": "function"
    },
    {
      "inputs": [],
      "name": "getAllDeployedProjects",
      "outputs": [
        {
          "components": [
            {
              "internalType": "uint256",
              "name": "id",
              "type": "uint256"
            },
            {
              "internalType": "string",
              "name": "projectName",
              "type": "string"
            },
            {
              "internalType": "string",
              "name": "symbol",
              "type": "string"
            },
            {
              "internalType": "uint256",
              "name": "initialSupply",
              "type": "uint256"
            },
            {
              "internalType": "address",
              "name": "tokenBeneficiary",
              "type": "address"
            },
            {
              "internalType": "address",
              "name": "contractAddress",
              "type": "address"
            }
          ],
          "internalType": "struct TokenFactory.projectMeta[]",
          "name": "props",
          "type": "tuple[]"
        }
      ],
      "stateMutability": "view",
      "type": "function"
    },
    {
      "inputs": [
        {
          "internalType": "uint256",
          "name": "projectId",
          "type": "uint256"
        }
      ],
      "name": "getProjectById",
      "outputs": [
        {
          "components": [
            {
              "internalType": "uint256",
              "name": "id",
              "type": "uint256"
            },
            {
              "internalType": "string",
              "name": "projectName",
              "type": "string"
            },
            {
              "internalType": "string",
              "name": "symbol",
              "type": "string"
            },
            {
              "internalType": "uint256",
              "name": "initialSupply",
              "type": "uint256"
            },
            {
              "internalType": "address",
              "name": "tokenBeneficiary",
              "type": "address"
            },
            {
              "internalType": "address",
              "name": "contractAddress",
              "type": "address"
            }
          ],
          "internalType": "struct TokenFactory.projectMeta",
          "name": "",
          "type": "tuple"
        }
      ],
      "stateMutability": "view",
      "type": "function"
    }
  ],
  "bytecode": "0x608060405234801561001057600080fd5b5061364b806100206000396000f3fe60806040523480156200001157600080fd5b5060043610620000465760003560e01c80634457d5f0146200004b578063bee5cdca1462000064578063f0e24a401462000093575b600080fd5b620000626200005c36600462000736565b620000ac565b005b6200007b62000075366004620007ca565b620001d5565b6040516200008a9190620008a9565b60405180910390f35b6200009d62000367565b6040516200008a9190620008c5565b600080548180620000bd836200092b565b909155506000818152600160208181526040909220838155885193945092620000ed929184019189019062000593565b50845162000105906002830190602088019062000593565b50600381018490556004810180546001600160a01b0319166001600160a01b038516179055604051869086908690869062000140906200061e565b6200014f949392919062000953565b604051809103906000f0801580156200016c573d6000803e3d6000fd5b506005820180546001600160a01b0319166001600160a01b03929092169190911790556040517f1835da56830f74a5978ef7a1476e2937006b16817a41fa9d5344803608d988e290620001c5908890889088906200099e565b60405180910390a1505050505050565b620001df6200062c565b600082815260016020818152604092839020835160c08101909452805484529182018054918401916200021290620009d8565b80601f01602080910402602001604051908101604052809291908181526020018280546200024090620009d8565b8015620002915780601f10620002655761010080835404028352916020019162000291565b820191906000526020600020905b8154815290600101906020018083116200027357829003601f168201915b50505050508152602001600282018054620002ac90620009d8565b80601f0160208091040260200160405190810160405280929190818152602001828054620002da90620009d8565b80156200032b5780601f10620002ff576101008083540402835291602001916200032b565b820191906000526020600020905b8154815290600101906020018083116200030d57829003601f168201915b50505091835250506003820154602082015260048201546001600160a01b03908116604083015260059092015490911660609091015292915050565b606060005467ffffffffffffffff8111156200038757620003876200068b565b604051908082528060200260200182016040528015620003c457816020015b620003b06200062c565b815260200190600190039081620003a65790505b50905060005b6000548110156200058f57600081815260016020818152604092839020835160c08101909452805484529182018054918401916200040890620009d8565b80601f01602080910402602001604051908101604052809291908181526020018280546200043690620009d8565b8015620004875780601f106200045b5761010080835404028352916020019162000487565b820191906000526020600020905b8154815290600101906020018083116200046957829003601f168201915b50505050508152602001600282018054620004a290620009d8565b80601f0160208091040260200160405190810160405280929190818152602001828054620004d090620009d8565b8015620005215780601f10620004f55761010080835404028352916020019162000521565b820191906000526020600020905b8154815290600101906020018083116200050357829003601f168201915b50505091835250506003820154602082015260048201546001600160a01b03908116604083015260059092015490911660609091015282518390839081106200056e576200056e62000a14565b6020026020010181905250808062000586906200092b565b915050620003ca565b5090565b828054620005a190620009d8565b90600052602060002090601f016020900481019282620005c5576000855562000610565b82601f10620005e057805160ff191683800117855562000610565b8280016001018555821562000610579182015b8281111562000610578251825591602001919060010190620005f3565b506200058f92915062000674565b612beb8062000a2b83390190565b6040518060c001604052806000815260200160608152602001606081526020016000815260200160006001600160a01b0316815260200160006001600160a01b031681525090565b5b808211156200058f576000815560010162000675565b634e487b7160e01b600052604160045260246000fd5b600082601f830112620006b357600080fd5b813567ffffffffffffffff80821115620006d157620006d16200068b565b604051601f8301601f19908116603f01168101908282118183101715620006fc57620006fc6200068b565b816040528381528660208588010111156200071657600080fd5b836020870160208301376000602085830101528094505050505092915050565b600080600080608085870312156200074d57600080fd5b843567ffffffffffffffff808211156200076657600080fd5b6200077488838901620006a1565b955060208701359150808211156200078b57600080fd5b506200079a87828801620006a1565b9350506040850135915060608501356001600160a01b0381168114620007bf57600080fd5b939692955090935050565b600060208284031215620007dd57600080fd5b5035919050565b6000815180845260005b818110156200080c57602081850181015186830182015201620007ee565b818111156200081f576000602083870101525b50601f01601f19169290920160200192915050565b805182526000602082015160c060208501526200085560c0850182620007e4565b905060408301518482036040860152620008708282620007e4565b606085810151908701526080808601516001600160a01b039081169188019190915260a095860151169490950193909352509192915050565b602081526000620008be602083018462000834565b9392505050565b6000602080830181845280855180835260408601915060408160051b870101925083870160005b828110156200091e57603f198886030184526200090b85835162000834565b94509285019290850190600101620008ec565b5092979650505050505050565b6000600182016200094c57634e487b7160e01b600052601160045260246000fd5b5060010190565b608081526000620009686080830187620007e4565b82810360208401526200097c8187620007e4565b604084019590955250506001600160a01b039190911660609091015292915050565b606081526000620009b36060830186620007e4565b8281036020840152620009c78186620007e4565b915050826040830152949350505050565b600181811c90821680620009ed57607f821691505b60208210810362000a0e57634e487b7160e01b600052602260045260246000fd5b50919050565b634e487b7160e01b600052603260045260246000fdfe6101406040523480156200001257600080fd5b5060405162002beb38038062002beb8339810160408190526200003591620008c8565b8380604051806040016040528060018152602001603160f81b815250868681600390805190602001906200006b9291906200075f565b508051620000819060049060208401906200075f565b5050825160209384012082519284019290922060e08390526101008190524660a0818152604080517f8b73c3c69bb8fe3d512ecc4cf759cc79239f7b179b0ffacaa9a75d522b39400f818901819052818301979097526060810194909452608080850193909352308483018190528151808603909301835260c0948501909152815191909601209052929092526101205250620001209050336200014f565b6200014581620001336012600a62000a70565b6200013f908562000a81565b620001a1565b5050505062000b14565b600a80546001600160a01b038381166001600160a01b0319831681179093556040519116919082907f8be0079c531659141344cd1fd0a4f28419497f9722a3daafe3b4186f6b6457e090600090a35050565b620001b88282620001bc60201b62000bac1760201c565b5050565b620001d382826200027360201b62000c3c1760201c565b6001600160e01b03620001e7620003408216565b1115620002545760405162461bcd60e51b815260206004820152603060248201527f4552433230566f7465733a20746f74616c20737570706c79207269736b73206f60448201526f766572666c6f77696e6720766f74657360801b60648201526084015b60405180910390fd5b6200026d600962000d036200034660201b17836200035d565b50505050565b6001600160a01b038216620002cb5760405162461bcd60e51b815260206004820152601f60248201527f45524332303a206d696e7420746f20746865207a65726f20616464726573730060448201526064016200024b565b8060026000828254620002df919062000aa3565b90915550506001600160a01b038216600081815260208181526040808320805486019055518481527fddf252ad1be2c89b69c2b068fc378daa952ba7f163c4a11628f55a4df523b3ef910160405180910390a3620001b860008383620004f4565b60025490565b600062000354828462000aa3565b90505b92915050565b82546000908190818115620003bd576200038c876200037e60018562000abe565b600091825260209091200190565b60408051808201909152905463ffffffff8116825264010000000090046001600160e01b03166020820152620003d2565b60408051808201909152600080825260208201525b905080602001516001600160e01b03169350620003f084868860201c565b9250600082118015620004095750805163ffffffff1643145b15620004605762000425836200050c60201b62000d0f1760201c565b62000437886200037e60018662000abe565b80546001600160e01b03929092166401000000000263ffffffff909216919091179055620004e5565b86604051806040016040528062000482436200057b60201b62000d7c1760201c565b63ffffffff168152602001620004a3866200050c60201b62000d0f1760201c565b6001600160e01b0390811690915282546001810184556000938452602093849020835194909301519091166401000000000263ffffffff909316929092179101555b5050935093915050565b505050565b620004ef838383620005e260201b62000de11760201c565b60006001600160e01b03821115620005775760405162461bcd60e51b815260206004820152602760248201527f53616665436173743a2076616c756520646f65736e27742066697420696e20326044820152663234206269747360c81b60648201526084016200024b565b5090565b600063ffffffff821115620005775760405162461bcd60e51b815260206004820152602660248201527f53616665436173743a2076616c756520646f65736e27742066697420696e203360448201526532206269747360d01b60648201526084016200024b565b620005fa838383620004ef60201b62000e131760201c565b6001600160a01b03838116600090815260076020526040808220548584168352912054620004ef92918216911683818314801590620006395750600081115b15620004ef576001600160a01b03831615620006c6576001600160a01b03831660009081526008602090815260408220829162000683919062000751901b62000e1817856200035d565b91509150846001600160a01b031660008051602062002bcb8339815191528383604051620006bb929190918252602082015260400190565b60405180910390a250505b6001600160a01b03821615620004ef576001600160a01b0382166000908152600860209081526040822082916200070a919062000346901b62000d0317856200035d565b91509150836001600160a01b031660008051602062002bcb833981519152838360405162000742929190918252602082015260400190565b60405180910390a25050505050565b600062000354828462000abe565b8280546200076d9062000ad8565b90600052602060002090601f016020900481019282620007915760008555620007dc565b82601f10620007ac57805160ff1916838001178555620007dc565b82800160010185558215620007dc579182015b82811115620007dc578251825591602001919060010190620007bf565b50620005779291505b80821115620005775760008155600101620007e5565b634e487b7160e01b600052604160045260246000fd5b600082601f8301126200082357600080fd5b81516001600160401b0380821115620008405762000840620007fb565b604051601f8301601f19908116603f011681019082821181831017156200086b576200086b620007fb565b816040528381526020925086838588010111156200088857600080fd5b600091505b83821015620008ac57858201830151818301840152908201906200088d565b83821115620008be5760008385830101525b9695505050505050565b60008060008060808587031215620008df57600080fd5b84516001600160401b0380821115620008f757600080fd5b620009058883890162000811565b955060208701519150808211156200091c57600080fd5b506200092b8782880162000811565b60408701516060880151919550935090506001600160a01b03811681146200095257600080fd5b939692955090935050565b634e487b7160e01b600052601160045260246000fd5b600181815b80851115620009b45781600019048211156200099857620009986200095d565b80851615620009a657918102915b93841c939080029062000978565b509250929050565b600082620009cd5750600162000357565b81620009dc5750600062000357565b8160018114620009f5576002811462000a005762000a20565b600191505062000357565b60ff84111562000a145762000a146200095d565b50506001821b62000357565b5060208310610133831016604e8410600b841016171562000a45575081810a62000357565b62000a51838362000973565b806000190482111562000a685762000a686200095d565b029392505050565b60006200035460ff841683620009bc565b600081600019048311821515161562000a9e5762000a9e6200095d565b500290565b6000821982111562000ab95762000ab96200095d565b500190565b60008282101562000ad35762000ad36200095d565b500390565b600181811c9082168062000aed57607f821691505b60208210810362000b0e57634e487b7160e01b600052602260045260246000fd5b50919050565b60805160a05160c05160e051610100516101205161206762000b6460003960006111f00152600061123f0152600061121a015260006111730152600061119d015260006111c701526120676000f3fe608060405234801561001057600080fd5b50600436106101c45760003560e01c8063715018a6116100f9578063a457c2d711610097578063d505accf11610071578063d505accf146103e2578063dd62ed3e146103f5578063f1127ed814610408578063f2fde38b1461044557600080fd5b8063a457c2d7146103a9578063a9059cbb146103bc578063c3cda520146103cf57600080fd5b80638da5cb5b116100d35780638da5cb5b1461036a5780638e539e8c1461037b57806395d89b411461038e5780639ab24eb01461039657600080fd5b8063715018a61461033c57806379cc6790146103445780637ecebe001461035757600080fd5b80633a46b1a811610166578063587cde1e11610140578063587cde1e146102945780635c19a95c146102d85780636fcfff45146102eb57806370a082311461031357600080fd5b80633a46b1a81461025957806340c10f191461026c57806342966c681461028157600080fd5b806323b872dd116101a257806323b872dd1461021c578063313ce5671461022f5780633644e5151461023e578063395093511461024657600080fd5b806306fdde03146101c9578063095ea7b3146101e757806318160ddd1461020a575b600080fd5b6101d1610458565b6040516101de9190611d03565b60405180910390f35b6101fa6101f5366004611d74565b6104ea565b60405190151581526020016101de565b6002545b6040519081526020016101de565b6101fa61022a366004611d9e565b610502565b604051601281526020016101de565b61020e610526565b6101fa610254366004611d74565b610535565b61020e610267366004611d74565b610557565b61027f61027a366004611d74565b6105d6565b005b61027f61028f366004611dda565b6105ec565b6102c06102a2366004611df3565b6001600160a01b039081166000908152600760205260409020541690565b6040516001600160a01b0390911681526020016101de565b61027f6102e6366004611df3565b6105f9565b6102fe6102f9366004611df3565b610603565b60405163ffffffff90911681526020016101de565b61020e610321366004611df3565b6001600160a01b031660009081526020819052604090205490565b61027f61062b565b61027f610352366004611d74565b61063f565b61020e610365366004611df3565b610654565b600a546001600160a01b03166102c0565b61020e610389366004611dda565b610672565b6101d16106ce565b61020e6103a4366004611df3565b6106dd565b6101fa6103b7366004611d74565b610764565b6101fa6103ca366004611d74565b6107df565b61027f6103dd366004611e1f565b6107ed565b61027f6103f0366004611e77565b610923565b61020e610403366004611ee1565b610a87565b61041b610416366004611f14565b610ab2565b60408051825163ffffffff1681526020928301516001600160e01b031692810192909252016101de565b61027f610453366004611df3565b610b36565b60606003805461046790611f54565b80601f016020809104026020016040519081016040528092919081815260200182805461049390611f54565b80156104e05780601f106104b5576101008083540402835291602001916104e0565b820191906000526020600020905b8154815290600101906020018083116104c357829003601f168201915b5050505050905090565b6000336104f8818585610e24565b5060019392505050565b600033610510858285610f48565b61051b858585610fbc565b506001949350505050565b6000610530611166565b905090565b6000336104f88185856105488383610a87565b6105529190611f9e565b610e24565b60004382106105ad5760405162461bcd60e51b815260206004820152601f60248201527f4552433230566f7465733a20626c6f636b206e6f7420796574206d696e65640060448201526064015b60405180910390fd5b6001600160a01b03831660009081526008602052604090206105cf908361128d565b9392505050565b6105de611384565b6105e882826113de565b5050565b6105f633826113e8565b50565b6105f633826113f2565b6001600160a01b03811660009081526008602052604081205461062590610d7c565b92915050565b610633611384565b61063d600061146b565b565b61064a823383610f48565b6105e882826113e8565b6001600160a01b038116600090815260056020526040812054610625565b60004382106106c35760405162461bcd60e51b815260206004820152601f60248201527f4552433230566f7465733a20626c6f636b206e6f7420796574206d696e65640060448201526064016105a4565b61062560098361128d565b60606004805461046790611f54565b6001600160a01b0381166000908152600860205260408120548015610751576001600160a01b038316600090815260086020526040902061071f600183611fb6565b8154811061072f5761072f611fcd565b60009182526020909120015464010000000090046001600160e01b0316610754565b60005b6001600160e01b03169392505050565b600033816107728286610a87565b9050838110156107d25760405162461bcd60e51b815260206004820152602560248201527f45524332303a2064656372656173656420616c6c6f77616e63652062656c6f77604482015264207a65726f60d81b60648201526084016105a4565b61051b8286868403610e24565b6000336104f8818585610fbc565b8342111561083d5760405162461bcd60e51b815260206004820152601d60248201527f4552433230566f7465733a207369676e6174757265206578706972656400000060448201526064016105a4565b604080517fe48329057bfd03d55e49b547132e39cffd9c1820ad7b9d4c5307691425d15adf60208201526001600160a01b0388169181019190915260608101869052608081018590526000906108b7906108af9060a001604051602081830303815290604052805190602001206114bd565b85858561150b565b90506108c281611533565b86146109105760405162461bcd60e51b815260206004820152601960248201527f4552433230566f7465733a20696e76616c6964206e6f6e63650000000000000060448201526064016105a4565b61091a81886113f2565b50505050505050565b834211156109735760405162461bcd60e51b815260206004820152601d60248201527f45524332305065726d69743a206578706972656420646561646c696e6500000060448201526064016105a4565b60007f6e71edae12b1b97f4d1f60370fef10105fa2faae0126114a169c64845d6126c98888886109a28c611533565b6040805160208101969096526001600160a01b0394851690860152929091166060840152608083015260a082015260c0810186905260e00160405160208183030381529060405280519060200120905060006109fd826114bd565b90506000610a0d8287878761150b565b9050896001600160a01b0316816001600160a01b031614610a705760405162461bcd60e51b815260206004820152601e60248201527f45524332305065726d69743a20696e76616c6964207369676e6174757265000060448201526064016105a4565b610a7b8a8a8a610e24565b50505050505050505050565b6001600160a01b03918216600090815260016020908152604080832093909416825291909152205490565b60408051808201909152600080825260208201526001600160a01b0383166000908152600860205260409020805463ffffffff8416908110610af657610af6611fcd565b60009182526020918290206040805180820190915291015463ffffffff8116825264010000000090046001600160e01b0316918101919091529392505050565b610b3e611384565b6001600160a01b038116610ba35760405162461bcd60e51b815260206004820152602660248201527f4f776e61626c653a206e6577206f776e657220697320746865207a65726f206160448201526564647265737360d01b60648201526084016105a4565b6105f68161146b565b610bb68282610c3c565b6002546001600160e01b031015610c285760405162461bcd60e51b815260206004820152603060248201527f4552433230566f7465733a20746f74616c20737570706c79207269736b73206f60448201526f766572666c6f77696e6720766f74657360801b60648201526084016105a4565b610c366009610d038361155b565b50505050565b6001600160a01b038216610c925760405162461bcd60e51b815260206004820152601f60248201527f45524332303a206d696e7420746f20746865207a65726f20616464726573730060448201526064016105a4565b8060026000828254610ca49190611f9e565b90915550506001600160a01b038216600081815260208181526040808320805486019055518481527fddf252ad1be2c89b69c2b068fc378daa952ba7f163c4a11628f55a4df523b3ef910160405180910390a36105e8600083836116af565b60006105cf8284611f9e565b60006001600160e01b03821115610d785760405162461bcd60e51b815260206004820152602760248201527f53616665436173743a2076616c756520646f65736e27742066697420696e20326044820152663234206269747360c81b60648201526084016105a4565b5090565b600063ffffffff821115610d785760405162461bcd60e51b815260206004820152602660248201527f53616665436173743a2076616c756520646f65736e27742066697420696e203360448201526532206269747360d01b60648201526084016105a4565b6001600160a01b03838116600090815260076020526040808220548584168352912054610e13929182169116836116ba565b505050565b60006105cf8284611fb6565b6001600160a01b038316610e865760405162461bcd60e51b8152602060048201526024808201527f45524332303a20617070726f76652066726f6d20746865207a65726f206164646044820152637265737360e01b60648201526084016105a4565b6001600160a01b038216610ee75760405162461bcd60e51b815260206004820152602260248201527f45524332303a20617070726f766520746f20746865207a65726f206164647265604482015261737360f01b60648201526084016105a4565b6001600160a01b0383811660008181526001602090815260408083209487168084529482529182902085905590518481527f8c5be1e5ebec7d5bd14f71427d1e84f3dd0314c0f7b2291e5b200ac8c7c3b925910160405180910390a3505050565b6000610f548484610a87565b90506000198114610c365781811015610faf5760405162461bcd60e51b815260206004820152601d60248201527f45524332303a20696e73756666696369656e7420616c6c6f77616e636500000060448201526064016105a4565b610c368484848403610e24565b6001600160a01b0383166110205760405162461bcd60e51b815260206004820152602560248201527f45524332303a207472616e736665722066726f6d20746865207a65726f206164604482015264647265737360d81b60648201526084016105a4565b6001600160a01b0382166110825760405162461bcd60e51b815260206004820152602360248201527f45524332303a207472616e7366657220746f20746865207a65726f206164647260448201526265737360e81b60648201526084016105a4565b6001600160a01b038316600090815260208190526040902054818110156110fa5760405162461bcd60e51b815260206004820152602660248201527f45524332303a207472616e7366657220616d6f756e7420657863656564732062604482015265616c616e636560d01b60648201526084016105a4565b6001600160a01b03848116600081815260208181526040808320878703905593871680835291849020805487019055925185815290927fddf252ad1be2c89b69c2b068fc378daa952ba7f163c4a11628f55a4df523b3ef910160405180910390a3610c368484846116af565b6000306001600160a01b037f0000000000000000000000000000000000000000000000000000000000000000161480156111bf57507f000000000000000000000000000000000000000000000000000000000000000046145b156111e957507f000000000000000000000000000000000000000000000000000000000000000090565b50604080517f00000000000000000000000000000000000000000000000000000000000000006020808301919091527f0000000000000000000000000000000000000000000000000000000000000000828401527f000000000000000000000000000000000000000000000000000000000000000060608301524660808301523060a0808401919091528351808403909101815260c0909201909252805191012090565b8154600090818160058111156112e75760006112a8846117f7565b6112b29085611fb6565b600088815260209020909150869082015463ffffffff1611156112d7578091506112e5565b6112e2816001611f9e565b92505b505b808210156113345760006112fb83836118df565b600088815260209020909150869082015463ffffffff1611156113205780915061132e565b61132b816001611f9e565b92505b506112e7565b801561136e5761135786611349600184611fb6565b600091825260209091200190565b5464010000000090046001600160e01b0316611371565b60005b6001600160e01b03169695505050505050565b600a546001600160a01b0316331461063d5760405162461bcd60e51b815260206004820181905260248201527f4f776e61626c653a2063616c6c6572206973206e6f7420746865206f776e657260448201526064016105a4565b6105e88282610bac565b6105e882826118fa565b6001600160a01b038281166000818152600760208181526040808420805485845282862054949093528787166001600160a01b03198416811790915590519190951694919391928592917f3134e8a2e6d97e929a7e54011ea5485d7d196dd5f0ba4d4ef95803e8e3fc257f9190a4610c368284836116ba565b600a80546001600160a01b038381166001600160a01b0319831681179093556040519116919082907f8be0079c531659141344cd1fd0a4f28419497f9722a3daafe3b4186f6b6457e090600090a35050565b60006106256114ca611166565b8360405161190160f01b6020820152602281018390526042810182905260009060620160405160208183030381529060405280519060200120905092915050565b600080600061151c87878787611912565b91509150611529816119d6565b5095945050505050565b6001600160a01b03811660009081526005602052604090208054600181018255905b50919050565b825460009081908181156115a85761157887611349600185611fb6565b60408051808201909152905463ffffffff8116825264010000000090046001600160e01b031660208201526115bd565b60408051808201909152600080825260208201525b905080602001516001600160e01b031693506115dd84868863ffffffff16565b92506000821180156115f55750805163ffffffff1643145b1561163a5761160383610d0f565b61161288611349600186611fb6565b80546001600160e01b03929092166401000000000263ffffffff9092169190911790556116a5565b86604051806040016040528061164f43610d7c565b63ffffffff16815260200161166386610d0f565b6001600160e01b0390811690915282546001810184556000938452602093849020835194909301519091166401000000000263ffffffff909316929092179101555b5050935093915050565b610e13838383610de1565b816001600160a01b0316836001600160a01b0316141580156116dc5750600081115b15610e13576001600160a01b0383161561176a576001600160a01b0383166000908152600860205260408120819061171790610e188561155b565b91509150846001600160a01b03167fdec2bacdd2f05b59de34da9b523dff8be42e5e38e818c82fdb0bae774387a724838360405161175f929190918252602082015260400190565b60405180910390a250505b6001600160a01b03821615610e13576001600160a01b038216600090815260086020526040812081906117a090610d038561155b565b91509150836001600160a01b03167fdec2bacdd2f05b59de34da9b523dff8be42e5e38e818c82fdb0bae774387a72483836040516117e8929190918252602082015260400190565b60405180910390a25050505050565b60008160000361180957506000919050565b6000600161181684611b20565b901c6001901b9050600181848161182f5761182f611fe3565b048201901c9050600181848161184757611847611fe3565b048201901c9050600181848161185f5761185f611fe3565b048201901c9050600181848161187757611877611fe3565b048201901c9050600181848161188f5761188f611fe3565b048201901c905060018184816118a7576118a7611fe3565b048201901c905060018184816118bf576118bf611fe3565b048201901c90506105cf818285816118d9576118d9611fe3565b04611bb4565b60006118ee6002848418611ff9565b6105cf90848416611f9e565b6119048282611bca565b610c366009610e188361155b565b6000807f7fffffffffffffffffffffffffffffff5d576e7357a4501ddfe92f46681b20a083111561194957506000905060036119cd565b6040805160008082526020820180845289905260ff881692820192909252606081018690526080810185905260019060a0016020604051602081039080840390855afa15801561199d573d6000803e3d6000fd5b5050604051601f1901519150506001600160a01b0381166119c6576000600192509250506119cd565b9150600090505b94509492505050565b60008160048111156119ea576119ea61201b565b036119f25750565b6001816004811115611a0657611a0661201b565b03611a535760405162461bcd60e51b815260206004820152601860248201527f45434453413a20696e76616c6964207369676e6174757265000000000000000060448201526064016105a4565b6002816004811115611a6757611a6761201b565b03611ab45760405162461bcd60e51b815260206004820152601f60248201527f45434453413a20696e76616c6964207369676e6174757265206c656e6774680060448201526064016105a4565b6003816004811115611ac857611ac861201b565b036105f65760405162461bcd60e51b815260206004820152602260248201527f45434453413a20696e76616c6964207369676e6174757265202773272076616c604482015261756560f01b60648201526084016105a4565b600080608083901c15611b3557608092831c92015b604083901c15611b4757604092831c92015b602083901c15611b5957602092831c92015b601083901c15611b6b57601092831c92015b600883901c15611b7d57600892831c92015b600483901c15611b8f57600492831c92015b600283901c15611ba157600292831c92015b600183901c156106255760010192915050565b6000818310611bc357816105cf565b5090919050565b6001600160a01b038216611c2a5760405162461bcd60e51b815260206004820152602160248201527f45524332303a206275726e2066726f6d20746865207a65726f206164647265736044820152607360f81b60648201526084016105a4565b6001600160a01b03821660009081526020819052604090205481811015611c9e5760405162461bcd60e51b815260206004820152602260248201527f45524332303a206275726e20616d6f756e7420657863656564732062616c616e604482015261636560f01b60648201526084016105a4565b6001600160a01b0383166000818152602081815260408083208686039055600280548790039055518581529192917fddf252ad1be2c89b69c2b068fc378daa952ba7f163c4a11628f55a4df523b3ef910160405180910390a3610e13836000846116af565b600060208083528351808285015260005b81811015611d3057858101830151858201604001528201611d14565b81811115611d42576000604083870101525b50601f01601f1916929092016040019392505050565b80356001600160a01b0381168114611d6f57600080fd5b919050565b60008060408385031215611d8757600080fd5b611d9083611d58565b946020939093013593505050565b600080600060608486031215611db357600080fd5b611dbc84611d58565b9250611dca60208501611d58565b9150604084013590509250925092565b600060208284031215611dec57600080fd5b5035919050565b600060208284031215611e0557600080fd5b6105cf82611d58565b803560ff81168114611d6f57600080fd5b60008060008060008060c08789031215611e3857600080fd5b611e4187611d58565b95506020870135945060408701359350611e5d60608801611e0e565b92506080870135915060a087013590509295509295509295565b600080600080600080600060e0888a031215611e9257600080fd5b611e9b88611d58565b9650611ea960208901611d58565b95506040880135945060608801359350611ec560808901611e0e565b925060a0880135915060c0880135905092959891949750929550565b60008060408385031215611ef457600080fd5b611efd83611d58565b9150611f0b60208401611d58565b90509250929050565b60008060408385031215611f2757600080fd5b611f3083611d58565b9150602083013563ffffffff81168114611f4957600080fd5b809150509250929050565b600181811c90821680611f6857607f821691505b60208210810361155557634e487b7160e01b600052602260045260246000fd5b634e487b7160e01b600052601160045260246000fd5b60008219821115611fb157611fb1611f88565b500190565b600082821015611fc857611fc8611f88565b500390565b634e487b7160e01b600052603260045260246000fd5b634e487b7160e01b600052601260045260246000fd5b60008261201657634e487b7160e01b600052601260045260246000fd5b500490565b634e487b7160e01b600052602160045260246000fdfea2646970667358221220b23f71caf8e08c05d3003827399208a15d4b834efb8d9884d6037fffa9cfb7d364736f6c634300080d0033dec2bacdd2f05b59de34da9b523dff8be42e5e38e818c82fdb0bae774387a724a2646970667358221220b55df763784b62daf49ef3e03ce64d26992cec1387ffae484975458f7c95bb5b64736f6c634300080d0033",
  "immutableReferences": {},
  "source": "// SPDX-License-Identifier: MIT\npragma solidity ^0.8.2;\n\n//Check openzeppelin for learning more about input variables like Name, Token Amount, etc. \n//https://docs.openzeppelin.com/contracts/4.x/wizard\n\n//import \"@openzeppelin/contracts/token/ERC20/presets/ERC20PresetMinterPauser.sol\";\n//import \"./EquistartProject.sol\";\nimport \"./ERC20Token.sol\";\n\n\ncontract TokenFactory {\n    \n    event NewTokenCreated(string name, string symbol, uint256 amount);\n\n    uint numOfProjects;\n\n    struct projectMeta{\n        uint256 id;\n        string projectName;\n        string symbol;\n        uint256 initialSupply;\n        address tokenBeneficiary;\n        address contractAddress;\n    }\n\n    // projectMeta[] public deployedProjects;\n    mapping(uint => projectMeta) private deployedProjects;\n    \n    function createProject(string memory name, string memory symbol, uint initialSupply, address beneficiary) public {\n        uint projectId = numOfProjects++;\n        projectMeta storage project = deployedProjects[projectId];\n        project.id = projectId;\n        project.projectName = name;\n        project.symbol = symbol;\n        project.initialSupply = initialSupply;\n        project.tokenBeneficiary = beneficiary;\n        project.contractAddress = address(new ERC20Token(name, symbol, initialSupply,  beneficiary));\n        emit NewTokenCreated(name, symbol, initialSupply);\n        // deployedProjects.push(newProject);\n    }\n    \n    function getAllDeployedProjects () public view returns (projectMeta[] memory props){\n        // return deployedProjects;\n        props = new projectMeta[](numOfProjects);\n        \n        for (uint256 index =0; index< numOfProjects; index++){\n            props[index] = deployedProjects[index];\n        }\n    }\n\n    function getProjectById(uint256 projectId) public view returns (projectMeta memory){\n        return deployedProjects[projectId];\n    }\n}",
  "sourcePath": "/Users/yaksheshgupta/Desktop/Equistart_Smart_Contract/contracts/contracts/TokenFactory.sol",
  "compiler": {
    "name": "solc",
    "version": "0.8.13+commit.abaa5c0e.Emscripten.clang"
  },
  "schemaVersion": "3.4.7",
  "updatedAt": "2023-02-06T14:37:51.954Z",
  "devdoc": {
    "kind": "dev",
    "methods": {},
    "version": 1
  },
  "userdoc": {
    "kind": "user",
    "methods": {},
    "version": 1
  }
}